{
  "abi": [
    {
      "type": "constructor",
      "inputs": [
        {
          "name": "_gamaTokenAddress",
          "type": "address",
          "internalType": "address"
        },
        {
          "name": "vrfCoordinator",
          "type": "address",
          "internalType": "address"
        },
        {
          "name": "subscriptionId",
          "type": "uint64",
          "internalType": "uint64"
        },
        {
          "name": "keyHash",
          "type": "bytes32",
          "internalType": "bytes32"
        },
        {
          "name": "_callbackGasLimit",
          "type": "uint32",
          "internalType": "uint32"
        },
        {
          "name": "_requestConfirmations",
          "type": "uint16",
          "internalType": "uint16"
        },
        {
          "name": "_numWords",
          "type": "uint8",
          "internalType": "uint8"
        }
      ],
      "stateMutability": "nonpayable"
    },
    {
      "type": "function",
      "name": "MAX_BET_AMOUNT",
      "inputs": [],
      "outputs": [
        {
          "name": "",
          "type": "uint256",
          "internalType": "uint256"
        }
      ],
      "stateMutability": "view"
    },
    {
      "type": "function",
      "name": "MAX_HISTORY_SIZE",
      "inputs": [],
      "outputs": [
        {
          "name": "",
          "type": "uint8",
          "internalType": "uint8"
        }
      ],
      "stateMutability": "view"
    },
    {
      "type": "function",
      "name": "MAX_POSSIBLE_PAYOUT",
      "inputs": [],
      "outputs": [
        {
          "name": "",
          "type": "uint256",
          "internalType": "uint256"
        }
      ],
      "stateMutability": "view"
    },
    {
      "type": "function",
      "name": "RESULT_FORCE_STOPPED",
      "inputs": [],
      "outputs": [
        {
          "name": "",
          "type": "uint8",
          "internalType": "uint8"
        }
      ],
      "stateMutability": "view"
    },
    {
      "type": "function",
      "name": "RESULT_RECOVERED",
      "inputs": [],
      "outputs": [
        {
          "name": "",
          "type": "uint8",
          "internalType": "uint8"
        }
      ],
      "stateMutability": "view"
    },
    {
      "type": "function",
      "name": "canStartNewGame",
      "inputs": [
        {
          "name": "player",
          "type": "address",
          "internalType": "address"
        }
      ],
      "outputs": [
        {
          "name": "",
          "type": "bool",
          "internalType": "bool"
        }
      ],
      "stateMutability": "view"
    },
    {
      "type": "function",
      "name": "forceStopGame",
      "inputs": [
        {
          "name": "player",
          "type": "address",
          "internalType": "address"
        }
      ],
      "outputs": [],
      "stateMutability": "nonpayable"
    },
    {
      "type": "function",
      "name": "gamaToken",
      "inputs": [],
      "outputs": [
        {
          "name": "",
          "type": "address",
          "internalType": "contract IERC20"
        }
      ],
      "stateMutability": "view"
    },
    {
      "type": "function",
      "name": "getBetHistory",
      "inputs": [
        {
          "name": "player",
          "type": "address",
          "internalType": "address"
        }
      ],
      "outputs": [
        {
          "name": "",
          "type": "tuple[]",
          "internalType": "struct BetHistory[]",
          "components": [
            {
              "name": "chosenNumber",
              "type": "uint8",
              "internalType": "uint8"
            },
            {
              "name": "rolledNumber",
              "type": "uint8",
              "internalType": "uint8"
            },
            {
              "name": "timestamp",
              "type": "uint32",
              "internalType": "uint32"
            },
            {
              "name": "amount",
              "type": "uint256",
              "internalType": "uint256"
            },
            {
              "name": "payout",
              "type": "uint256",
              "internalType": "uint256"
            }
          ]
        }
      ],
      "stateMutability": "view"
    },
    {
      "type": "function",
      "name": "getGameStatus",
      "inputs": [
        {
          "name": "player",
          "type": "address",
          "internalType": "address"
        }
      ],
      "outputs": [
        {
          "name": "isActive",
          "type": "bool",
          "internalType": "bool"
        },
        {
          "name": "isWin",
          "type": "bool",
          "internalType": "bool"
        },
        {
          "name": "isCompleted",
          "type": "bool",
          "internalType": "bool"
        },
        {
          "name": "chosenNumber",
          "type": "uint8",
          "internalType": "uint8"
        },
        {
          "name": "amount",
          "type": "uint256",
          "internalType": "uint256"
        },
        {
          "name": "result",
          "type": "uint8",
          "internalType": "uint8"
        },
        {
          "name": "payout",
          "type": "uint256",
          "internalType": "uint256"
        },
        {
          "name": "requestId",
          "type": "uint256",
          "internalType": "uint256"
        },
        {
          "name": "requestExists",
          "type": "bool",
          "internalType": "bool"
        },
        {
          "name": "requestProcessed",
          "type": "bool",
          "internalType": "bool"
        },
        {
          "name": "recoveryEligible",
          "type": "bool",
          "internalType": "bool"
        },
        {
          "name": "lastPlayTimestamp",
          "type": "uint256",
          "internalType": "uint256"
        }
      ],
      "stateMutability": "view"
    },
    {
      "type": "function",
      "name": "getPlayerForRequest",
      "inputs": [
        {
          "name": "requestId",
          "type": "uint256",
          "internalType": "uint256"
        }
      ],
      "outputs": [
        {
          "name": "",
          "type": "address",
          "internalType": "address"
        }
      ],
      "stateMutability": "view"
    },
    {
      "type": "function",
      "name": "getUserData",
      "inputs": [
        {
          "name": "player",
          "type": "address",
          "internalType": "address"
        }
      ],
      "outputs": [
        {
          "name": "gameState",
          "type": "tuple",
          "internalType": "struct GameState",
          "components": [
            {
              "name": "isActive",
              "type": "bool",
              "internalType": "bool"
            },
            {
              "name": "completed",
              "type": "bool",
              "internalType": "bool"
            },
            {
              "name": "chosenNumber",
              "type": "uint8",
              "internalType": "uint8"
            },
            {
              "name": "result",
              "type": "uint8",
              "internalType": "uint8"
            },
            {
              "name": "amount",
              "type": "uint256",
              "internalType": "uint256"
            },
            {
              "name": "payout",
              "type": "uint256",
              "internalType": "uint256"
            }
          ]
        },
        {
          "name": "lastPlayed",
          "type": "uint256",
          "internalType": "uint256"
        }
      ],
      "stateMutability": "view"
    },
    {
      "type": "function",
      "name": "hasPendingRequest",
      "inputs": [
        {
          "name": "player",
          "type": "address",
          "internalType": "address"
        }
      ],
      "outputs": [
        {
          "name": "",
          "type": "bool",
          "internalType": "bool"
        }
      ],
      "stateMutability": "view"
    },
    {
      "type": "function",
      "name": "owner",
      "inputs": [],
      "outputs": [
        {
          "name": "",
          "type": "address",
          "internalType": "address"
        }
      ],
      "stateMutability": "view"
    },
    {
      "type": "function",
      "name": "pause",
      "inputs": [],
      "outputs": [],
      "stateMutability": "nonpayable"
    },
    {
      "type": "function",
      "name": "paused",
      "inputs": [],
      "outputs": [
        {
          "name": "",
          "type": "bool",
          "internalType": "bool"
        }
      ],
      "stateMutability": "view"
    },
    {
      "type": "function",
      "name": "playDice",
      "inputs": [
        {
          "name": "chosenNumber",
          "type": "uint8",
          "internalType": "uint8"
        },
        {
          "name": "amount",
          "type": "uint256",
          "internalType": "uint256"
        }
      ],
      "outputs": [
        {
          "name": "requestId",
          "type": "uint256",
          "internalType": "uint256"
        }
      ],
      "stateMutability": "nonpayable"
    },
    {
      "type": "function",
      "name": "rawFulfillRandomWords",
      "inputs": [
        {
          "name": "requestId",
          "type": "uint256",
          "internalType": "uint256"
        },
        {
          "name": "randomWords",
          "type": "uint256[]",
          "internalType": "uint256[]"
        }
      ],
      "outputs": [],
      "stateMutability": "nonpayable"
    },
    {
      "type": "function",
      "name": "recoverOwnStuckGame",
      "inputs": [],
      "outputs": [],
      "stateMutability": "nonpayable"
    },
    {
      "type": "function",
      "name": "renounceOwnership",
      "inputs": [],
      "outputs": [],
      "stateMutability": "nonpayable"
    },
    {
      "type": "function",
      "name": "s_requests",
      "inputs": [
        {
          "name": "",
          "type": "uint256",
          "internalType": "uint256"
        }
      ],
      "outputs": [
        {
          "name": "fulfilled",
          "type": "bool",
          "internalType": "bool"
        },
        {
          "name": "exists",
          "type": "bool",
          "internalType": "bool"
        }
      ],
      "stateMutability": "view"
    },
    {
      "type": "function",
      "name": "totalGamesPlayed",
      "inputs": [],
      "outputs": [
        {
          "name": "",
          "type": "uint256",
          "internalType": "uint256"
        }
      ],
      "stateMutability": "view"
    },
    {
      "type": "function",
      "name": "totalPayoutAmount",
      "inputs": [],
      "outputs": [
        {
          "name": "",
          "type": "uint256",
          "internalType": "uint256"
        }
      ],
      "stateMutability": "view"
    },
    {
      "type": "function",
      "name": "totalWageredAmount",
      "inputs": [],
      "outputs": [
        {
          "name": "",
          "type": "uint256",
          "internalType": "uint256"
        }
      ],
      "stateMutability": "view"
    },
    {
      "type": "function",
      "name": "transferOwnership",
      "inputs": [
        {
          "name": "newOwner",
          "type": "address",
          "internalType": "address"
        }
      ],
      "outputs": [],
      "stateMutability": "nonpayable"
    },
    {
      "type": "function",
      "name": "unpause",
      "inputs": [],
      "outputs": [],
      "stateMutability": "nonpayable"
    },
    {
      "type": "event",
      "name": "BetPlaced",
      "inputs": [
        {
          "name": "player",
          "type": "address",
          "indexed": true,
          "internalType": "address"
        },
        {
          "name": "requestId",
          "type": "uint256",
          "indexed": false,
          "internalType": "uint256"
        },
        {
          "name": "chosenNumber",
          "type": "uint8",
          "indexed": false,
          "internalType": "uint8"
        },
        {
          "name": "amount",
          "type": "uint256",
          "indexed": false,
          "internalType": "uint256"
        }
      ],
      "anonymous": false
    },
    {
      "type": "event",
      "name": "GameCompleted",
      "inputs": [
        {
          "name": "player",
          "type": "address",
          "indexed": true,
          "internalType": "address"
        },
        {
          "name": "requestId",
          "type": "uint256",
          "indexed": false,
          "internalType": "uint256"
        },
        {
          "name": "result",
          "type": "uint8",
          "indexed": false,
          "internalType": "uint8"
        },
        {
          "name": "payout",
          "type": "uint256",
          "indexed": false,
          "internalType": "uint256"
        }
      ],
      "anonymous": false
    },
    {
      "type": "event",
      "name": "GameRecovered",
      "inputs": [
        {
          "name": "player",
          "type": "address",
          "indexed": true,
          "internalType": "address"
        },
        {
          "name": "requestId",
          "type": "uint256",
          "indexed": false,
          "internalType": "uint256"
        },
        {
          "name": "refundAmount",
          "type": "uint256",
          "indexed": false,
          "internalType": "uint256"
        }
      ],
      "anonymous": false
    },
    {
      "type": "event",
      "name": "OwnershipTransferred",
      "inputs": [
        {
          "name": "previousOwner",
          "type": "address",
          "indexed": true,
          "internalType": "address"
        },
        {
          "name": "newOwner",
          "type": "address",
          "indexed": true,
          "internalType": "address"
        }
      ],
      "anonymous": false
    },
    {
      "type": "event",
      "name": "Paused",
      "inputs": [
        {
          "name": "account",
          "type": "address",
          "indexed": false,
          "internalType": "address"
        }
      ],
      "anonymous": false
    },
    {
      "type": "event",
      "name": "Unpaused",
      "inputs": [
        {
          "name": "account",
          "type": "address",
          "indexed": false,
          "internalType": "address"
        }
      ],
      "anonymous": false
    },
    {
      "type": "error",
      "name": "BurnFailed",
      "inputs": [
        {
          "name": "account",
          "type": "address",
          "internalType": "address"
        },
        {
          "name": "amount",
          "type": "uint256",
          "internalType": "uint256"
        }
      ]
    },
    {
      "type": "error",
      "name": "EnforcedPause",
      "inputs": []
    },
    {
      "type": "error",
      "name": "ExpectedPause",
      "inputs": []
    },
    {
      "type": "error",
      "name": "GameError",
      "inputs": [
        {
          "name": "reason",
          "type": "string",
          "internalType": "string"
        }
      ]
    },
    {
      "type": "error",
      "name": "InsufficientAllowance",
      "inputs": [
        {
          "name": "required",
          "type": "uint256",
          "internalType": "uint256"
        },
        {
          "name": "allowed",
          "type": "uint256",
          "internalType": "uint256"
        }
      ]
    },
    {
      "type": "error",
      "name": "InsufficientUserBalance",
      "inputs": [
        {
          "name": "required",
          "type": "uint256",
          "internalType": "uint256"
        },
        {
          "name": "available",
          "type": "uint256",
          "internalType": "uint256"
        }
      ]
    },
    {
      "type": "error",
      "name": "InvalidBetParameters",
      "inputs": [
        {
          "name": "reason",
          "type": "string",
          "internalType": "string"
        }
      ]
    },
    {
      "type": "error",
      "name": "MaxPayoutExceeded",
      "inputs": [
        {
          "name": "potentialPayout",
          "type": "uint256",
          "internalType": "uint256"
        },
        {
          "name": "maxAllowed",
          "type": "uint256",
          "internalType": "uint256"
        }
      ]
    },
    {
      "type": "error",
      "name": "MintFailed",
      "inputs": [
        {
          "name": "account",
          "type": "address",
          "internalType": "address"
        },
        {
          "name": "amount",
          "type": "uint256",
          "internalType": "uint256"
        }
      ]
    },
    {
      "type": "error",
      "name": "OnlyCoordinatorCanFulfill",
      "inputs": [
        {
          "name": "have",
          "type": "address",
          "internalType": "address"
        },
        {
          "name": "want",
          "type": "address",
          "internalType": "address"
        }
      ]
    },
    {
      "type": "error",
      "name": "OwnableInvalidOwner",
      "inputs": [
        {
          "name": "owner",
          "type": "address",
          "internalType": "address"
        }
      ]
    },
    {
      "type": "error",
      "name": "OwnableUnauthorizedAccount",
      "inputs": [
        {
          "name": "account",
          "type": "address",
          "internalType": "address"
        }
      ]
    },
    {
      "type": "error",
      "name": "PayoutCalculationError",
      "inputs": [
        {
          "name": "message",
          "type": "string",
          "internalType": "string"
        }
      ]
    },
    {
      "type": "error",
      "name": "ReentrancyGuardReentrantCall",
      "inputs": []
    },
    {
      "type": "error",
      "name": "TransferFailed",
      "inputs": [
        {
          "name": "from",
          "type": "address",
          "internalType": "address"
        },
        {
          "name": "to",
          "type": "address",
          "internalType": "address"
        },
        {
          "name": "amount",
          "type": "uint256",
          "internalType": "uint256"
        }
      ]
    },
    {
      "type": "error",
      "name": "VRFError",
      "inputs": [
        {
          "name": "reason",
          "type": "string",
          "internalType": "string"
        }
      ]
    }
  ],
  "bytecode": {
    "object": "0x6101803461030457601f6131ec38819003918201601f19168301916001600160401b038311848410176103085780849260e094604052833981010312610304576100488161031c565b906100556020820161031c565b60408201519092906001600160401b03811681036103045760608301519060808401519263ffffffff8416908185036103045760a08601519561ffff871687036103045760c001519660ff8816908189036103045760015f558060805233156102f15760018054610100600160a81b0319811633600881811b610100600160a81b031692909217909355604051959291901c6001600160a01b03167f8be0079c531659141344cd1fd0a4f28419497f9722a3daafe3b4186f6b6457e05f80a36001600160a01b03169283156102af57506001600160a01b031692831561026a571561021b57156101d65760a05260c05260e05261010052610120526101405261016052604051612ebb9081610331823960805181612064015260a05181818161033901528181610f90015281816111d00152818161180901526128ac015260c051816105ea015260e05181610528015261010051816104f90152610120518161057e015261014051816105520152610160518181816105a701526126030152f35b60405162461bcd60e51b815260206004820152601e60248201527f4e756d626572206f6620776f7264732063616e6e6f74206265207a65726f00006044820152606490fd5b60405162461bcd60e51b815260206004820152602160248201527f43616c6c6261636b20676173206c696d69742063616e6e6f74206265207a65726044820152606f60f81b6064820152608490fd5b60405162461bcd60e51b815260206004820152601e60248201527f56524620636f6f7264696e61746f722063616e6e6f74206265207a65726f00006044820152606490fd5b62461bcd60e51b815260206004820152601c60248201527f546f6b656e20616464726573732063616e6e6f74206265207a65726f000000006044820152606490fd5b631e4fbdf760e01b5f525f60045260245ffd5b5f80fd5b634e487b7160e01b5f52604160045260245ffd5b51906001600160a01b03821682036103045756fe6080806040526004361015610012575f80fd5b5f905f3560e01c9081630424315114612149575080630c99375d146120e65780631fe543e314611fdd578063309167f514611fb857806338f8bc6d14611f9d5780633f4ba83a14611f125780634689b44114611eed57806354e4437e14611d5357806357816f3e14611d385780635bdb2e1b14611d1b5780635c49212914611cfe5780635c975abb14611cdc5780635d424b8514611c78578063715018a614611bf75780638456cb5914611b935780638da5cb5b14611b5d578063a168fa8914611b23578063a20ff9fc14611673578063b52a085514611087578063c10662511461106b578063ce84a53b14610fb4578063d56ec8c914610f63578063e7efcfc214610f45578063f2fde38b14610e4d578063f3b5a671146102a65763ffc9896b1461013c575f80fd5b346102a35760206003193601126102a35760043573ffffffffffffffffffffffffffffffffffffffff81168091036102a1578160a060405161017d81612185565b82815282602082015282604082015282606082015282608082015201528015610242578160409160e0935260026020522063ffffffff6005820154166040516101c581612185565b82549260ff8085161515948584528160208501818360081c16151581526040860190828460101c16825282606088019460181c16845260a0600260018801549760808a0198895201549701968752604051988952511515602089015251166040870152511660608501525160808401525160a083015260c0820152f35b6040517f34460f4100000000000000000000000000000000000000000000000000000000815260206004820152601660248201527f496e76616c696420706c617965722061646472657373000000000000000000006044820152606490fd5b505b80fd5b50346102a35760406003193601126102a35760043560ff8116918282036102a357602435916102d3612d55565b6102db612d8c565b8215610def576a084595161401484a0000008311610d9157600184108015610d87575b610d29573382526002602052604082209260ff845416610ccb57600384018054610c6d5773ffffffffffffffffffffffffffffffffffffffff7f0000000000000000000000000000000000000000000000000000000000000000166040517f70a08231000000000000000000000000000000000000000000000000000000008152336004820152602081602481855afa908115610b82579084918791610c38575b5010610b8d576040517fdd62ed3e000000000000000000000000000000000000000000000000000000008152336004820152306024820152602081604481855afa908115610b82579084918791610b4d575b5010610a8d5760068302838104600603610a6057836006820403610a02576a31a17e847807b1bc00000081116109c857604051907f6f97e31c000000000000000000000000000000000000000000000000000000008252602082600481865afa9182156109bd578792610989575b5081811161095b575050803b15610957576040517f79cc6790000000000000000000000000000000000000000000000000000000008152336004820152602481018490529085908290604490829084905af180156109335790859161093e575b50506104cd82600554612243565b600555604051947f5d3b1d300000000000000000000000000000000000000000000000000000000086527f0000000000000000000000000000000000000000000000000000000000000000600487015267ffffffffffffffff7f000000000000000000000000000000000000000000000000000000000000000016602487015261ffff7f000000000000000000000000000000000000000000000000000000000000000016604487015263ffffffff7f000000000000000000000000000000000000000000000000000000000000000016606487015260ff7f000000000000000000000000000000000000000000000000000000000000000016608487015260208660a4818873ffffffffffffffffffffffffffffffffffffffff7f0000000000000000000000000000000000000000000000000000000000000000165af19586156109335785966108fb575b5060209660405161062b89826121ea565b8681525f3681376040516060810181811067ffffffffffffffff8211176108ce57906001916040528881528a8101828152604082019384528a8a5260068c5260408a209151151560ff60ff19845416911515161782555115157fffffffffffffffffffffffffffffffffffffffffffffffffffffffffffff00ff61ff00835492151560081b1691161781550190519081519167ffffffffffffffff83116108ce5791818b80946106df848e9a999896612299565b01908a52838a208a5b8381106108b7575050505092876002819897948260a089966108ab997f1efa8a4db358fbd4b3e1004cca7c5a1bdc9de3512d3392d48a51d1961316f9839b60019f526007825260408420337fffffffffffffffffffffffff000000000000000000000000000000000000000082541617905588845260088252604084208f60ff198254161790556005850163ffffffff42167fffffffffffffffffffffffffffffffffffffffffffffffffffffffff00000000825416179055436006860155600785017fffffffffffffffffffffffffffffffffffffffffffffffffffffffffffff00ff815416905583604051926107df84612185565b60018452830152604082015282606082015288608082015201528a60ff198254161781557fffffffffffffffffffffffffffffffffffffffffffffffffffffffffffff00ff815416815580547fffffffffffffffffffffffffffffffffffffffffffffffffffffffffff00ffff62ff00008b60101b1691161781557fffffffffffffffffffffffffffffffffffffffffffffffffffffffff00ffffff8154168155858b8201550155556040519182913395898460ff604092959493606083019683521660208201520152565b0390a255604051908152f35b8251818301558c98508d95909201916001016106e8565b6024897f4e487b710000000000000000000000000000000000000000000000000000000081526041600452fd5b9095506020813d60201161092b575b81610917602093836121ea565b810103126109275751945f61061a565b5f80fd5b3d915061090a565b6040513d87823e3d90fd5b81610948916121ea565b61095357835f6104bf565b8380fd5b8480fd5b7f21e510be000000000000000000000000000000000000000000000000000000008752600452602452604485fd5b9091506020813d6020116109b5575b816109a5602093836121ea565b810103126109275751905f61045f565b3d9150610998565b6040513d89823e3d90fd5b7f21e510be0000000000000000000000000000000000000000000000000000000086526004526a31a17e847807b1bc000000602452604485fd5b60646040517f327512f600000000000000000000000000000000000000000000000000000000815260206004820152601b60248201527f5061796f75742063616c63756c6174696f6e206f766572666c6f7700000000006044820152fd5b6024867f4e487b710000000000000000000000000000000000000000000000000000000081526011600452fd5b6040517fdd62ed3e0000000000000000000000000000000000000000000000000000000081523360048201523060248201529085908490602090849060449082905afa908115610b42578291610b0d575b604493507f2a1b2dd8000000000000000000000000000000000000000000000000000000008352600452602452fd5b90506020833d602011610b3a575b81610b28602093836121ea565b81010312610927576044925190610ade565b3d9150610b1b565b6040513d84823e3d90fd5b9150506020813d602011610b7a575b81610b69602093836121ea565b81010312610927578390515f6103f1565b3d9150610b5c565b6040513d88823e3d90fd5b84836020602493604051948580927f70a082310000000000000000000000000000000000000000000000000000000082523360048301525afa908115610b42578291610c03575b604493507f5f504d20000000000000000000000000000000000000000000000000000000008352600452602452fd5b90506020833d602011610c30575b81610c1e602093836121ea565b81010312610927576044925190610bd4565b3d9150610c11565b9150506020813d602011610c65575b81610c54602093836121ea565b81010312610927578390515f61039f565b3d9150610c47565b60646040517f13b419a900000000000000000000000000000000000000000000000000000000815260206004820152601a60248201527f557365722068617320612070656e64696e6720726571756573740000000000006044820152fd5b60646040517f13b419a900000000000000000000000000000000000000000000000000000000815260206004820152601760248201527f557365722068617320616e206163746976652067616d650000000000000000006044820152fd5b60646040517f34460f4100000000000000000000000000000000000000000000000000000000815260206004820152601560248201527f496e76616c69642063686f73656e206e756d62657200000000000000000000006044820152fd5b50600684116102fe565b60646040517f34460f4100000000000000000000000000000000000000000000000000000000815260206004820152601460248201527f42657420616d6f756e7420746f6f206c617267650000000000000000000000006044820152fd5b60646040517f34460f4100000000000000000000000000000000000000000000000000000000815260206004820152601960248201527f42657420616d6f756e742063616e6e6f74206265207a65726f000000000000006044820152fd5b50346102a35760206003193601126102a35760043573ffffffffffffffffffffffffffffffffffffffff811690818103610f4157610e89612d05565b8115610f155773ffffffffffffffffffffffffffffffffffffffff9074ffffffffffffffffffffffffffffffffffffffff006001549160081b167fffffffffffffffffffffff0000000000000000000000000000000000000000ff82161760015560081c167f8be0079c531659141344cd1fd0a4f28419497f9722a3daafe3b4186f6b6457e08380a380f35b6024837f1e4fbdf700000000000000000000000000000000000000000000000000000000815280600452fd5b8280fd5b50346102a357806003193601126102a3576020600454604051908152f35b50346102a357806003193601126102a357602060405173ffffffffffffffffffffffffffffffffffffffff7f0000000000000000000000000000000000000000000000000000000000000000168152f35b50346102a35760206003193601126102a35760043573ffffffffffffffffffffffffffffffffffffffff811681036102a157610fef9061238b565b90604051918291602083016020845282518091526020604085019301915b81811061101b575050500390f35b91935091602060a06001926080875160ff815116835260ff85820151168584015263ffffffff6040820151166040840152606081015160608401520151608082015201940191019184939261100d565b50346102a357806003193601126102a3576020604051600a8152f35b50346102a35760206003193601126102a35760043573ffffffffffffffffffffffffffffffffffffffff811690818103610f41576110c3612d05565b6110cb612d55565b8183526002602052604083209060ff825416156116145760038201908154928315158080916115fe575b806115e5575b61156057600682015461012c81018091116115335743118163ffffffff61112781600587015416612250565b16421181611519575b821592611510575b508115611507575b506114845760018201549384156114255787916113c0575b82547fffffffffffffffffffffffffffffffffffffffffffffffffffffffff00ff00001663fe00010017835560028301859055556007810180547fffffffffffffffffffffffffffffffffffffffffffffffffffffffffffff00ff16815591869073ffffffffffffffffffffffffffffffffffffffff7f000000000000000000000000000000000000000000000000000000000000000016803b15610f41576040517f40c10f1900000000000000000000000000000000000000000000000000000000815273ffffffffffffffffffffffffffffffffffffffff9290921660048301526024820186905282908290604490829084905af18015610b42576113a7575b5050600460ff825460101c169160405192611274846121ce565b835260fe602084015263ffffffff421660408401528460608401528460808401520190600a8254105f146113485781546801000000000000000081101561131b5760ff600a604096946112fb7ff43f4cfd330c9814ec89dcb330ca1c7559745bb35a6ea4068b171116c4ea3d539997956112f58660018798018555846122eb565b90612dc0565b5406161660ff198254161790555b82519182526020820152a26001815580f35b6024887f4e487b710000000000000000000000000000000000000000000000000000000081526041600452fd5b6112f561135a9260ff855416906122eb565b600160ff8254160160ff8111610a6057917ff43f4cfd330c9814ec89dcb330ca1c7559745bb35a6ea4068b171116c4ea3d53939160ff600a8160409616061660ff19825416179055611309565b816113b1916121ea565b6113bc57855f61125a565b8580fd5b8582526007602052604082207fffffffffffffffffffffffff0000000000000000000000000000000000000000815416905585825260086020526040822060ff198154169055858252600660205261142060016040842084815501612269565b611158565b6040517f13b419a900000000000000000000000000000000000000000000000000000000815260206004820152601160248201527f4e6f7468696e6720746f20726566756e640000000000000000000000000000006044820152606490fd5b60846040517f13b419a9000000000000000000000000000000000000000000000000000000008152602060048201526024808201527f47616d65206e6f7420656c696769626c6520666f7220666f7263652073746f7060448201527f20796574000000000000000000000000000000000000000000000000000000006064820152fd5b9050155f611140565b1591505f611138565b878a52600660205260408a205460081c60ff169150611130565b6024887f4e487b710000000000000000000000000000000000000000000000000000000081526011600452fd5b6040517f13b419a900000000000000000000000000000000000000000000000000000000815260206004820152602860248201527f52657175657374206a7573742066756c66696c6c65642c206c6574205652462060448201527f636f6d706c6574650000000000000000000000000000000000000000000000006064820152608490fd5b506006820154600a8101809111611533574311156110fb565b50848752600660205260ff6040882054166110f5565b6040517f13b419a900000000000000000000000000000000000000000000000000000000815260206004820152600e60248201527f4e6f206163746976652067616d650000000000000000000000000000000000006044820152606490fd5b5034610927575f6003193601126109275761168c612d55565b611694612d8c565b335f52600260205260405f2060ff8154161561161457600381018054918215611ac557825f52600660205260ff60405f20541680611aac575b61156057600681015461012c8101809111611a7f57431163ffffffff6116f881600585015416612250565b164211845f52600660205260ff60405f205460081c1690821592611a76575b508115611a6d575b506119e9576001810154918215611425575f90848252600660205261174c60016040842084815501612269565b84825260076020818152604080852080547fffffffffffffffffffffffff000000000000000000000000000000000000000016905587855260089091528320805460ff1916905583547fffffffffffffffffffffffffffffffffffffffffffffffffffffffff00ff00001663ff00010017845560028401859055919055810180547fffffffffffffffffffffffffffffffffffffffffffffffffffffffffffff00ff1681559073ffffffffffffffffffffffffffffffffffffffff7f000000000000000000000000000000000000000000000000000000000000000016803b15610927576040517f40c10f1900000000000000000000000000000000000000000000000000000000815233600482015260248101859052905f908290604490829084905af180156119de576119c9575b50600460ff825460101c169160405192611895846121ce565b835260ff602084015263ffffffff421660408401528460608401528460808401520190600a8254105f14611963578154680100000000000000008110156119365760ff926118f084936112f5846001600a96018555846122eb565b5406161660ff198254161790555b60405191825260208201527ff43f4cfd330c9814ec89dcb330ca1c7559745bb35a6ea4068b171116c4ea3d5360403392a26001815580f35b6024877f4e487b710000000000000000000000000000000000000000000000000000000081526041600452fd5b6112f56119759260ff855416906122eb565b600160ff8254160160ff811161199c57600a60ff809216061660ff198254161790556118fe565b6024857f4e487b710000000000000000000000000000000000000000000000000000000081526011600452fd5b6119d69195505f906121ea565b5f935f61187c565b6040513d5f823e3d90fd5b60846040517f13b419a900000000000000000000000000000000000000000000000000000000815260206004820152602260248201527f47616d65206e6f7420656c696769626c6520666f72207265636f76657279207960448201527f65740000000000000000000000000000000000000000000000000000000000006064820152fd5b9050155f61171f565b1591505f611717565b7f4e487b71000000000000000000000000000000000000000000000000000000005f52601160045260245ffd5b506006810154600a8101809111611a7f574311156116cd565b60646040517f13b419a900000000000000000000000000000000000000000000000000000000815260206004820152601d60248201527f4e6f2070656e64696e67207265717565737420746f207265636f7665720000006044820152fd5b34610927576020600319360112610927576004355f5260066020526040805f205460ff8251918181161515835260081c1615156020820152f35b34610927575f60031936011261092757602073ffffffffffffffffffffffffffffffffffffffff60015460081c16604051908152f35b34610927575f60031936011261092757611bab612d05565b611bb3612d55565b611bbb612d8c565b600160ff19815416176001557f62e78cea01bee320cd4e420270b5ea74000d11b0c9f74754ebdbfc544b05a2586020604051338152a160015f55005b34610927575f60031936011261092757611c0f612d05565b5f73ffffffffffffffffffffffffffffffffffffffff6001547fffffffffffffffffffffff0000000000000000000000000000000000000000ff811660015560081c167f8be0079c531659141344cd1fd0a4f28419497f9722a3daafe3b4186f6b6457e08280a3005b346109275760206003193601126109275760043573ffffffffffffffffffffffffffffffffffffffff8116809103610927575f526002602052602060405f2060ff815416159081611ccf575b506040519015158152f35b6003915001541582611cc4565b34610927575f60031936011261092757602060ff600154166040519015158152f35b34610927575f600319360112610927576020600354604051908152f35b34610927575f600319360112610927576020600554604051908152f35b34610927575f60031936011261092757602060405160ff8152f35b346109275760206003193601126109275760043573ffffffffffffffffffffffffffffffffffffffff8116809103610927578015610242575f52600260205260405f2080549060ff821660018201549260ff8160181c1692600281015491600382015463ffffffff600584015416938015159687611ee3575b87611ed7575b8697985f979697945f968515159081611eb5575b5f99611e4f575b505060ff906101809b6040519b15158c52151560208c0152818160081c16151560408c015260101c1660608a0152608089015260a088015260c087015260e0860152151561010085015215156101208401521515610140830152610160820152f35b6006919c995001549061012c8201809211611a7f576101809b60ff9243119063ffffffff611e7c8d612250565b16421181611ead575b82611ea5575b5081611e9d575b50989b819250611ded565b90508d611e92565b91508e611e8b565b899150611e85565b97509550845f52600660205260405f20549560ff808860081c16971697611de6565b60068111159750611dd2565b8015159750611dcc565b34610927575f6003193601126109275760206040516a31a17e847807b1bc0000008152f35b34610927575f60031936011261092757611f2a612d05565b611f32612d55565b60015460ff811615611f755760ff19166001557f5db9ee0a495bf2e6ff9c91a7834c1ba4fdd244a5e8aa4e537bd38aeae4b073aa6020604051338152a160015f55005b7f8dfc202b000000000000000000000000000000000000000000000000000000005f5260045ffd5b34610927575f60031936011261092757602060405160fe8152f35b34610927575f6003193601126109275760206040516a084595161401484a0000008152f35b346109275760406003193601126109275760243567ffffffffffffffff811161092757366023820112156109275780600401359061201a8261222b565b9161202860405193846121ea565b8083526024602084019160051b8301019136831161092757602401905b8282106120d6578373ffffffffffffffffffffffffffffffffffffffff7f000000000000000000000000000000000000000000000000000000000000000016908133036120a6576120a090612098612d55565b6004356125d8565b60015f55005b507f1cf993f4000000000000000000000000000000000000000000000000000000005f523360045260245260445ffd5b8135815260209182019101612045565b346109275760206003193601126109275760043573ffffffffffffffffffffffffffffffffffffffff8116809103610927575f526002602052602060405f2060ff815416908161213b57506040519015158152f35b600391500154151582611cc4565b34610927576020600319360112610927576020906004355f526007825273ffffffffffffffffffffffffffffffffffffffff60405f2054168152f35b60c0810190811067ffffffffffffffff8211176121a157604052565b7f4e487b71000000000000000000000000000000000000000000000000000000005f52604160045260245ffd5b60a0810190811067ffffffffffffffff8211176121a157604052565b90601f7fffffffffffffffffffffffffffffffffffffffffffffffffffffffffffffffe0910116810190811067ffffffffffffffff8211176121a157604052565b67ffffffffffffffff81116121a15760051b60200190565b91908201809211611a7f57565b63ffffffff610e109116019063ffffffff8211611a7f57565b8054905f815581612278575050565b5f5260205f20908101905b81811061228e575050565b5f8155600101612283565b906801000000000000000081116121a1578154918181558282106122bc57505050565b5f5260205f2091820191015b8181106122d3575050565b5f81556001016122c8565b91908203918211611a7f57565b8054821015612304575f52600360205f20910201905f90565b7f4e487b71000000000000000000000000000000000000000000000000000000005f52603260045260245ffd5b80518210156123045760209160051b010190565b90604051612352816121ce565b60806002829463ffffffff815460ff8116865260ff8160081c16602087015260101c166040850152600181015460608501520154910152565b73ffffffffffffffffffffffffffffffffffffffff606091168015610242575f52600260205260405f209060048201805491821561257d5750600a82111561257657600a925b7fffffffffffffffffffffffffffffffffffffffffffffffffffffffffffffffe06124146123fe8661222b565b9561240c60405197886121ea565b80875261222b565b015f5b818110612541575050600a8310156124a157507fffffffffffffffffffffffffffffffffffffffffffffffffffffffffffffffff82018281115f5b84811061246157505050505090565b81611a7f578061248561247f612479600194876122de565b876122eb565b50612345565b61248f8289612331565b5261249a8188612331565b5001612452565b6007015490915060ff168061250f575060ff60095b16905f91600a8101809111925b600a81106124d2575050505090565b83611a7f57806124f361247f600a6124ec600195876122de565b06866122eb565b6124fd8288612331565b526125088187612331565b50016124c3565b7fffffffffffffffffffffffffffffffffffffffffffffffffffffffffffffffff0160ff8111611a7f5760ff906124b6565b602090604051612550816121ce565b5f81525f838201525f60408201525f60608201525f608082015282828901015201612417565b81926123d1565b92505050604051906125906020836121ea565b5f82525f90815b8281106125a45750505090565b6020906040516125b3816121ce565b5f81525f838201525f60408201525f848201525f608082015282828701015201612597565b90815f52600660205260405f209182549060ff8260081c1615612ca75760ff8216612c4957825160ff7f00000000000000000000000000000000000000000000000000000000000000001603612beb57805f52600760205273ffffffffffffffffffffffffffffffffffffffff60405f205416938415612b8c57845f52600260205260405f2092600384019183835403612b2e57600160ff1981931617815501845167ffffffffffffffff81116121a1576126938183612299565b6020860180925f5260205f205f5b838110612b1a575050505060078401906101007fffffffffffffffffffffffffffffffffffffffffffffffffffffffffffff00ff83541617825560ff85541615612a8a5760ff855460101c16906001860154965115612304578060069150510660018101809111611a7f5760ff16945f968683146129c3575b81547fffffffffffffffffffffffffffffffffffffffffffffffffffffffff00ff000016601888901b63ff000000161761010017825560028201889055604051926004929190612769856121ce565b845287602085015263ffffffff4216604085015260608401528760808401520190600a8254105f1461298a57815490680100000000000000008210156121a15760ff926127c3600a926112f58560018897018555846122eb565b5406161660ff198254161790555b6001600354016003555f8415159182612976575b8382526007602052604082207fffffffffffffffffffffffff0000000000000000000000000000000000000000815416905583825260086020526040822060ff198154169055838252600660205261284560016040842084815501612269565b55612895575b6128907fc74777e2214d32e7b4952c2ecbbfc0ec7dc3642e448c3c927261cb69d9f03650936040519384938460ff604092959493606083019683521660208201520152565b0390a2565b73ffffffffffffffffffffffffffffffffffffffff7f00000000000000000000000000000000000000000000000000000000000000001692833b15610927576040517f40c10f1900000000000000000000000000000000000000000000000000000000815273ffffffffffffffffffffffffffffffffffffffff8616600482015260248101829052935f908590604490829084905af19081156119de577fc74777e2214d32e7b4952c2ecbbfc0ec7dc3642e448c3c927261cb69d9f036509461289092612966575b5093505061284b565b5f612970916121ea565b5f61295d565b61298286600454612243565b6004556127e5565b6112f561299c9260ff855416906122eb565b600160ff8254160160ff8111611a7f57600a60ff809216061660ff198254161790556127d1565b96507f2aaaaaaaaaaaaaaaaaaaaaaaaaaaaaaaaaaaaaaaaaaaaaaaaaaaaaaaaaaaaaaa8711612a0657600687029087820460061488151715611a7f57909661271a565b60846040517f327512f600000000000000000000000000000000000000000000000000000000815260206004820152602b60248201527f42657420616d6f756e7420746f6f206c6172676520666f72207061796f75742060448201527f63616c63756c6174696f6e0000000000000000000000000000000000000000006064820152fd5b50945091505f92508083526006602052612aac60016040852085815501612269565b8083526007602052604083207fffffffffffffffffffffffff00000000000000000000000000000000000000008154169055825260086020526040822060ff198154169055557fffffffffffffffffffffffffffffffffffffffffffffffffffffffffffff00ff8154169055565b6001906020845194019381840155016126a1565b60646040517f13b419a900000000000000000000000000000000000000000000000000000000815260206004820152601360248201527f52657175657374204944206d69736d61746368000000000000000000000000006044820152fd5b6040517f1726a07e00000000000000000000000000000000000000000000000000000000815260206004820152601660248201527f496e76616c696420706c617965722061646472657373000000000000000000006044820152606490fd5b60646040517f1726a07e00000000000000000000000000000000000000000000000000000000815260206004820152601b60248201527f496e76616c69642072616e646f6d20776f726473206c656e67746800000000006044820152fd5b60646040517f1726a07e00000000000000000000000000000000000000000000000000000000815260206004820152601960248201527f5265717565737420616c72656164792066756c66696c6c6564000000000000006044820152fd5b60646040517f1726a07e00000000000000000000000000000000000000000000000000000000815260206004820152601160248201527f52657175657374206e6f7420666f756e640000000000000000000000000000006044820152fd5b73ffffffffffffffffffffffffffffffffffffffff60015460081c163303612d2957565b7f118cdaa7000000000000000000000000000000000000000000000000000000005f523360045260245ffd5b60025f5414612d645760025f55565b7f3ee5aeb5000000000000000000000000000000000000000000000000000000005f5260045ffd5b60ff60015416612d9857565b7fd93c0665000000000000000000000000000000000000000000000000000000005f5260045ffd5b9190612e595760808160ff8060029451161660ff19855416178455602081015161ff0085549160081b16807fffffffffffffffffffffffffffffffffffffffffffffffffffffffffffff00ff83161786557fffffffffffffffffffffffffffffffffffffffffffffffffffff0000000000ff65ffffffff0000604085015160101b16921617178455606081015160018501550151910155565b7f4e487b71000000000000000000000000000000000000000000000000000000005f525f60045260245ffdfea26469706673582212204b81624432bdefb0a93c53fc806e9c01da9e5e41aee70dae7f28d292e45e9b5964736f6c634300081c0033",
    "linkReferences": {}
  },
  "methodIdentifiers": {
    "MAX_BET_AMOUNT()": "309167f5",
    "MAX_HISTORY_SIZE()": "c1066251",
    "MAX_POSSIBLE_PAYOUT()": "4689b441",
    "RESULT_FORCE_STOPPED()": "38f8bc6d",
    "RESULT_RECOVERED()": "57816f3e",
    "canStartNewGame(address)": "5d424b85",
    "forceStopGame(address)": "b52a0855",
    "gamaToken()": "d56ec8c9",
    "getBetHistory(address)": "ce84a53b",
    "getGameStatus(address)": "54e4437e",
    "getPlayerForRequest(uint256)": "04243151",
    "getUserData(address)": "ffc9896b",
    "hasPendingRequest(address)": "0c99375d",
    "owner()": "8da5cb5b",
    "pause()": "8456cb59",
    "paused()": "5c975abb",
    "playDice(uint8,uint256)": "f3b5a671",
    "rawFulfillRandomWords(uint256,uint256[])": "1fe543e3",
    "recoverOwnStuckGame()": "a20ff9fc",
    "renounceOwnership()": "715018a6",
    "s_requests(uint256)": "a168fa89",
    "totalGamesPlayed()": "5c492129",
    "totalPayoutAmount()": "e7efcfc2",
    "totalWageredAmount()": "5bdb2e1b",
    "transferOwnership(address)": "f2fde38b",
    "unpause()": "3f4ba83a"
  },
  "id": 31
}