{
  "abi": [
    {
      "type": "constructor",
      "inputs": [
        {
          "name": "_gamaTokenAddress",
          "type": "address",
          "internalType": "address"
        },
        {
          "name": "vrfCoordinator",
          "type": "address",
          "internalType": "address"
        },
        {
          "name": "subscriptionId",
          "type": "uint64",
          "internalType": "uint64"
        },
        {
          "name": "keyHash",
          "type": "bytes32",
          "internalType": "bytes32"
        },
        {
          "name": "_callbackGasLimit",
          "type": "uint32",
          "internalType": "uint32"
        },
        {
          "name": "_requestConfirmations",
          "type": "uint16",
          "internalType": "uint16"
        },
        {
          "name": "_numWords",
          "type": "uint8",
          "internalType": "uint8"
        }
      ],
      "stateMutability": "nonpayable"
    },
    {
      "type": "function",
      "name": "BURNER_ROLE",
      "inputs": [],
      "outputs": [
        {
          "name": "",
          "type": "bytes32",
          "internalType": "bytes32"
        }
      ],
      "stateMutability": "view"
    },
    {
      "type": "function",
      "name": "MAX_BET_AMOUNT",
      "inputs": [],
      "outputs": [
        {
          "name": "",
          "type": "uint256",
          "internalType": "uint256"
        }
      ],
      "stateMutability": "view"
    },
    {
      "type": "function",
      "name": "MAX_HISTORY_SIZE",
      "inputs": [],
      "outputs": [
        {
          "name": "",
          "type": "uint8",
          "internalType": "uint8"
        }
      ],
      "stateMutability": "view"
    },
    {
      "type": "function",
      "name": "MINTER_ROLE",
      "inputs": [],
      "outputs": [
        {
          "name": "",
          "type": "bytes32",
          "internalType": "bytes32"
        }
      ],
      "stateMutability": "view"
    },
    {
      "type": "function",
      "name": "RESULT_FORCE_STOPPED",
      "inputs": [],
      "outputs": [
        {
          "name": "",
          "type": "uint8",
          "internalType": "uint8"
        }
      ],
      "stateMutability": "view"
    },
    {
      "type": "function",
      "name": "RESULT_RECOVERED",
      "inputs": [],
      "outputs": [
        {
          "name": "",
          "type": "uint8",
          "internalType": "uint8"
        }
      ],
      "stateMutability": "view"
    },
    {
      "type": "function",
      "name": "canStartNewGame",
      "inputs": [
        {
          "name": "player",
          "type": "address",
          "internalType": "address"
        }
      ],
      "outputs": [
        {
          "name": "",
          "type": "bool",
          "internalType": "bool"
        }
      ],
      "stateMutability": "view"
    },
    {
      "type": "function",
      "name": "forceStopGame",
      "inputs": [
        {
          "name": "player",
          "type": "address",
          "internalType": "address"
        }
      ],
      "outputs": [],
      "stateMutability": "nonpayable"
    },
    {
      "type": "function",
      "name": "gamaToken",
      "inputs": [],
      "outputs": [
        {
          "name": "",
          "type": "address",
          "internalType": "contract IERC20"
        }
      ],
      "stateMutability": "view"
    },
    {
      "type": "function",
      "name": "getBetHistory",
      "inputs": [
        {
          "name": "player",
          "type": "address",
          "internalType": "address"
        }
      ],
      "outputs": [
        {
          "name": "",
          "type": "tuple[]",
          "internalType": "struct BetHistory[]",
          "components": [
            {
              "name": "chosenNumber",
              "type": "uint8",
              "internalType": "uint8"
            },
            {
              "name": "rolledNumber",
              "type": "uint8",
              "internalType": "uint8"
            },
            {
              "name": "timestamp",
              "type": "uint32",
              "internalType": "uint32"
            },
            {
              "name": "amount",
              "type": "uint256",
              "internalType": "uint256"
            },
            {
              "name": "payout",
              "type": "uint256",
              "internalType": "uint256"
            }
          ]
        }
      ],
      "stateMutability": "view"
    },
    {
      "type": "function",
      "name": "getGameStatus",
      "inputs": [
        {
          "name": "player",
          "type": "address",
          "internalType": "address"
        }
      ],
      "outputs": [
        {
          "name": "isActive",
          "type": "bool",
          "internalType": "bool"
        },
        {
          "name": "isWin",
          "type": "bool",
          "internalType": "bool"
        },
        {
          "name": "isCompleted",
          "type": "bool",
          "internalType": "bool"
        },
        {
          "name": "chosenNumber",
          "type": "uint8",
          "internalType": "uint8"
        },
        {
          "name": "amount",
          "type": "uint256",
          "internalType": "uint256"
        },
        {
          "name": "result",
          "type": "uint8",
          "internalType": "uint8"
        },
        {
          "name": "payout",
          "type": "uint256",
          "internalType": "uint256"
        },
        {
          "name": "requestId",
          "type": "uint256",
          "internalType": "uint256"
        },
        {
          "name": "requestExists",
          "type": "bool",
          "internalType": "bool"
        },
        {
          "name": "requestProcessed",
          "type": "bool",
          "internalType": "bool"
        },
        {
          "name": "recoveryEligible",
          "type": "bool",
          "internalType": "bool"
        },
        {
          "name": "lastPlayTimestamp",
          "type": "uint256",
          "internalType": "uint256"
        }
      ],
      "stateMutability": "view"
    },
    {
      "type": "function",
      "name": "getPlayerForRequest",
      "inputs": [
        {
          "name": "requestId",
          "type": "uint256",
          "internalType": "uint256"
        }
      ],
      "outputs": [
        {
          "name": "",
          "type": "address",
          "internalType": "address"
        }
      ],
      "stateMutability": "view"
    },
    {
      "type": "function",
      "name": "getUserData",
      "inputs": [
        {
          "name": "player",
          "type": "address",
          "internalType": "address"
        }
      ],
      "outputs": [
        {
          "name": "gameState",
          "type": "tuple",
          "internalType": "struct GameState",
          "components": [
            {
              "name": "isActive",
              "type": "bool",
              "internalType": "bool"
            },
            {
              "name": "completed",
              "type": "bool",
              "internalType": "bool"
            },
            {
              "name": "chosenNumber",
              "type": "uint8",
              "internalType": "uint8"
            },
            {
              "name": "result",
              "type": "uint8",
              "internalType": "uint8"
            },
            {
              "name": "amount",
              "type": "uint256",
              "internalType": "uint256"
            },
            {
              "name": "payout",
              "type": "uint256",
              "internalType": "uint256"
            }
          ]
        },
        {
          "name": "lastPlayed",
          "type": "uint256",
          "internalType": "uint256"
        }
      ],
      "stateMutability": "view"
    },
    {
      "type": "function",
      "name": "hasPendingRequest",
      "inputs": [
        {
          "name": "player",
          "type": "address",
          "internalType": "address"
        }
      ],
      "outputs": [
        {
          "name": "",
          "type": "bool",
          "internalType": "bool"
        }
      ],
      "stateMutability": "view"
    },
    {
      "type": "function",
      "name": "owner",
      "inputs": [],
      "outputs": [
        {
          "name": "",
          "type": "address",
          "internalType": "address"
        }
      ],
      "stateMutability": "view"
    },
    {
      "type": "function",
      "name": "pause",
      "inputs": [],
      "outputs": [],
      "stateMutability": "nonpayable"
    },
    {
      "type": "function",
      "name": "paused",
      "inputs": [],
      "outputs": [
        {
          "name": "",
          "type": "bool",
          "internalType": "bool"
        }
      ],
      "stateMutability": "view"
    },
    {
      "type": "function",
      "name": "playDice",
      "inputs": [
        {
          "name": "chosenNumber",
          "type": "uint8",
          "internalType": "uint8"
        },
        {
          "name": "amount",
          "type": "uint256",
          "internalType": "uint256"
        }
      ],
      "outputs": [
        {
          "name": "requestId",
          "type": "uint256",
          "internalType": "uint256"
        }
      ],
      "stateMutability": "nonpayable"
    },
    {
      "type": "function",
      "name": "rawFulfillRandomWords",
      "inputs": [
        {
          "name": "requestId",
          "type": "uint256",
          "internalType": "uint256"
        },
        {
          "name": "randomWords",
          "type": "uint256[]",
          "internalType": "uint256[]"
        }
      ],
      "outputs": [],
      "stateMutability": "nonpayable"
    },
    {
      "type": "function",
      "name": "recoverOwnStuckGame",
      "inputs": [],
      "outputs": [],
      "stateMutability": "nonpayable"
    },
    {
      "type": "function",
      "name": "renounceOwnership",
      "inputs": [],
      "outputs": [],
      "stateMutability": "nonpayable"
    },
    {
      "type": "function",
      "name": "s_requests",
      "inputs": [
        {
          "name": "",
          "type": "uint256",
          "internalType": "uint256"
        }
      ],
      "outputs": [
        {
          "name": "fulfilled",
          "type": "bool",
          "internalType": "bool"
        },
        {
          "name": "exists",
          "type": "bool",
          "internalType": "bool"
        }
      ],
      "stateMutability": "view"
    },
    {
      "type": "function",
      "name": "totalGamesPlayed",
      "inputs": [],
      "outputs": [
        {
          "name": "",
          "type": "uint256",
          "internalType": "uint256"
        }
      ],
      "stateMutability": "view"
    },
    {
      "type": "function",
      "name": "totalPayoutAmount",
      "inputs": [],
      "outputs": [
        {
          "name": "",
          "type": "uint256",
          "internalType": "uint256"
        }
      ],
      "stateMutability": "view"
    },
    {
      "type": "function",
      "name": "totalWageredAmount",
      "inputs": [],
      "outputs": [
        {
          "name": "",
          "type": "uint256",
          "internalType": "uint256"
        }
      ],
      "stateMutability": "view"
    },
    {
      "type": "function",
      "name": "transferOwnership",
      "inputs": [
        {
          "name": "newOwner",
          "type": "address",
          "internalType": "address"
        }
      ],
      "outputs": [],
      "stateMutability": "nonpayable"
    },
    {
      "type": "function",
      "name": "unpause",
      "inputs": [],
      "outputs": [],
      "stateMutability": "nonpayable"
    },
    {
      "type": "event",
      "name": "OwnershipTransferred",
      "inputs": [
        {
          "name": "previousOwner",
          "type": "address",
          "indexed": true,
          "internalType": "address"
        },
        {
          "name": "newOwner",
          "type": "address",
          "indexed": true,
          "internalType": "address"
        }
      ],
      "anonymous": false
    },
    {
      "type": "event",
      "name": "Paused",
      "inputs": [
        {
          "name": "account",
          "type": "address",
          "indexed": false,
          "internalType": "address"
        }
      ],
      "anonymous": false
    },
    {
      "type": "event",
      "name": "Unpaused",
      "inputs": [
        {
          "name": "account",
          "type": "address",
          "indexed": false,
          "internalType": "address"
        }
      ],
      "anonymous": false
    },
    {
      "type": "error",
      "name": "EnforcedPause",
      "inputs": []
    },
    {
      "type": "error",
      "name": "ExpectedPause",
      "inputs": []
    },
    {
      "type": "error",
      "name": "GameError",
      "inputs": [
        {
          "name": "reason",
          "type": "string",
          "internalType": "string"
        }
      ]
    },
    {
      "type": "error",
      "name": "InsufficientAllowance",
      "inputs": [
        {
          "name": "required",
          "type": "uint256",
          "internalType": "uint256"
        },
        {
          "name": "allowed",
          "type": "uint256",
          "internalType": "uint256"
        }
      ]
    },
    {
      "type": "error",
      "name": "InsufficientUserBalance",
      "inputs": [
        {
          "name": "required",
          "type": "uint256",
          "internalType": "uint256"
        },
        {
          "name": "available",
          "type": "uint256",
          "internalType": "uint256"
        }
      ]
    },
    {
      "type": "error",
      "name": "InvalidBetParameters",
      "inputs": [
        {
          "name": "reason",
          "type": "string",
          "internalType": "string"
        }
      ]
    },
    {
      "type": "error",
      "name": "MissingContractRole",
      "inputs": [
        {
          "name": "role",
          "type": "bytes32",
          "internalType": "bytes32"
        }
      ]
    },
    {
      "type": "error",
      "name": "OnlyCoordinatorCanFulfill",
      "inputs": [
        {
          "name": "have",
          "type": "address",
          "internalType": "address"
        },
        {
          "name": "want",
          "type": "address",
          "internalType": "address"
        }
      ]
    },
    {
      "type": "error",
      "name": "OwnableInvalidOwner",
      "inputs": [
        {
          "name": "owner",
          "type": "address",
          "internalType": "address"
        }
      ]
    },
    {
      "type": "error",
      "name": "OwnableUnauthorizedAccount",
      "inputs": [
        {
          "name": "account",
          "type": "address",
          "internalType": "address"
        }
      ]
    },
    {
      "type": "error",
      "name": "PayoutCalculationError",
      "inputs": [
        {
          "name": "message",
          "type": "string",
          "internalType": "string"
        }
      ]
    },
    {
      "type": "error",
      "name": "ReentrancyGuardReentrantCall",
      "inputs": []
    },
    {
      "type": "error",
      "name": "TransferFailed",
      "inputs": [
        {
          "name": "reason",
          "type": "string",
          "internalType": "string"
        }
      ]
    },
    {
      "type": "error",
      "name": "VRFError",
      "inputs": [
        {
          "name": "reason",
          "type": "string",
          "internalType": "string"
        }
      ]
    }
  ],
  "bytecode": {
    "object": "0x610180604052348015610010575f5ffd5b50604051612dfb380380612dfb83398101604081905261002f916102ab565b60015f556001600160a01b038616608052338061006657604051631e4fbdf760e01b81525f60048201526024015b60405180910390fd5b61006f81610227565b506001600160a01b0387166100c7576040516334460f4160e01b815260206004820152601c60248201527f546f6b656e20616464726573732063616e6e6f74206265207a65726f00000000604482015260640161005d565b6001600160a01b03861661012d576040516334460f4160e01b815260206004820152602660248201527f56524620636f6f7264696e61746f7220616464726573732063616e6e6f74206260448201526565207a65726f60d01b606482015260840161005d565b8263ffffffff165f0361018d576040516334460f4160e01b815260206004820152602160248201527f43616c6c6261636b20676173206c696d69742063616e6e6f74206265207a65726044820152606f60f81b606482015260840161005d565b8060ff165f036101e0576040516334460f4160e01b815260206004820152601e60248201527f4e756d626572206f6620776f7264732063616e6e6f74206265207a65726f0000604482015260640161005d565b6001600160a01b0396871660a0529490951660c0526001600160401b0390921660e0526101005263ffffffff166101205261ffff9091166101405260ff1661016052610347565b600180546001600160a01b03838116610100818102610100600160a81b031985161790945560405193909204169182907f8be0079c531659141344cd1fd0a4f28419497f9722a3daafe3b4186f6b6457e0905f90a35050565b80516001600160a01b0381168114610296575f5ffd5b919050565b805160ff81168114610296575f5ffd5b5f5f5f5f5f5f5f60e0888a0312156102c1575f5ffd5b6102ca88610280565b96506102d860208901610280565b60408901519096506001600160401b03811681146102f4575f5ffd5b606089015160808a0151919650945063ffffffff81168114610314575f5ffd5b60a089015190935061ffff8116811461032b575f5ffd5b915061033960c0890161029b565b905092959891949750929550565b60805160a05160c05160e051610100516101205161014051610160516129f061040b5f395f818161157c01526118e801525f61152701525f61155301525f6114ce01525f6114fd01525f6115a301525f818161040301528181610a0601528181610abf01528181610d7401528181610e370152818161142401528181611ca501528181611d680152818161213e015281816121d0015281816122840152818161231c015281816123e401526124bc01525f8181610501015261054301526129f05ff3fe608060405234801561000f575f5ffd5b50600436106101a1575f3560e01c8063715018a6116100f3578063ce84a53b11610093578063e7efcfc21161006e578063e7efcfc214610425578063f2fde38b1461042e578063f3b5a67114610441578063ffc9896b14610454575f5ffd5b8063ce84a53b146103ca578063d5391393146103ea578063d56ec8c9146103fe575f5ffd5b8063a168fa89116100ce578063a168fa8914610365578063a20ff9fc146103a7578063b52a0855146103af578063c1066251146103c2575f5ffd5b8063715018a61461033f5780638456cb59146103475780638da5cb5b1461034f575f5ffd5b80633f4ba83a1161015e5780635bdb2e1b116101395780635bdb2e1b1461030f5780635c492129146103185780635c975abb146103215780635d424b851461032c575f5ffd5b80633f4ba83a1461028357806354e4437e1461028b57806357816f3e14610307575f5ffd5b806304243151146101a55780630c99375d146101ea5780631fe543e31461020d578063282c51f314610222578063309167f51461025757806338f8bc6d14610269575b5f5ffd5b6101cd6101b33660046125f4565b5f908152600760205260409020546001600160a01b031690565b6040516001600160a01b0390911681526020015b60405180910390f35b6101fd6101f836600461260b565b6104c4565b60405190151581526020016101e1565b61022061021b366004612645565b6104f6565b005b6102497f3c11d16cbaffd01df69ce1c404f6340ee057498f5f00246190ea54220576a84881565b6040519081526020016101e1565b6102496a084595161401484a00000081565b61027160fe81565b60405160ff90911681526020016101e1565b610220610583565b61029e61029936600461260b565b6105a6565b604080519c15158d529a151560208d0152981515998b019990995260ff96871660608b015260808a01959095529490921660a088015260c087015260e08601529015156101008501521515610120840152901515610140830152610160820152610180016101e1565b61027160ff81565b61024960055481565b61024960035481565b60015460ff166101fd565b6101fd61033a36600461260b565b61075f565b61022061078e565b61022061079f565b60015461010090046001600160a01b03166101cd565b6103906103733660046125f4565b60066020525f908152604090205460ff8082169161010090041682565b6040805192151583529015156020830152016101e1565b6102206107b7565b6102206103bd36600461260b565b610bed565b610271600a81565b6103dd6103d836600461260b565b610f5f565b6040516101e19190612719565b6102495f51602061299b5f395f51905f5281565b6101cd7f000000000000000000000000000000000000000000000000000000000000000081565b61024960045481565b61022061043c36600461260b565b611254565b61024961044f366004612797565b61128e565b61046761046236600461260b565b61174d565b6040516101e19291905f60e08201905083511515825260208401511515602083015260ff604085015116604083015260ff60608501511660608301526080840151608083015260a084015160a08301528260c08301529392505050565b6001600160a01b0381165f908152600260205260408120805460ff1680156104ef5750600381015415155b9392505050565b336001600160a01b037f000000000000000000000000000000000000000000000000000000000000000016146105755760405163073e64fd60e21b81523360048201526001600160a01b037f00000000000000000000000000000000000000000000000000000000000000001660248201526044015b60405180910390fd5b61057f8282611828565b5050565b61058b611e0b565b610593611e3e565b61059b611e66565b6105a460015f55565b565b5f80808080808080808080806001600160a01b038d166105d9576040516334460f4160e01b815260040161056c906127c6565b5f60025f8f6001600160a01b03166001600160a01b031681526020019081526020015f209050805f015f015f9054906101000a900460ff169c50805f015f0160019054906101000a900460ff169a50805f015f0160029054906101000a900460ff169950805f01600101549850805f015f0160039054906101000a900460ff169750805f0160020154965080600301549550806005015f9054906101000a900463ffffffff1663ffffffff1691505f8711801561069857505f8860ff16115b80156106a85750600660ff891611155b9b505f945084935085156106d3575f8681526006602052604090205460ff6101008204811696501693505b5f92508c1561074f5760068101545f906106f09061012c9061280a565b4311156106fb575060015b86158015906107075750855b80156107105750845b15610719575060015b801580156107435750600582015461073a90610e109063ffffffff1661281d565b63ffffffff1642115b1561074c575060015b92505b5091939597999b5091939597999b565b6001600160a01b0381165f908152600260205260408120805460ff161580156104ef5750600301541592915050565b610796611e0b565b6105a45f611eb8565b6107a7611e0b565b6107af611e3e565b61059b611f11565b6107bf611e3e565b335f908152600260205260409020805460ff16610810576040516313b419a960e01b815260206004820152600e60248201526d4e6f206163746976652067616d6560901b604482015260640161056c565b60068101545f906108249061012c9061280a565b43111561082f575060015b600382015415801590610854575060038201545f9081526006602052604090205460ff165b1561085d575060015b801580156108875750600582015461087e90610e109063ffffffff1661281d565b63ffffffff1642115b15610890575060015b806108e9576040516313b419a960e01b815260206004820152602260248201527f47616d65206e6f7420656c696769626c6520666f72207265636f766572792079604482015261195d60f21b606482015260840161056c565b60018201545f819003610933576040516313b419a960e01b8152602060048201526011602482015270139bdd1a1a5b99c81d1bc81c99599d5b99607a1b604482015260640161056c565b600383015480156109de57835460ff191684555f8181526006602052604090205460ff1680156109725750600684015461096e90600a61280a565b4311155b15610990576040516313b419a960e01b815260040161056c90612839565b5f81815260076020908152604080832080546001600160a01b031916905560088252808320805460ff1916905560069091528120805461ffff19168155906109db600183018261257c565b50505b604051632474521560e21b81525f51602061299b5f395f51905f5260048201523060248201527f00000000000000000000000000000000000000000000000000000000000000006001600160a01b0316906391d1485490604401602060405180830381865afa158015610a53573d5f5f3e3d5ffd5b505050506040513d601f19601f82011682018060405250810190610a779190612881565b610aa3576040516359f75fb760e11b81525f51602061299b5f395f51905f52600482015260240161056c565b6040516340c10f1960e01b8152336004820152602481018390527f00000000000000000000000000000000000000000000000000000000000000006001600160a01b0316906340c10f19906044015f604051808303815f87803b158015610b08575f5ffd5b505af1925050508015610b19575060015b610b66576040516312dfddb360e01b815260206004820152601b60248201527f546f6b656e206d696e74206661696c6564206f6e20726566756e640000000000604482015260640161056c565b60038054905f610b75836128a0565b91905055508160055f828254610b8b919061280a565b925050819055508160045f828254610ba3919061280a565b9091555050835463ff00ff00191663ff00010017808555600285018390555f6003860155610be090859060ff620100009091048116908580611f4c565b505050506105a460015f55565b610bf5611e0b565b610bfd611e3e565b6001600160a01b0381165f908152600260205260409020805460ff16610c57576040516313b419a960e01b815260206004820152600e60248201526d4e6f206163746976652067616d6560901b604482015260640161056c565b60018101545f819003610ca1576040516313b419a960e01b8152602060048201526011602482015270139bdd1a1a5b99c81d1bc81c99599d5b99607a1b604482015260640161056c565b60038201548015610d4c57825460ff191683555f8181526006602052604090205460ff168015610ce057506006830154610cdc90600a61280a565b4311155b15610cfe576040516313b419a960e01b815260040161056c90612839565b5f81815260076020908152604080832080546001600160a01b031916905560088252808320805460ff1916905560069091528120805461ffff1916815590610d49600183018261257c565b50505b604051632474521560e21b81525f51602061299b5f395f51905f5260048201523060248201527f00000000000000000000000000000000000000000000000000000000000000006001600160a01b0316906391d1485490604401602060405180830381865afa158015610dc1573d5f5f3e3d5ffd5b505050506040513d601f19601f82011682018060405250810190610de59190612881565b610e11576040516359f75fb760e11b81525f51602061299b5f395f51905f52600482015260240161056c565b6040516340c10f1960e01b81526001600160a01b038581166004830152602482018490527f000000000000000000000000000000000000000000000000000000000000000016906340c10f19906044015f604051808303815f87803b158015610e78575f5ffd5b505af1925050508015610e89575060015b610ed6576040516312dfddb360e01b815260206004820152601f60248201527f546f6b656e206d696e74206661696c6564206f6e20666f7263652073746f7000604482015260640161056c565b60038054905f610ee5836128a0565b91905055508160055f828254610efb919061280a565b925050819055508160045f828254610f13919061280a565b9091555050825463ff00ff00191663fe00010017808455600284018390555f6003850155610f5090849060ff620100009091041660fe8580611f4c565b505050610f5c60015f55565b50565b60606001600160a01b038216610f88576040516334460f4160e01b815260040161056c906127c6565b6001600160a01b0382165f9081526002602052604081206004810154909181900361100457604080515f8082526020820190925290610ffb565b6040805160a0810182525f808252602080830182905292820181905260608201819052608082015282525f19909201910181610fc25790505b50949350505050565b5f600a82116110135781611016565b600a5b90505f8167ffffffffffffffff81111561103257611032612631565b60405190808252806020026020018201604052801561108957816020015b6040805160a0810182525f808252602080830182905292820181905260608201819052608082015282525f199092019101816110505790505b509050600a83101561114f575f5b838110156111495760048501816110af6001876128b8565b6110b991906128b8565b815481106110c9576110c96128cb565b5f9182526020918290206040805160a081018252600393909302909101805460ff8082168552610100820416948401949094526201000090930463ffffffff16908201526001820154606082015260029091015460808201528251839083908110611136576111366128cb565b6020908102919091010152600101611097565b5061124b565b60078401545f9060ff16156111775760078501546111729060019060ff166128df565b611183565b6111836001600a6128df565b60ff1690505f5b600a8110156112485760048601600a826111a4828661280a565b6111ae91906128b8565b6111b8919061290c565b815481106111c8576111c86128cb565b5f9182526020918290206040805160a081018252600393909302909101805460ff8082168552610100820416948401949094526201000090930463ffffffff16908201526001820154606082015260029091015460808201528351849083908110611235576112356128cb565b602090810291909101015260010161118a565b50505b95945050505050565b61125c611e0b565b6001600160a01b03811661128557604051631e4fbdf760e01b81525f600482015260240161056c565b610f5c81611eb8565b5f611297611e3e565b61129f6120f9565b815f036112ef576040516334460f4160e01b815260206004820152601960248201527f42657420616d6f756e742063616e6e6f74206265207a65726f00000000000000604482015260640161056c565b6a084595161401484a000000821115611342576040516334460f4160e01b815260206004820152601460248201527342657420616d6f756e7420746f6f206c6172676560601b604482015260640161056c565b60018360ff1610806113575750600660ff8416115b1561139d576040516334460f4160e01b815260206004820152601560248201527424b73b30b634b21031b437b9b2b710373ab6b132b960591b604482015260640161056c565b335f908152600260205260409020805460ff16156113fe576040516313b419a960e01b815260206004820152601760248201527f557365722068617320616e206163746976652067616d65000000000000000000604482015260640161056c565b611408338461211d565b604051632770a7eb60e21b8152336004820152602481018490527f00000000000000000000000000000000000000000000000000000000000000006001600160a01b031690639dc29fac906044015f604051808303815f87803b15801561146d575f5ffd5b505af192505050801561147e575060015b6114bf576040516312dfddb360e01b8152602060048201526011602482015270151bdad95b88189d5c9b8819985a5b1959607a1b604482015260640161056c565b6040516305d3b1d360e41b81527f0000000000000000000000000000000000000000000000000000000000000000600482015267ffffffffffffffff7f000000000000000000000000000000000000000000000000000000000000000016602482015261ffff7f000000000000000000000000000000000000000000000000000000000000000016604482015263ffffffff7f000000000000000000000000000000000000000000000000000000000000000016606482015260ff7f00000000000000000000000000000000000000000000000000000000000000001660848201527f00000000000000000000000000000000000000000000000000000000000000006001600160a01b031690635d3b1d309060a4016020604051808303815f875af11580156115f1573d5f5f3e3d5ffd5b505050506040513d601f19601f82011682018060405250810190611615919061291f565b604080516060810182525f8082526001602080840182815285518481528083018752858701908152878552600683529590932084518154945161ffff1990951690151561ff001916176101009415159490940293909317835593518051959750929491936116899391850192910190612597565b5050505f82815260076020908152604080832080546001600160a01b0319163317905560088252808320805460ff1916600190811790915560058501805463ffffffff421663ffffffff19909116179055436006860155815160c08101835281815292830184905260ff8816918301829052606083018490526080830187905260a0909201839052835463ff000000196201000090920262ffffff199091161782171683558201849055600282015560030181905561174760015f55565b92915050565b6040805160c0810182525f80825260208201819052918101829052606081018290526080810182905260a08101829052906001600160a01b0383166117a5576040516334460f4160e01b815260040161056c906127c6565b50506001600160a01b03165f908152600260208181526040928390206005810154845160c081018652825460ff808216151583526101008204811615159583019590955262010000810485169682019690965263010000009095049092166060850152600181015460808501529091015460a0830152909163ffffffff90911690565b611830611e3e565b5f82815260066020526040902054610100900460ff1661188757604051630b93503f60e11b815260206004820152601160248201527014995c5d595cdd081b9bdd08199bdd5b99607a1b604482015260640161056c565b5f8281526006602052604090205460ff16156118e657604051630b93503f60e11b815260206004820152601960248201527f5265717565737420616c72656164792066756c66696c6c656400000000000000604482015260640161056c565b7f000000000000000000000000000000000000000000000000000000000000000060ff1681511461195a57604051630b93503f60e11b815260206004820152601b60248201527f496e76616c69642072616e646f6d20776f726473206c656e6774680000000000604482015260640161056c565b5f828152600760205260409020546001600160a01b03168061198f57604051630b93503f60e11b815260040161056c906127c6565b6001600160a01b0381165f908152600260205260409020600381015484146119f0576040516313b419a960e01b81526020600482015260136024820152720a4cae2eacae6e840928840dad2e6dac2e8c6d606b1b604482015260640161056c565b5f8481526008602052604090205460ff16611a46576040516313b419a960e01b815260206004820152601560248201527452657175657374204944206e6f742061637469766560581b604482015260640161056c565b5f848152600660209081526040909120805460ff1916600190811782558551611a76939290910191860190612597565b50805460ff16611ad4575f84815260076020908152604080832080546001600160a01b031916905560088252808320805460ff1916905560069091528120805461ffff1916815590611acb600183018261257c565b50505050611e02565b8054600182015484516201000090920460ff16915f9060069087908390611afd57611afd6128cb565b6020026020010151611b0f919061290c565b611b1a90600161280a565b90505f60ff80831690851603611ba857611b3660065f19612936565b831115611b9a5760405163193a897b60e11b815260206004820152602b60248201527f42657420616d6f756e7420746f6f206c6172676520666f72207061796f75742060448201526a31b0b631bab630ba34b7b760a91b606482015260840161056c565b611ba5836006612949565b90505b845461ffff1960ff84166301000000021663ff00ffff199091161761010017855560028501819055611bdd8585848685611f4c565b60038054905f611bec836128a0565b91905055508260055f828254611c02919061280a565b90915550508015611c24578060045f828254611c1e919061280a565b90915550505b5f88815260076020908152604080832080546001600160a01b031916905560088252808320805460ff1916905560069091528120805461ffff1916815590611c6f600183018261257c565b50505f60038601558015611dfb57604051632474521560e21b81525f51602061299b5f395f51905f5260048201523060248201527f00000000000000000000000000000000000000000000000000000000000000006001600160a01b0316906391d1485490604401602060405180830381865afa158015611cf2573d5f5f3e3d5ffd5b505050506040513d601f19601f82011682018060405250810190611d169190612881565b611d42576040516359f75fb760e11b81525f51602061299b5f395f51905f52600482015260240161056c565b6040516340c10f1960e01b81526001600160a01b038781166004830152602482018390527f000000000000000000000000000000000000000000000000000000000000000016906340c10f19906044015f604051808303815f87803b158015611da9575f5ffd5b505af1925050508015611dba575060015b611dfb576040516312dfddb360e01b8152602060048201526011602482015270151bdad95b881b5a5b9d0819985a5b1959607a1b604482015260640161056c565b5050505050505b61057f60015f55565b6001546001600160a01b036101009091041633146105a45760405163118cdaa760e01b815233600482015260240161056c565b60025f5403611e6057604051633ee5aeb560e01b815260040160405180910390fd5b60025f55565b611e6e612559565b6001805460ff191690557f5db9ee0a495bf2e6ff9c91a7834c1ba4fdd244a5e8aa4e537bd38aeae4b073aa335b6040516001600160a01b03909116815260200160405180910390a1565b600180546001600160a01b03838116610100818102610100600160a81b031985161790945560405193909204169182907f8be0079c531659141344cd1fd0a4f28419497f9722a3daafe3b4186f6b6457e0905f90a35050565b611f196120f9565b6001805460ff1916811790557f62e78cea01bee320cd4e420270b5ea74000d11b0c9f74754ebdbfc544b05a25833611e9b565b6040805160a08101825260ff80871682528516602082015263ffffffff42169181019190915260608101839052608081018290526004860154600a111561202957600486018054600181810183555f8381526020908190208551600390940201805491860151604087015163ffffffff16620100000265ffffffff00001960ff9283166101000261ffff199095169290961691909117929092179390931617825560608401519082015560808301516002909101555461200e90600a9061290c565b60078701805460ff191660ff929092169190911790556120f1565b6007860154600487018054839260ff16908110612048576120486128cb565b5f9182526020918290208351600390920201805492840151604085015163ffffffff16620100000265ffffffff00001960ff9283166101000261ffff1990961694831694909417949094179290921692909217825560608301516001808401919091556080909301516002909201919091556007880154600a926120d0929190911690612960565b6120da9190612979565b60078701805460ff191660ff929092169190911790555b505050505050565b60015460ff16156105a45760405163d93c066560e01b815260040160405180910390fd5b6040516370a0823160e01b81526001600160a01b03838116600483015282917f0000000000000000000000000000000000000000000000000000000000000000909116906370a0823190602401602060405180830381865afa158015612185573d5f5f3e3d5ffd5b505050506040513d601f19601f820116820180604052508101906121a9919061291f565b101561225d576040516370a0823160e01b81526001600160a01b03838116600483015282917f0000000000000000000000000000000000000000000000000000000000000000909116906370a0823190602401602060405180830381865afa158015612217573d5f5f3e3d5ffd5b505050506040513d601f19601f8201168201806040525081019061223b919061291f565b6040516302fa826960e51b81526004810192909252602482015260440161056c565b604051636eb1769f60e11b81526001600160a01b03838116600483015230602483015282917f00000000000000000000000000000000000000000000000000000000000000009091169063dd62ed3e90604401602060405180830381865afa1580156122cb573d5f5f3e3d5ffd5b505050506040513d601f19601f820116820180604052508101906122ef919061291f565b10156123a957604051636eb1769f60e11b81526001600160a01b03838116600483015230602483015282917f00000000000000000000000000000000000000000000000000000000000000009091169063dd62ed3e90604401602060405180830381865afa158015612363573d5f5f3e3d5ffd5b505050506040513d601f19601f82011682018060405250810190612387919061291f565b60405163054365bb60e31b81526004810192909252602482015260440161056c565b604051632474521560e21b81527f3c11d16cbaffd01df69ce1c404f6340ee057498f5f00246190ea54220576a84860048201523060248201527f00000000000000000000000000000000000000000000000000000000000000006001600160a01b0316906391d1485490604401602060405180830381865afa158015612431573d5f5f3e3d5ffd5b505050506040513d601f19601f820116820180604052508101906124559190612881565b612494576040516359f75fb760e11b81527f3c11d16cbaffd01df69ce1c404f6340ee057498f5f00246190ea54220576a848600482015260240161056c565b604051632474521560e21b81525f51602061299b5f395f51905f5260048201523060248201527f00000000000000000000000000000000000000000000000000000000000000006001600160a01b0316906391d1485490604401602060405180830381865afa158015612509573d5f5f3e3d5ffd5b505050506040513d601f19601f8201168201806040525081019061252d9190612881565b61057f576040516359f75fb760e11b81525f51602061299b5f395f51905f52600482015260240161056c565b60015460ff166105a457604051638dfc202b60e01b815260040160405180910390fd5b5080545f8255905f5260205f2090810190610f5c91906125e0565b828054828255905f5260205f209081019282156125d0579160200282015b828111156125d05782518255916020019190600101906125b5565b506125dc9291506125e0565b5090565b5b808211156125dc575f81556001016125e1565b5f60208284031215612604575f5ffd5b5035919050565b5f6020828403121561261b575f5ffd5b81356001600160a01b03811681146104ef575f5ffd5b634e487b7160e01b5f52604160045260245ffd5b5f5f60408385031215612656575f5ffd5b82359150602083013567ffffffffffffffff811115612673575f5ffd5b8301601f81018513612683575f5ffd5b803567ffffffffffffffff81111561269d5761269d612631565b8060051b604051601f19603f830116810181811067ffffffffffffffff821117156126ca576126ca612631565b6040529182526020818401810192908101888411156126e7575f5ffd5b6020850194505b8385101561270a578435808252602095860195909350016126ee565b50809450505050509250929050565b602080825282518282018190525f918401906040840190835b8181101561278c57835160ff815116845260ff602082015116602085015263ffffffff604082015116604085015260608101516060850152608081015160808501525060a083019250602084019350600181019050612732565b509095945050505050565b5f5f604083850312156127a8575f5ffd5b823560ff811681146127b8575f5ffd5b946020939093013593505050565b602080825260169082015275496e76616c696420706c61796572206164647265737360501b604082015260600190565b634e487b7160e01b5f52601160045260245ffd5b80820180821115611747576117476127f6565b63ffffffff8181168382160190811115611747576117476127f6565b60208082526028908201527f52657175657374206a7573742066756c66696c6c65642c206c65742056524620604082015267636f6d706c65746560c01b606082015260800190565b5f60208284031215612891575f5ffd5b815180151581146104ef575f5ffd5b5f600182016128b1576128b16127f6565b5060010190565b81810381811115611747576117476127f6565b634e487b7160e01b5f52603260045260245ffd5b60ff8281168282160390811115611747576117476127f6565b634e487b7160e01b5f52601260045260245ffd5b5f8261291a5761291a6128f8565b500690565b5f6020828403121561292f575f5ffd5b5051919050565b5f82612944576129446128f8565b500490565b8082028115828204841417611747576117476127f6565b60ff8181168382160190811115611747576117476127f6565b5f60ff83168061298b5761298b6128f8565b8060ff8416069150509291505056fe9f2df0fed2c77648de5860a4cc508cd0818c85b8b8a1ab4ceeef8d981c8956a6a2646970667358221220e4a5ea7ba3bc33afdfc175d6df69388278f53d028c51e1e1a78857545a1d3a4264736f6c634300081c0033",
    "linkReferences": {}
  },
  "methodIdentifiers": {
    "BURNER_ROLE()": "282c51f3",
    "MAX_BET_AMOUNT()": "309167f5",
    "MAX_HISTORY_SIZE()": "c1066251",
    "MINTER_ROLE()": "d5391393",
    "RESULT_FORCE_STOPPED()": "38f8bc6d",
    "RESULT_RECOVERED()": "57816f3e",
    "canStartNewGame(address)": "5d424b85",
    "forceStopGame(address)": "b52a0855",
    "gamaToken()": "d56ec8c9",
    "getBetHistory(address)": "ce84a53b",
    "getGameStatus(address)": "54e4437e",
    "getPlayerForRequest(uint256)": "04243151",
    "getUserData(address)": "ffc9896b",
    "hasPendingRequest(address)": "0c99375d",
    "owner()": "8da5cb5b",
    "pause()": "8456cb59",
    "paused()": "5c975abb",
    "playDice(uint8,uint256)": "f3b5a671",
    "rawFulfillRandomWords(uint256,uint256[])": "1fe543e3",
    "recoverOwnStuckGame()": "a20ff9fc",
    "renounceOwnership()": "715018a6",
    "s_requests(uint256)": "a168fa89",
    "totalGamesPlayed()": "5c492129",
    "totalPayoutAmount()": "e7efcfc2",
    "totalWageredAmount()": "5bdb2e1b",
    "transferOwnership(address)": "f2fde38b",
    "unpause()": "3f4ba83a"
  },
  "id": 51
}