{
  "abi": [
    {
      "type": "constructor",
      "inputs": [
        {
          "name": "_gamaTokenAddress",
          "type": "address",
          "internalType": "address"
        },
        {
          "name": "vrfCoordinator",
          "type": "address",
          "internalType": "address"
        },
        {
          "name": "subscriptionId",
          "type": "uint64",
          "internalType": "uint64"
        },
        {
          "name": "keyHash",
          "type": "bytes32",
          "internalType": "bytes32"
        },
        {
          "name": "_callbackGasLimit",
          "type": "uint32",
          "internalType": "uint32"
        },
        {
          "name": "_requestConfirmations",
          "type": "uint16",
          "internalType": "uint16"
        },
        {
          "name": "_numWords",
          "type": "uint8",
          "internalType": "uint8"
        }
      ],
      "stateMutability": "nonpayable"
    },
    {
      "type": "function",
      "name": "DENOMINATOR",
      "inputs": [],
      "outputs": [
        {
          "name": "",
          "type": "uint256",
          "internalType": "uint256"
        }
      ],
      "stateMutability": "view"
    },
    {
      "type": "function",
      "name": "MAX_BET_AMOUNT",
      "inputs": [],
      "outputs": [
        {
          "name": "",
          "type": "uint256",
          "internalType": "uint256"
        }
      ],
      "stateMutability": "view"
    },
    {
      "type": "function",
      "name": "MAX_HISTORY_SIZE",
      "inputs": [],
      "outputs": [
        {
          "name": "",
          "type": "uint8",
          "internalType": "uint8"
        }
      ],
      "stateMutability": "view"
    },
    {
      "type": "function",
      "name": "MAX_POSSIBLE_PAYOUT",
      "inputs": [],
      "outputs": [
        {
          "name": "",
          "type": "uint256",
          "internalType": "uint256"
        }
      ],
      "stateMutability": "view"
    },
    {
      "type": "function",
      "name": "RESULT_FORCE_STOPPED",
      "inputs": [],
      "outputs": [
        {
          "name": "",
          "type": "uint8",
          "internalType": "uint8"
        }
      ],
      "stateMutability": "view"
    },
    {
      "type": "function",
      "name": "RESULT_RECOVERED",
      "inputs": [],
      "outputs": [
        {
          "name": "",
          "type": "uint8",
          "internalType": "uint8"
        }
      ],
      "stateMutability": "view"
    },
    {
      "type": "function",
      "name": "canStartNewGame",
      "inputs": [
        {
          "name": "player",
          "type": "address",
          "internalType": "address"
        }
      ],
      "outputs": [
        {
          "name": "",
          "type": "bool",
          "internalType": "bool"
        }
      ],
      "stateMutability": "view"
    },
    {
      "type": "function",
      "name": "forceStopGame",
      "inputs": [
        {
          "name": "player",
          "type": "address",
          "internalType": "address"
        }
      ],
      "outputs": [],
      "stateMutability": "nonpayable"
    },
    {
      "type": "function",
      "name": "gamaToken",
      "inputs": [],
      "outputs": [
        {
          "name": "",
          "type": "address",
          "internalType": "contract IERC20"
        }
      ],
      "stateMutability": "view"
    },
    {
      "type": "function",
      "name": "getBetHistory",
      "inputs": [
        {
          "name": "player",
          "type": "address",
          "internalType": "address"
        }
      ],
      "outputs": [
        {
          "name": "",
          "type": "tuple[]",
          "internalType": "struct BetHistory[]",
          "components": [
            {
              "name": "chosenNumber",
              "type": "uint8",
              "internalType": "uint8"
            },
            {
              "name": "rolledNumber",
              "type": "uint8",
              "internalType": "uint8"
            },
            {
              "name": "timestamp",
              "type": "uint32",
              "internalType": "uint32"
            },
            {
              "name": "amount",
              "type": "uint256",
              "internalType": "uint256"
            },
            {
              "name": "payout",
              "type": "uint256",
              "internalType": "uint256"
            }
          ]
        }
      ],
      "stateMutability": "view"
    },
    {
      "type": "function",
      "name": "getGameStatus",
      "inputs": [
        {
          "name": "player",
          "type": "address",
          "internalType": "address"
        }
      ],
      "outputs": [
        {
          "name": "isActive",
          "type": "bool",
          "internalType": "bool"
        },
        {
          "name": "isWin",
          "type": "bool",
          "internalType": "bool"
        },
        {
          "name": "isCompleted",
          "type": "bool",
          "internalType": "bool"
        },
        {
          "name": "chosenNumber",
          "type": "uint8",
          "internalType": "uint8"
        },
        {
          "name": "amount",
          "type": "uint256",
          "internalType": "uint256"
        },
        {
          "name": "result",
          "type": "uint8",
          "internalType": "uint8"
        },
        {
          "name": "payout",
          "type": "uint256",
          "internalType": "uint256"
        },
        {
          "name": "requestId",
          "type": "uint256",
          "internalType": "uint256"
        },
        {
          "name": "requestExists",
          "type": "bool",
          "internalType": "bool"
        },
        {
          "name": "requestProcessed",
          "type": "bool",
          "internalType": "bool"
        },
        {
          "name": "recoveryEligible",
          "type": "bool",
          "internalType": "bool"
        },
        {
          "name": "lastPlayTimestamp",
          "type": "uint256",
          "internalType": "uint256"
        }
      ],
      "stateMutability": "view"
    },
    {
      "type": "function",
      "name": "getPlayerForRequest",
      "inputs": [
        {
          "name": "requestId",
          "type": "uint256",
          "internalType": "uint256"
        }
      ],
      "outputs": [
        {
          "name": "",
          "type": "address",
          "internalType": "address"
        }
      ],
      "stateMutability": "view"
    },
    {
      "type": "function",
      "name": "getUserData",
      "inputs": [
        {
          "name": "player",
          "type": "address",
          "internalType": "address"
        }
      ],
      "outputs": [
        {
          "name": "gameState",
          "type": "tuple",
          "internalType": "struct GameState",
          "components": [
            {
              "name": "isActive",
              "type": "bool",
              "internalType": "bool"
            },
            {
              "name": "completed",
              "type": "bool",
              "internalType": "bool"
            },
            {
              "name": "chosenNumber",
              "type": "uint8",
              "internalType": "uint8"
            },
            {
              "name": "result",
              "type": "uint8",
              "internalType": "uint8"
            },
            {
              "name": "amount",
              "type": "uint256",
              "internalType": "uint256"
            },
            {
              "name": "payout",
              "type": "uint256",
              "internalType": "uint256"
            }
          ]
        },
        {
          "name": "lastPlayed",
          "type": "uint256",
          "internalType": "uint256"
        }
      ],
      "stateMutability": "view"
    },
    {
      "type": "function",
      "name": "hasPendingRequest",
      "inputs": [
        {
          "name": "player",
          "type": "address",
          "internalType": "address"
        }
      ],
      "outputs": [
        {
          "name": "",
          "type": "bool",
          "internalType": "bool"
        }
      ],
      "stateMutability": "view"
    },
    {
      "type": "function",
      "name": "owner",
      "inputs": [],
      "outputs": [
        {
          "name": "",
          "type": "address",
          "internalType": "address"
        }
      ],
      "stateMutability": "view"
    },
    {
      "type": "function",
      "name": "pause",
      "inputs": [],
      "outputs": [],
      "stateMutability": "nonpayable"
    },
    {
      "type": "function",
      "name": "paused",
      "inputs": [],
      "outputs": [
        {
          "name": "",
          "type": "bool",
          "internalType": "bool"
        }
      ],
      "stateMutability": "view"
    },
    {
      "type": "function",
      "name": "playDice",
      "inputs": [
        {
          "name": "chosenNumber",
          "type": "uint8",
          "internalType": "uint8"
        },
        {
          "name": "amount",
          "type": "uint256",
          "internalType": "uint256"
        }
      ],
      "outputs": [
        {
          "name": "requestId",
          "type": "uint256",
          "internalType": "uint256"
        }
      ],
      "stateMutability": "nonpayable"
    },
    {
      "type": "function",
      "name": "rawFulfillRandomWords",
      "inputs": [
        {
          "name": "requestId",
          "type": "uint256",
          "internalType": "uint256"
        },
        {
          "name": "randomWords",
          "type": "uint256[]",
          "internalType": "uint256[]"
        }
      ],
      "outputs": [],
      "stateMutability": "nonpayable"
    },
    {
      "type": "function",
      "name": "recoverOwnStuckGame",
      "inputs": [],
      "outputs": [],
      "stateMutability": "nonpayable"
    },
    {
      "type": "function",
      "name": "renounceOwnership",
      "inputs": [],
      "outputs": [],
      "stateMutability": "nonpayable"
    },
    {
      "type": "function",
      "name": "s_requests",
      "inputs": [
        {
          "name": "",
          "type": "uint256",
          "internalType": "uint256"
        }
      ],
      "outputs": [
        {
          "name": "fulfilled",
          "type": "bool",
          "internalType": "bool"
        },
        {
          "name": "exists",
          "type": "bool",
          "internalType": "bool"
        }
      ],
      "stateMutability": "view"
    },
    {
      "type": "function",
      "name": "totalGamesPlayed",
      "inputs": [],
      "outputs": [
        {
          "name": "",
          "type": "uint256",
          "internalType": "uint256"
        }
      ],
      "stateMutability": "view"
    },
    {
      "type": "function",
      "name": "totalPayoutAmount",
      "inputs": [],
      "outputs": [
        {
          "name": "",
          "type": "uint256",
          "internalType": "uint256"
        }
      ],
      "stateMutability": "view"
    },
    {
      "type": "function",
      "name": "totalWageredAmount",
      "inputs": [],
      "outputs": [
        {
          "name": "",
          "type": "uint256",
          "internalType": "uint256"
        }
      ],
      "stateMutability": "view"
    },
    {
      "type": "function",
      "name": "transferOwnership",
      "inputs": [
        {
          "name": "newOwner",
          "type": "address",
          "internalType": "address"
        }
      ],
      "outputs": [],
      "stateMutability": "nonpayable"
    },
    {
      "type": "function",
      "name": "unpause",
      "inputs": [],
      "outputs": [],
      "stateMutability": "nonpayable"
    },
    {
      "type": "event",
      "name": "BetPlaced",
      "inputs": [
        {
          "name": "player",
          "type": "address",
          "indexed": true,
          "internalType": "address"
        },
        {
          "name": "requestId",
          "type": "uint256",
          "indexed": false,
          "internalType": "uint256"
        },
        {
          "name": "chosenNumber",
          "type": "uint8",
          "indexed": false,
          "internalType": "uint8"
        },
        {
          "name": "amount",
          "type": "uint256",
          "indexed": false,
          "internalType": "uint256"
        }
      ],
      "anonymous": false
    },
    {
      "type": "event",
      "name": "GameCompleted",
      "inputs": [
        {
          "name": "player",
          "type": "address",
          "indexed": true,
          "internalType": "address"
        },
        {
          "name": "requestId",
          "type": "uint256",
          "indexed": false,
          "internalType": "uint256"
        },
        {
          "name": "result",
          "type": "uint8",
          "indexed": false,
          "internalType": "uint8"
        },
        {
          "name": "payout",
          "type": "uint256",
          "indexed": false,
          "internalType": "uint256"
        }
      ],
      "anonymous": false
    },
    {
      "type": "event",
      "name": "GameRecovered",
      "inputs": [
        {
          "name": "player",
          "type": "address",
          "indexed": true,
          "internalType": "address"
        },
        {
          "name": "requestId",
          "type": "uint256",
          "indexed": false,
          "internalType": "uint256"
        },
        {
          "name": "refundAmount",
          "type": "uint256",
          "indexed": false,
          "internalType": "uint256"
        }
      ],
      "anonymous": false
    },
    {
      "type": "event",
      "name": "OwnershipTransferred",
      "inputs": [
        {
          "name": "previousOwner",
          "type": "address",
          "indexed": true,
          "internalType": "address"
        },
        {
          "name": "newOwner",
          "type": "address",
          "indexed": true,
          "internalType": "address"
        }
      ],
      "anonymous": false
    },
    {
      "type": "event",
      "name": "Paused",
      "inputs": [
        {
          "name": "account",
          "type": "address",
          "indexed": false,
          "internalType": "address"
        }
      ],
      "anonymous": false
    },
    {
      "type": "event",
      "name": "Unpaused",
      "inputs": [
        {
          "name": "account",
          "type": "address",
          "indexed": false,
          "internalType": "address"
        }
      ],
      "anonymous": false
    },
    {
      "type": "error",
      "name": "BurnFailed",
      "inputs": [
        {
          "name": "account",
          "type": "address",
          "internalType": "address"
        },
        {
          "name": "amount",
          "type": "uint256",
          "internalType": "uint256"
        }
      ]
    },
    {
      "type": "error",
      "name": "EnforcedPause",
      "inputs": []
    },
    {
      "type": "error",
      "name": "ExpectedPause",
      "inputs": []
    },
    {
      "type": "error",
      "name": "GameError",
      "inputs": [
        {
          "name": "reason",
          "type": "string",
          "internalType": "string"
        }
      ]
    },
    {
      "type": "error",
      "name": "InsufficientAllowance",
      "inputs": [
        {
          "name": "required",
          "type": "uint256",
          "internalType": "uint256"
        },
        {
          "name": "allowed",
          "type": "uint256",
          "internalType": "uint256"
        }
      ]
    },
    {
      "type": "error",
      "name": "InsufficientUserBalance",
      "inputs": [
        {
          "name": "required",
          "type": "uint256",
          "internalType": "uint256"
        },
        {
          "name": "available",
          "type": "uint256",
          "internalType": "uint256"
        }
      ]
    },
    {
      "type": "error",
      "name": "InvalidBetParameters",
      "inputs": [
        {
          "name": "reason",
          "type": "string",
          "internalType": "string"
        }
      ]
    },
    {
      "type": "error",
      "name": "MaxPayoutExceeded",
      "inputs": [
        {
          "name": "potentialPayout",
          "type": "uint256",
          "internalType": "uint256"
        },
        {
          "name": "maxAllowed",
          "type": "uint256",
          "internalType": "uint256"
        }
      ]
    },
    {
      "type": "error",
      "name": "MintFailed",
      "inputs": [
        {
          "name": "account",
          "type": "address",
          "internalType": "address"
        },
        {
          "name": "amount",
          "type": "uint256",
          "internalType": "uint256"
        }
      ]
    },
    {
      "type": "error",
      "name": "OnlyCoordinatorCanFulfill",
      "inputs": [
        {
          "name": "have",
          "type": "address",
          "internalType": "address"
        },
        {
          "name": "want",
          "type": "address",
          "internalType": "address"
        }
      ]
    },
    {
      "type": "error",
      "name": "OwnableInvalidOwner",
      "inputs": [
        {
          "name": "owner",
          "type": "address",
          "internalType": "address"
        }
      ]
    },
    {
      "type": "error",
      "name": "OwnableUnauthorizedAccount",
      "inputs": [
        {
          "name": "account",
          "type": "address",
          "internalType": "address"
        }
      ]
    },
    {
      "type": "error",
      "name": "PayoutCalculationError",
      "inputs": [
        {
          "name": "message",
          "type": "string",
          "internalType": "string"
        }
      ]
    },
    {
      "type": "error",
      "name": "ReentrancyGuardReentrantCall",
      "inputs": []
    },
    {
      "type": "error",
      "name": "TransferFailed",
      "inputs": [
        {
          "name": "from",
          "type": "address",
          "internalType": "address"
        },
        {
          "name": "to",
          "type": "address",
          "internalType": "address"
        },
        {
          "name": "amount",
          "type": "uint256",
          "internalType": "uint256"
        }
      ]
    },
    {
      "type": "error",
      "name": "VRFError",
      "inputs": [
        {
          "name": "reason",
          "type": "string",
          "internalType": "string"
        }
      ]
    }
  ],
  "bytecode": {
    "object": "0x6101803461030457601f61321338819003918201601f19168301916001600160401b038311848410176103085780849260e094604052833981010312610304576100488161031c565b906100556020820161031c565b60408201519092906001600160401b03811681036103045760608301519060808401519263ffffffff8416908185036103045760a08601519561ffff871687036103045760c001519660ff8816908189036103045760015f558060805233156102f15760018054610100600160a81b0319811633600881811b610100600160a81b031692909217909355604051959291901c6001600160a01b03167f8be0079c531659141344cd1fd0a4f28419497f9722a3daafe3b4186f6b6457e05f80a36001600160a01b03169283156102af57506001600160a01b031692831561026a571561021b57156101d65760a05260c05260e05261010052610120526101405261016052604051612ee2908161033182396080518161208b015260a05181818161034401528181610f9b015281816111db0152818161181401526128d3015260c051816105f5015260e0518161053301526101005181610504015261012051816105890152610140518161055d0152610160518181816105b2015261262a0152f35b60405162461bcd60e51b815260206004820152601e60248201527f4e756d626572206f6620776f7264732063616e6e6f74206265207a65726f00006044820152606490fd5b60405162461bcd60e51b815260206004820152602160248201527f43616c6c6261636b20676173206c696d69742063616e6e6f74206265207a65726044820152606f60f81b6064820152608490fd5b60405162461bcd60e51b815260206004820152601e60248201527f56524620636f6f7264696e61746f722063616e6e6f74206265207a65726f00006044820152606490fd5b62461bcd60e51b815260206004820152601c60248201527f546f6b656e20616464726573732063616e6e6f74206265207a65726f000000006044820152606490fd5b631e4fbdf760e01b5f525f60045260245ffd5b5f80fd5b634e487b7160e01b5f52604160045260245ffd5b51906001600160a01b03821682036103045756fe6080806040526004361015610012575f80fd5b5f905f3560e01c9081630424315114612170575080630c99375d1461210d5780631fe543e314612004578063309167f514611fdf57806338f8bc6d14611fc45780633f4ba83a14611f395780634689b44114611f1457806354e4437e14611d7a57806357816f3e14611d5f5780635bdb2e1b14611d425780635c49212914611d255780635c975abb14611d035780635d424b8514611c9f578063715018a614611c1e5780638456cb5914611bba5780638da5cb5b14611b84578063918f867414611b68578063a168fa8914611b2e578063a20ff9fc1461167e578063b52a085514611092578063c106625114611076578063ce84a53b14610fbf578063d56ec8c914610f6e578063e7efcfc214610f50578063f2fde38b14610e58578063f3b5a671146102b15763ffc9896b14610147575f80fd5b346102ae5760206003193601126102ae5760043573ffffffffffffffffffffffffffffffffffffffff81168091036102ac578160a0604051610188816121ac565b8281528260208201528260408201528260608201528260808201520152801561024d578160409160e0935260026020522063ffffffff6005820154166040516101d0816121ac565b82549260ff8085161515948584528160208501818360081c16151581526040860190828460101c16825282606088019460181c16845260a0600260018801549760808a0198895201549701968752604051988952511515602089015251166040870152511660608501525160808401525160a083015260c0820152f35b6040517f34460f4100000000000000000000000000000000000000000000000000000000815260206004820152601660248201527f496e76616c696420706c617965722061646472657373000000000000000000006044820152606490fd5b505b80fd5b50346102ae5760406003193601126102ae5760043560ff8116918282036102ae57602435916102de612d7c565b6102e6612db3565b8215610dfa576a084595161401484a0000008311610d9c57600184108015610d92575b610d34573382526002602052604082209260ff845416610cd657600384018054610c785773ffffffffffffffffffffffffffffffffffffffff7f0000000000000000000000000000000000000000000000000000000000000000166040517f70a08231000000000000000000000000000000000000000000000000000000008152336004820152602081602481855afa908115610b8d579084918791610c43575b5010610b98576040517fdd62ed3e000000000000000000000000000000000000000000000000000000008152336004820152306024820152602081604481855afa908115610b8d579084918791610b58575b5010610a985760068302838104600603610a6b57836006820403610a0d576a31a17e847807b1bc00000081116109d357604051907f6f97e31c000000000000000000000000000000000000000000000000000000008252602082600481865afa9182156109c8578792610994575b50818111610966575050803b15610962576040517f79cc6790000000000000000000000000000000000000000000000000000000008152336004820152602481018490529085908290604490829084905af1801561093e57908591610949575b50506104d88260055461226a565b600555604051947f5d3b1d300000000000000000000000000000000000000000000000000000000086527f0000000000000000000000000000000000000000000000000000000000000000600487015267ffffffffffffffff7f000000000000000000000000000000000000000000000000000000000000000016602487015261ffff7f000000000000000000000000000000000000000000000000000000000000000016604487015263ffffffff7f000000000000000000000000000000000000000000000000000000000000000016606487015260ff7f000000000000000000000000000000000000000000000000000000000000000016608487015260208660a4818873ffffffffffffffffffffffffffffffffffffffff7f0000000000000000000000000000000000000000000000000000000000000000165af195861561093e578596610906575b506020966040516106368982612211565b8681525f3681376040516060810181811067ffffffffffffffff8211176108d957906001916040528881528a8101828152604082019384528a8a5260068c5260408a209151151560ff60ff19845416911515161782555115157fffffffffffffffffffffffffffffffffffffffffffffffffffffffffffff00ff61ff00835492151560081b1691161781550190519081519167ffffffffffffffff83116108d95791818b80946106ea848e9a9998966122c0565b01908a52838a208a5b8381106108c2575050505092876002819897948260a089966108b6997f1efa8a4db358fbd4b3e1004cca7c5a1bdc9de3512d3392d48a51d1961316f9839b60019f526007825260408420337fffffffffffffffffffffffff000000000000000000000000000000000000000082541617905588845260088252604084208f60ff198254161790556005850163ffffffff42167fffffffffffffffffffffffffffffffffffffffffffffffffffffffff00000000825416179055436006860155600785017fffffffffffffffffffffffffffffffffffffffffffffffffffffffffffff00ff815416905583604051926107ea846121ac565b60018452830152604082015282606082015288608082015201528a60ff198254161781557fffffffffffffffffffffffffffffffffffffffffffffffffffffffffffff00ff815416815580547fffffffffffffffffffffffffffffffffffffffffffffffffffffffffff00ffff62ff00008b60101b1691161781557fffffffffffffffffffffffffffffffffffffffffffffffffffffffff00ffffff8154168155858b8201550155556040519182913395898460ff604092959493606083019683521660208201520152565b0390a255604051908152f35b8251818301558c98508d95909201916001016106f3565b6024897f4e487b710000000000000000000000000000000000000000000000000000000081526041600452fd5b9095506020813d602011610936575b8161092260209383612211565b810103126109325751945f610625565b5f80fd5b3d9150610915565b6040513d87823e3d90fd5b8161095391612211565b61095e57835f6104ca565b8380fd5b8480fd5b7f21e510be000000000000000000000000000000000000000000000000000000008752600452602452604485fd5b9091506020813d6020116109c0575b816109b060209383612211565b810103126109325751905f61046a565b3d91506109a3565b6040513d89823e3d90fd5b7f21e510be0000000000000000000000000000000000000000000000000000000086526004526a31a17e847807b1bc000000602452604485fd5b60646040517f327512f600000000000000000000000000000000000000000000000000000000815260206004820152601b60248201527f5061796f75742063616c63756c6174696f6e206f766572666c6f7700000000006044820152fd5b6024867f4e487b710000000000000000000000000000000000000000000000000000000081526011600452fd5b6040517fdd62ed3e0000000000000000000000000000000000000000000000000000000081523360048201523060248201529085908490602090849060449082905afa908115610b4d578291610b18575b604493507f2a1b2dd8000000000000000000000000000000000000000000000000000000008352600452602452fd5b90506020833d602011610b45575b81610b3360209383612211565b81010312610932576044925190610ae9565b3d9150610b26565b6040513d84823e3d90fd5b9150506020813d602011610b85575b81610b7460209383612211565b81010312610932578390515f6103fc565b3d9150610b67565b6040513d88823e3d90fd5b84836020602493604051948580927f70a082310000000000000000000000000000000000000000000000000000000082523360048301525afa908115610b4d578291610c0e575b604493507f5f504d20000000000000000000000000000000000000000000000000000000008352600452602452fd5b90506020833d602011610c3b575b81610c2960209383612211565b81010312610932576044925190610bdf565b3d9150610c1c565b9150506020813d602011610c70575b81610c5f60209383612211565b81010312610932578390515f6103aa565b3d9150610c52565b60646040517f13b419a900000000000000000000000000000000000000000000000000000000815260206004820152601a60248201527f557365722068617320612070656e64696e6720726571756573740000000000006044820152fd5b60646040517f13b419a900000000000000000000000000000000000000000000000000000000815260206004820152601760248201527f557365722068617320616e206163746976652067616d650000000000000000006044820152fd5b60646040517f34460f4100000000000000000000000000000000000000000000000000000000815260206004820152601560248201527f496e76616c69642063686f73656e206e756d62657200000000000000000000006044820152fd5b5060068411610309565b60646040517f34460f4100000000000000000000000000000000000000000000000000000000815260206004820152601460248201527f42657420616d6f756e7420746f6f206c617267650000000000000000000000006044820152fd5b60646040517f34460f4100000000000000000000000000000000000000000000000000000000815260206004820152601960248201527f42657420616d6f756e742063616e6e6f74206265207a65726f000000000000006044820152fd5b50346102ae5760206003193601126102ae5760043573ffffffffffffffffffffffffffffffffffffffff811690818103610f4c57610e94612d2c565b8115610f205773ffffffffffffffffffffffffffffffffffffffff9074ffffffffffffffffffffffffffffffffffffffff006001549160081b167fffffffffffffffffffffff0000000000000000000000000000000000000000ff82161760015560081c167f8be0079c531659141344cd1fd0a4f28419497f9722a3daafe3b4186f6b6457e08380a380f35b6024837f1e4fbdf700000000000000000000000000000000000000000000000000000000815280600452fd5b8280fd5b50346102ae57806003193601126102ae576020600454604051908152f35b50346102ae57806003193601126102ae57602060405173ffffffffffffffffffffffffffffffffffffffff7f0000000000000000000000000000000000000000000000000000000000000000168152f35b50346102ae5760206003193601126102ae5760043573ffffffffffffffffffffffffffffffffffffffff811681036102ac57610ffa906123b2565b90604051918291602083016020845282518091526020604085019301915b818110611026575050500390f35b91935091602060a06001926080875160ff815116835260ff85820151168584015263ffffffff60408201511660408401526060810151606084015201516080820152019401910191849392611018565b50346102ae57806003193601126102ae576020604051600a8152f35b50346102ae5760206003193601126102ae5760043573ffffffffffffffffffffffffffffffffffffffff811690818103610f4c576110ce612d2c565b6110d6612d7c565b8183526002602052604083209060ff8254161561161f576003820190815492831515808091611609575b806115f0575b61156b57600682015461012c810180911161153e5743118163ffffffff61113281600587015416612277565b16421181611524575b82159261151b575b508115611512575b5061148f5760018201549384156114305787916113cb575b82547fffffffffffffffffffffffffffffffffffffffffffffffffffffffff00ff00001663fe00010017835560028301859055556007810180547fffffffffffffffffffffffffffffffffffffffffffffffffffffffffffff00ff16815591869073ffffffffffffffffffffffffffffffffffffffff7f000000000000000000000000000000000000000000000000000000000000000016803b15610f4c576040517f40c10f1900000000000000000000000000000000000000000000000000000000815273ffffffffffffffffffffffffffffffffffffffff9290921660048301526024820186905282908290604490829084905af18015610b4d576113b2575b5050600460ff825460101c16916040519261127f846121f5565b835260fe602084015263ffffffff421660408401528460608401528460808401520190600a8254105f14611353578154680100000000000000008110156113265760ff600a604096946113067ff43f4cfd330c9814ec89dcb330ca1c7559745bb35a6ea4068b171116c4ea3d53999795611300866001879801855584612312565b90612de7565b5406161660ff198254161790555b82519182526020820152a26001815580f35b6024887f4e487b710000000000000000000000000000000000000000000000000000000081526041600452fd5b6113006113659260ff85541690612312565b600160ff8254160160ff8111610a6b57917ff43f4cfd330c9814ec89dcb330ca1c7559745bb35a6ea4068b171116c4ea3d53939160ff600a8160409616061660ff19825416179055611314565b816113bc91612211565b6113c757855f611265565b8580fd5b8582526007602052604082207fffffffffffffffffffffffff0000000000000000000000000000000000000000815416905585825260086020526040822060ff198154169055858252600660205261142b60016040842084815501612290565b611163565b6040517f13b419a900000000000000000000000000000000000000000000000000000000815260206004820152601160248201527f4e6f7468696e6720746f20726566756e640000000000000000000000000000006044820152606490fd5b60846040517f13b419a9000000000000000000000000000000000000000000000000000000008152602060048201526024808201527f47616d65206e6f7420656c696769626c6520666f7220666f7263652073746f7060448201527f20796574000000000000000000000000000000000000000000000000000000006064820152fd5b9050155f61114b565b1591505f611143565b878a52600660205260408a205460081c60ff16915061113b565b6024887f4e487b710000000000000000000000000000000000000000000000000000000081526011600452fd5b6040517f13b419a900000000000000000000000000000000000000000000000000000000815260206004820152602860248201527f52657175657374206a7573742066756c66696c6c65642c206c6574205652462060448201527f636f6d706c6574650000000000000000000000000000000000000000000000006064820152608490fd5b506006820154600a810180911161153e57431115611106565b50848752600660205260ff604088205416611100565b6040517f13b419a900000000000000000000000000000000000000000000000000000000815260206004820152600e60248201527f4e6f206163746976652067616d650000000000000000000000000000000000006044820152606490fd5b5034610932575f60031936011261093257611697612d7c565b61169f612db3565b335f52600260205260405f2060ff8154161561161f57600381018054918215611ad057825f52600660205260ff60405f20541680611ab7575b61156b57600681015461012c8101809111611a8a57431163ffffffff61170381600585015416612277565b164211845f52600660205260ff60405f205460081c1690821592611a81575b508115611a78575b506119f4576001810154918215611430575f90848252600660205261175760016040842084815501612290565b84825260076020818152604080852080547fffffffffffffffffffffffff000000000000000000000000000000000000000016905587855260089091528320805460ff1916905583547fffffffffffffffffffffffffffffffffffffffffffffffffffffffff00ff00001663ff00010017845560028401859055919055810180547fffffffffffffffffffffffffffffffffffffffffffffffffffffffffffff00ff1681559073ffffffffffffffffffffffffffffffffffffffff7f000000000000000000000000000000000000000000000000000000000000000016803b15610932576040517f40c10f1900000000000000000000000000000000000000000000000000000000815233600482015260248101859052905f908290604490829084905af180156119e9576119d4575b50600460ff825460101c1691604051926118a0846121f5565b835260ff602084015263ffffffff421660408401528460608401528460808401520190600a8254105f1461196e578154680100000000000000008110156119415760ff926118fb8493611300846001600a9601855584612312565b5406161660ff198254161790555b60405191825260208201527ff43f4cfd330c9814ec89dcb330ca1c7559745bb35a6ea4068b171116c4ea3d5360403392a26001815580f35b6024877f4e487b710000000000000000000000000000000000000000000000000000000081526041600452fd5b6113006119809260ff85541690612312565b600160ff8254160160ff81116119a757600a60ff809216061660ff19825416179055611909565b6024857f4e487b710000000000000000000000000000000000000000000000000000000081526011600452fd5b6119e19195505f90612211565b5f935f611887565b6040513d5f823e3d90fd5b60846040517f13b419a900000000000000000000000000000000000000000000000000000000815260206004820152602260248201527f47616d65206e6f7420656c696769626c6520666f72207265636f76657279207960448201527f65740000000000000000000000000000000000000000000000000000000000006064820152fd5b9050155f61172a565b1591505f611722565b7f4e487b71000000000000000000000000000000000000000000000000000000005f52601160045260245ffd5b506006810154600a8101809111611a8a574311156116d8565b60646040517f13b419a900000000000000000000000000000000000000000000000000000000815260206004820152601d60248201527f4e6f2070656e64696e67207265717565737420746f207265636f7665720000006044820152fd5b34610932576020600319360112610932576004355f5260066020526040805f205460ff8251918181161515835260081c1615156020820152f35b34610932575f6003193601126109325760206040516127108152f35b34610932575f60031936011261093257602073ffffffffffffffffffffffffffffffffffffffff60015460081c16604051908152f35b34610932575f60031936011261093257611bd2612d2c565b611bda612d7c565b611be2612db3565b600160ff19815416176001557f62e78cea01bee320cd4e420270b5ea74000d11b0c9f74754ebdbfc544b05a2586020604051338152a160015f55005b34610932575f60031936011261093257611c36612d2c565b5f73ffffffffffffffffffffffffffffffffffffffff6001547fffffffffffffffffffffff0000000000000000000000000000000000000000ff811660015560081c167f8be0079c531659141344cd1fd0a4f28419497f9722a3daafe3b4186f6b6457e08280a3005b346109325760206003193601126109325760043573ffffffffffffffffffffffffffffffffffffffff8116809103610932575f526002602052602060405f2060ff815416159081611cf6575b506040519015158152f35b6003915001541582611ceb565b34610932575f60031936011261093257602060ff600154166040519015158152f35b34610932575f600319360112610932576020600354604051908152f35b34610932575f600319360112610932576020600554604051908152f35b34610932575f60031936011261093257602060405160ff8152f35b346109325760206003193601126109325760043573ffffffffffffffffffffffffffffffffffffffff811680910361093257801561024d575f52600260205260405f2080549060ff821660018201549260ff8160181c1692600281015491600382015463ffffffff600584015416938015159687611f0a575b87611efe575b8697985f979697945f968515159081611edc575b5f99611e76575b505060ff906101809b6040519b15158c52151560208c0152818160081c16151560408c015260101c1660608a0152608089015260a088015260c087015260e0860152151561010085015215156101208401521515610140830152610160820152f35b6006919c995001549061012c8201809211611a8a576101809b60ff9243119063ffffffff611ea38d612277565b16421181611ed4575b82611ecc575b5081611ec4575b50989b819250611e14565b90508d611eb9565b91508e611eb2565b899150611eac565b97509550845f52600660205260405f20549560ff808860081c16971697611e0d565b60068111159750611df9565b8015159750611df3565b34610932575f6003193601126109325760206040516a31a17e847807b1bc0000008152f35b34610932575f60031936011261093257611f51612d2c565b611f59612d7c565b60015460ff811615611f9c5760ff19166001557f5db9ee0a495bf2e6ff9c91a7834c1ba4fdd244a5e8aa4e537bd38aeae4b073aa6020604051338152a160015f55005b7f8dfc202b000000000000000000000000000000000000000000000000000000005f5260045ffd5b34610932575f60031936011261093257602060405160fe8152f35b34610932575f6003193601126109325760206040516a084595161401484a0000008152f35b346109325760406003193601126109325760243567ffffffffffffffff811161093257366023820112156109325780600401359061204182612252565b9161204f6040519384612211565b8083526024602084019160051b8301019136831161093257602401905b8282106120fd578373ffffffffffffffffffffffffffffffffffffffff7f000000000000000000000000000000000000000000000000000000000000000016908133036120cd576120c7906120bf612d7c565b6004356125ff565b60015f55005b507f1cf993f4000000000000000000000000000000000000000000000000000000005f523360045260245260445ffd5b813581526020918201910161206c565b346109325760206003193601126109325760043573ffffffffffffffffffffffffffffffffffffffff8116809103610932575f526002602052602060405f2060ff815416908161216257506040519015158152f35b600391500154151582611ceb565b34610932576020600319360112610932576020906004355f526007825273ffffffffffffffffffffffffffffffffffffffff60405f2054168152f35b60c0810190811067ffffffffffffffff8211176121c857604052565b7f4e487b71000000000000000000000000000000000000000000000000000000005f52604160045260245ffd5b60a0810190811067ffffffffffffffff8211176121c857604052565b90601f7fffffffffffffffffffffffffffffffffffffffffffffffffffffffffffffffe0910116810190811067ffffffffffffffff8211176121c857604052565b67ffffffffffffffff81116121c85760051b60200190565b91908201809211611a8a57565b63ffffffff610e109116019063ffffffff8211611a8a57565b8054905f81558161229f575050565b5f5260205f20908101905b8181106122b5575050565b5f81556001016122aa565b906801000000000000000081116121c8578154918181558282106122e357505050565b5f5260205f2091820191015b8181106122fa575050565b5f81556001016122ef565b91908203918211611a8a57565b805482101561232b575f52600360205f20910201905f90565b7f4e487b71000000000000000000000000000000000000000000000000000000005f52603260045260245ffd5b805182101561232b5760209160051b010190565b90604051612379816121f5565b60806002829463ffffffff815460ff8116865260ff8160081c16602087015260101c166040850152600181015460608501520154910152565b73ffffffffffffffffffffffffffffffffffffffff60609116801561024d575f52600260205260405f20906004820180549182156125a45750600a82111561259d57600a925b7fffffffffffffffffffffffffffffffffffffffffffffffffffffffffffffffe061243b61242586612252565b956124336040519788612211565b808752612252565b015f5b818110612568575050600a8310156124c857507fffffffffffffffffffffffffffffffffffffffffffffffffffffffffffffffff82018281115f5b84811061248857505050505090565b81611a8a57806124ac6124a66124a060019487612305565b87612312565b5061236c565b6124b68289612358565b526124c18188612358565b5001612479565b6007015490915060ff1680612536575060ff60095b16905f91600a8101809111925b600a81106124f9575050505090565b83611a8a578061251a6124a6600a61251360019587612305565b0686612312565b6125248288612358565b5261252f8187612358565b50016124ea565b7fffffffffffffffffffffffffffffffffffffffffffffffffffffffffffffffff0160ff8111611a8a5760ff906124dd565b602090604051612577816121f5565b5f81525f838201525f60408201525f60608201525f60808201528282890101520161243e565b81926123f8565b92505050604051906125b7602083612211565b5f82525f90815b8281106125cb5750505090565b6020906040516125da816121f5565b5f81525f838201525f60408201525f848201525f6080820152828287010152016125be565b90815f52600660205260405f209182549060ff8260081c1615612cce5760ff8216612c7057825160ff7f00000000000000000000000000000000000000000000000000000000000000001603612c1257805f52600760205273ffffffffffffffffffffffffffffffffffffffff60405f205416938415612bb357845f52600260205260405f2092600384019183835403612b5557600160ff1981931617815501845167ffffffffffffffff81116121c8576126ba81836122c0565b6020860180925f5260205f205f5b838110612b41575050505060078401906101007fffffffffffffffffffffffffffffffffffffffffffffffffffffffffffff00ff83541617825560ff85541615612ab15760ff855460101c1690600186015496511561232b578060069150510660018101809111611a8a5760ff16945f968683146129ea575b81547fffffffffffffffffffffffffffffffffffffffffffffffffffffffff00ff000016601888901b63ff000000161761010017825560028201889055604051926004929190612790856121f5565b845287602085015263ffffffff4216604085015260608401528760808401520190600a8254105f146129b157815490680100000000000000008210156121c85760ff926127ea600a92611300856001889701855584612312565b5406161660ff198254161790555b6001600354016003555f841515918261299d575b8382526007602052604082207fffffffffffffffffffffffff0000000000000000000000000000000000000000815416905583825260086020526040822060ff198154169055838252600660205261286c60016040842084815501612290565b556128bc575b6128b77fc74777e2214d32e7b4952c2ecbbfc0ec7dc3642e448c3c927261cb69d9f03650936040519384938460ff604092959493606083019683521660208201520152565b0390a2565b73ffffffffffffffffffffffffffffffffffffffff7f00000000000000000000000000000000000000000000000000000000000000001692833b15610932576040517f40c10f1900000000000000000000000000000000000000000000000000000000815273ffffffffffffffffffffffffffffffffffffffff8616600482015260248101829052935f908590604490829084905af19081156119e9577fc74777e2214d32e7b4952c2ecbbfc0ec7dc3642e448c3c927261cb69d9f03650946128b79261298d575b50935050612872565b5f61299791612211565b5f612984565b6129a98660045461226a565b60045561280c565b6113006129c39260ff85541690612312565b600160ff8254160160ff8111611a8a57600a60ff809216061660ff198254161790556127f8565b96507f2aaaaaaaaaaaaaaaaaaaaaaaaaaaaaaaaaaaaaaaaaaaaaaaaaaaaaaaaaaaaaaa8711612a2d57600687029087820460061488151715611a8a579096612741565b60846040517f327512f600000000000000000000000000000000000000000000000000000000815260206004820152602b60248201527f42657420616d6f756e7420746f6f206c6172676520666f72207061796f75742060448201527f63616c63756c6174696f6e0000000000000000000000000000000000000000006064820152fd5b50945091505f92508083526006602052612ad360016040852085815501612290565b8083526007602052604083207fffffffffffffffffffffffff00000000000000000000000000000000000000008154169055825260086020526040822060ff198154169055557fffffffffffffffffffffffffffffffffffffffffffffffffffffffffffff00ff8154169055565b6001906020845194019381840155016126c8565b60646040517f13b419a900000000000000000000000000000000000000000000000000000000815260206004820152601360248201527f52657175657374204944206d69736d61746368000000000000000000000000006044820152fd5b6040517f1726a07e00000000000000000000000000000000000000000000000000000000815260206004820152601660248201527f496e76616c696420706c617965722061646472657373000000000000000000006044820152606490fd5b60646040517f1726a07e00000000000000000000000000000000000000000000000000000000815260206004820152601b60248201527f496e76616c69642072616e646f6d20776f726473206c656e67746800000000006044820152fd5b60646040517f1726a07e00000000000000000000000000000000000000000000000000000000815260206004820152601960248201527f5265717565737420616c72656164792066756c66696c6c6564000000000000006044820152fd5b60646040517f1726a07e00000000000000000000000000000000000000000000000000000000815260206004820152601160248201527f52657175657374206e6f7420666f756e640000000000000000000000000000006044820152fd5b73ffffffffffffffffffffffffffffffffffffffff60015460081c163303612d5057565b7f118cdaa7000000000000000000000000000000000000000000000000000000005f523360045260245ffd5b60025f5414612d8b5760025f55565b7f3ee5aeb5000000000000000000000000000000000000000000000000000000005f5260045ffd5b60ff60015416612dbf57565b7fd93c0665000000000000000000000000000000000000000000000000000000005f5260045ffd5b9190612e805760808160ff8060029451161660ff19855416178455602081015161ff0085549160081b16807fffffffffffffffffffffffffffffffffffffffffffffffffffffffffffff00ff83161786557fffffffffffffffffffffffffffffffffffffffffffffffffffff0000000000ff65ffffffff0000604085015160101b16921617178455606081015160018501550151910155565b7f4e487b71000000000000000000000000000000000000000000000000000000005f525f60045260245ffdfea26469706673582212204da57db9f509a1733c31d47edb1fa8b1de160979d25935d77f2473a80afc4b5c64736f6c634300081c0033",
    "linkReferences": {}
  },
  "methodIdentifiers": {
    "DENOMINATOR()": "918f8674",
    "MAX_BET_AMOUNT()": "309167f5",
    "MAX_HISTORY_SIZE()": "c1066251",
    "MAX_POSSIBLE_PAYOUT()": "4689b441",
    "RESULT_FORCE_STOPPED()": "38f8bc6d",
    "RESULT_RECOVERED()": "57816f3e",
    "canStartNewGame(address)": "5d424b85",
    "forceStopGame(address)": "b52a0855",
    "gamaToken()": "d56ec8c9",
    "getBetHistory(address)": "ce84a53b",
    "getGameStatus(address)": "54e4437e",
    "getPlayerForRequest(uint256)": "04243151",
    "getUserData(address)": "ffc9896b",
    "hasPendingRequest(address)": "0c99375d",
    "owner()": "8da5cb5b",
    "pause()": "8456cb59",
    "paused()": "5c975abb",
    "playDice(uint8,uint256)": "f3b5a671",
    "rawFulfillRandomWords(uint256,uint256[])": "1fe543e3",
    "recoverOwnStuckGame()": "a20ff9fc",
    "renounceOwnership()": "715018a6",
    "s_requests(uint256)": "a168fa89",
    "totalGamesPlayed()": "5c492129",
    "totalPayoutAmount()": "e7efcfc2",
    "totalWageredAmount()": "5bdb2e1b",
    "transferOwnership(address)": "f2fde38b",
    "unpause()": "3f4ba83a"
  },
  "id": 35
}