{
  "abi": [
    {
      "type": "constructor",
      "inputs": [
        {
          "name": "_gamaTokenAddress",
          "type": "address",
          "internalType": "address"
        },
        {
          "name": "vrfCoordinator",
          "type": "address",
          "internalType": "address"
        },
        {
          "name": "subscriptionId",
          "type": "uint64",
          "internalType": "uint64"
        },
        {
          "name": "keyHash",
          "type": "bytes32",
          "internalType": "bytes32"
        },
        {
          "name": "_callbackGasLimit",
          "type": "uint32",
          "internalType": "uint32"
        },
        {
          "name": "_requestConfirmations",
          "type": "uint16",
          "internalType": "uint16"
        },
        {
          "name": "_numWords",
          "type": "uint8",
          "internalType": "uint8"
        }
      ],
      "stateMutability": "nonpayable"
    },
    {
      "type": "function",
      "name": "MAX_BET_AMOUNT",
      "inputs": [],
      "outputs": [
        {
          "name": "",
          "type": "uint256",
          "internalType": "uint256"
        }
      ],
      "stateMutability": "view"
    },
    {
      "type": "function",
      "name": "MAX_HISTORY_SIZE",
      "inputs": [],
      "outputs": [
        {
          "name": "",
          "type": "uint8",
          "internalType": "uint8"
        }
      ],
      "stateMutability": "view"
    },
    {
      "type": "function",
      "name": "MAX_POSSIBLE_PAYOUT",
      "inputs": [],
      "outputs": [
        {
          "name": "",
          "type": "uint256",
          "internalType": "uint256"
        }
      ],
      "stateMutability": "view"
    },
    {
      "type": "function",
      "name": "RESULT_FORCE_STOPPED",
      "inputs": [],
      "outputs": [
        {
          "name": "",
          "type": "uint8",
          "internalType": "uint8"
        }
      ],
      "stateMutability": "view"
    },
    {
      "type": "function",
      "name": "RESULT_RECOVERED",
      "inputs": [],
      "outputs": [
        {
          "name": "",
          "type": "uint8",
          "internalType": "uint8"
        }
      ],
      "stateMutability": "view"
    },
    {
      "type": "function",
      "name": "activePlayerIndex",
      "inputs": [
        {
          "name": "",
          "type": "address",
          "internalType": "address"
        }
      ],
      "outputs": [
        {
          "name": "",
          "type": "uint256",
          "internalType": "uint256"
        }
      ],
      "stateMutability": "view"
    },
    {
      "type": "function",
      "name": "activePlayers",
      "inputs": [
        {
          "name": "",
          "type": "uint256",
          "internalType": "uint256"
        }
      ],
      "outputs": [
        {
          "name": "",
          "type": "address",
          "internalType": "address"
        }
      ],
      "stateMutability": "view"
    },
    {
      "type": "function",
      "name": "canStartNewGame",
      "inputs": [
        {
          "name": "player",
          "type": "address",
          "internalType": "address"
        }
      ],
      "outputs": [
        {
          "name": "",
          "type": "bool",
          "internalType": "bool"
        }
      ],
      "stateMutability": "view"
    },
    {
      "type": "function",
      "name": "forceStopGame",
      "inputs": [
        {
          "name": "player",
          "type": "address",
          "internalType": "address"
        }
      ],
      "outputs": [],
      "stateMutability": "nonpayable"
    },
    {
      "type": "function",
      "name": "gamaToken",
      "inputs": [],
      "outputs": [
        {
          "name": "",
          "type": "address",
          "internalType": "contract IERC20"
        }
      ],
      "stateMutability": "view"
    },
    {
      "type": "function",
      "name": "getActivePlayers",
      "inputs": [
        {
          "name": "offset",
          "type": "uint256",
          "internalType": "uint256"
        },
        {
          "name": "limit",
          "type": "uint256",
          "internalType": "uint256"
        }
      ],
      "outputs": [
        {
          "name": "players",
          "type": "address[]",
          "internalType": "address[]"
        },
        {
          "name": "total",
          "type": "uint256",
          "internalType": "uint256"
        }
      ],
      "stateMutability": "view"
    },
    {
      "type": "function",
      "name": "getBetHistory",
      "inputs": [
        {
          "name": "player",
          "type": "address",
          "internalType": "address"
        }
      ],
      "outputs": [
        {
          "name": "",
          "type": "tuple[]",
          "internalType": "struct BetHistory[]",
          "components": [
            {
              "name": "chosenNumber",
              "type": "uint8",
              "internalType": "uint8"
            },
            {
              "name": "rolledNumber",
              "type": "uint8",
              "internalType": "uint8"
            },
            {
              "name": "timestamp",
              "type": "uint32",
              "internalType": "uint32"
            },
            {
              "name": "amount",
              "type": "uint256",
              "internalType": "uint256"
            },
            {
              "name": "payout",
              "type": "uint256",
              "internalType": "uint256"
            }
          ]
        }
      ],
      "stateMutability": "view"
    },
    {
      "type": "function",
      "name": "getGameStatus",
      "inputs": [
        {
          "name": "player",
          "type": "address",
          "internalType": "address"
        }
      ],
      "outputs": [
        {
          "name": "isActive",
          "type": "bool",
          "internalType": "bool"
        },
        {
          "name": "isWin",
          "type": "bool",
          "internalType": "bool"
        },
        {
          "name": "isCompleted",
          "type": "bool",
          "internalType": "bool"
        },
        {
          "name": "chosenNumber",
          "type": "uint8",
          "internalType": "uint8"
        },
        {
          "name": "amount",
          "type": "uint256",
          "internalType": "uint256"
        },
        {
          "name": "result",
          "type": "uint8",
          "internalType": "uint8"
        },
        {
          "name": "payout",
          "type": "uint256",
          "internalType": "uint256"
        },
        {
          "name": "requestId",
          "type": "uint256",
          "internalType": "uint256"
        },
        {
          "name": "requestExists",
          "type": "bool",
          "internalType": "bool"
        },
        {
          "name": "requestProcessed",
          "type": "bool",
          "internalType": "bool"
        },
        {
          "name": "recoveryEligible",
          "type": "bool",
          "internalType": "bool"
        },
        {
          "name": "lastPlayTimestamp",
          "type": "uint256",
          "internalType": "uint256"
        },
        {
          "name": "pendingResolution",
          "type": "bool",
          "internalType": "bool"
        }
      ],
      "stateMutability": "view"
    },
    {
      "type": "function",
      "name": "getPlayerForRequest",
      "inputs": [
        {
          "name": "requestId",
          "type": "uint256",
          "internalType": "uint256"
        }
      ],
      "outputs": [
        {
          "name": "",
          "type": "address",
          "internalType": "address"
        }
      ],
      "stateMutability": "view"
    },
    {
      "type": "function",
      "name": "getUserData",
      "inputs": [
        {
          "name": "player",
          "type": "address",
          "internalType": "address"
        }
      ],
      "outputs": [
        {
          "name": "gameState",
          "type": "tuple",
          "internalType": "struct GameState",
          "components": [
            {
              "name": "isActive",
              "type": "bool",
              "internalType": "bool"
            },
            {
              "name": "completed",
              "type": "bool",
              "internalType": "bool"
            },
            {
              "name": "chosenNumber",
              "type": "uint8",
              "internalType": "uint8"
            },
            {
              "name": "result",
              "type": "uint8",
              "internalType": "uint8"
            },
            {
              "name": "amount",
              "type": "uint256",
              "internalType": "uint256"
            },
            {
              "name": "payout",
              "type": "uint256",
              "internalType": "uint256"
            }
          ]
        },
        {
          "name": "lastPlayed",
          "type": "uint256",
          "internalType": "uint256"
        }
      ],
      "stateMutability": "view"
    },
    {
      "type": "function",
      "name": "getVrfConfig",
      "inputs": [],
      "outputs": [
        {
          "name": "coordinator",
          "type": "address",
          "internalType": "address"
        },
        {
          "name": "subscriptionId",
          "type": "uint64",
          "internalType": "uint64"
        },
        {
          "name": "keyHash",
          "type": "bytes32",
          "internalType": "bytes32"
        },
        {
          "name": "gasLimit",
          "type": "uint32",
          "internalType": "uint32"
        },
        {
          "name": "confirmations",
          "type": "uint16",
          "internalType": "uint16"
        },
        {
          "name": "words",
          "type": "uint8",
          "internalType": "uint8"
        }
      ],
      "stateMutability": "view"
    },
    {
      "type": "function",
      "name": "hasPendingRequest",
      "inputs": [
        {
          "name": "player",
          "type": "address",
          "internalType": "address"
        }
      ],
      "outputs": [
        {
          "name": "",
          "type": "bool",
          "internalType": "bool"
        }
      ],
      "stateMutability": "view"
    },
    {
      "type": "function",
      "name": "hasPendingResolution",
      "inputs": [
        {
          "name": "player",
          "type": "address",
          "internalType": "address"
        }
      ],
      "outputs": [
        {
          "name": "",
          "type": "bool",
          "internalType": "bool"
        }
      ],
      "stateMutability": "view"
    },
    {
      "type": "function",
      "name": "isActivePlayer",
      "inputs": [
        {
          "name": "",
          "type": "address",
          "internalType": "address"
        }
      ],
      "outputs": [
        {
          "name": "",
          "type": "bool",
          "internalType": "bool"
        }
      ],
      "stateMutability": "view"
    },
    {
      "type": "function",
      "name": "owner",
      "inputs": [],
      "outputs": [
        {
          "name": "",
          "type": "address",
          "internalType": "address"
        }
      ],
      "stateMutability": "view"
    },
    {
      "type": "function",
      "name": "pause",
      "inputs": [],
      "outputs": [],
      "stateMutability": "nonpayable"
    },
    {
      "type": "function",
      "name": "paused",
      "inputs": [],
      "outputs": [
        {
          "name": "",
          "type": "bool",
          "internalType": "bool"
        }
      ],
      "stateMutability": "view"
    },
    {
      "type": "function",
      "name": "playDice",
      "inputs": [
        {
          "name": "chosenNumber",
          "type": "uint8",
          "internalType": "uint8"
        },
        {
          "name": "amount",
          "type": "uint256",
          "internalType": "uint256"
        }
      ],
      "outputs": [
        {
          "name": "requestId",
          "type": "uint256",
          "internalType": "uint256"
        }
      ],
      "stateMutability": "nonpayable"
    },
    {
      "type": "function",
      "name": "rawFulfillRandomWords",
      "inputs": [
        {
          "name": "requestId",
          "type": "uint256",
          "internalType": "uint256"
        },
        {
          "name": "randomWords",
          "type": "uint256[]",
          "internalType": "uint256[]"
        }
      ],
      "outputs": [],
      "stateMutability": "nonpayable"
    },
    {
      "type": "function",
      "name": "recoverOwnStuckGame",
      "inputs": [],
      "outputs": [],
      "stateMutability": "nonpayable"
    },
    {
      "type": "function",
      "name": "renounceOwnership",
      "inputs": [],
      "outputs": [],
      "stateMutability": "nonpayable"
    },
    {
      "type": "function",
      "name": "resolveGame",
      "inputs": [
        {
          "name": "player",
          "type": "address",
          "internalType": "address"
        }
      ],
      "outputs": [],
      "stateMutability": "nonpayable"
    },
    {
      "type": "function",
      "name": "s_requests",
      "inputs": [
        {
          "name": "",
          "type": "uint256",
          "internalType": "uint256"
        }
      ],
      "outputs": [
        {
          "name": "fulfilled",
          "type": "bool",
          "internalType": "bool"
        },
        {
          "name": "exists",
          "type": "bool",
          "internalType": "bool"
        }
      ],
      "stateMutability": "view"
    },
    {
      "type": "function",
      "name": "setVrfCallbackGasLimit",
      "inputs": [
        {
          "name": "_callbackGasLimit",
          "type": "uint32",
          "internalType": "uint32"
        }
      ],
      "outputs": [],
      "stateMutability": "nonpayable"
    },
    {
      "type": "function",
      "name": "setVrfKeyHash",
      "inputs": [
        {
          "name": "_keyHash",
          "type": "bytes32",
          "internalType": "bytes32"
        }
      ],
      "outputs": [],
      "stateMutability": "nonpayable"
    },
    {
      "type": "function",
      "name": "setVrfNumWords",
      "inputs": [
        {
          "name": "_numWords",
          "type": "uint8",
          "internalType": "uint8"
        }
      ],
      "outputs": [],
      "stateMutability": "nonpayable"
    },
    {
      "type": "function",
      "name": "setVrfRequestConfirmations",
      "inputs": [
        {
          "name": "_requestConfirmations",
          "type": "uint16",
          "internalType": "uint16"
        }
      ],
      "outputs": [],
      "stateMutability": "nonpayable"
    },
    {
      "type": "function",
      "name": "setVrfSubscriptionId",
      "inputs": [
        {
          "name": "_subscriptionId",
          "type": "uint64",
          "internalType": "uint64"
        }
      ],
      "outputs": [],
      "stateMutability": "nonpayable"
    },
    {
      "type": "function",
      "name": "totalGamesPlayed",
      "inputs": [],
      "outputs": [
        {
          "name": "",
          "type": "uint256",
          "internalType": "uint256"
        }
      ],
      "stateMutability": "view"
    },
    {
      "type": "function",
      "name": "totalPayoutAmount",
      "inputs": [],
      "outputs": [
        {
          "name": "",
          "type": "uint256",
          "internalType": "uint256"
        }
      ],
      "stateMutability": "view"
    },
    {
      "type": "function",
      "name": "totalWageredAmount",
      "inputs": [],
      "outputs": [
        {
          "name": "",
          "type": "uint256",
          "internalType": "uint256"
        }
      ],
      "stateMutability": "view"
    },
    {
      "type": "function",
      "name": "transferOwnership",
      "inputs": [
        {
          "name": "newOwner",
          "type": "address",
          "internalType": "address"
        }
      ],
      "outputs": [],
      "stateMutability": "nonpayable"
    },
    {
      "type": "function",
      "name": "unpause",
      "inputs": [],
      "outputs": [],
      "stateMutability": "nonpayable"
    },
    {
      "type": "event",
      "name": "BetPlaced",
      "inputs": [
        {
          "name": "player",
          "type": "address",
          "indexed": true,
          "internalType": "address"
        },
        {
          "name": "requestId",
          "type": "uint256",
          "indexed": false,
          "internalType": "uint256"
        },
        {
          "name": "chosenNumber",
          "type": "uint8",
          "indexed": false,
          "internalType": "uint8"
        },
        {
          "name": "amount",
          "type": "uint256",
          "indexed": false,
          "internalType": "uint256"
        }
      ],
      "anonymous": false
    },
    {
      "type": "event",
      "name": "GameCompleted",
      "inputs": [
        {
          "name": "player",
          "type": "address",
          "indexed": true,
          "internalType": "address"
        },
        {
          "name": "requestId",
          "type": "uint256",
          "indexed": false,
          "internalType": "uint256"
        },
        {
          "name": "result",
          "type": "uint8",
          "indexed": false,
          "internalType": "uint8"
        },
        {
          "name": "payout",
          "type": "uint256",
          "indexed": false,
          "internalType": "uint256"
        }
      ],
      "anonymous": false
    },
    {
      "type": "event",
      "name": "GameRecovered",
      "inputs": [
        {
          "name": "player",
          "type": "address",
          "indexed": true,
          "internalType": "address"
        },
        {
          "name": "requestId",
          "type": "uint256",
          "indexed": false,
          "internalType": "uint256"
        },
        {
          "name": "refundAmount",
          "type": "uint256",
          "indexed": false,
          "internalType": "uint256"
        }
      ],
      "anonymous": false
    },
    {
      "type": "event",
      "name": "OwnershipTransferred",
      "inputs": [
        {
          "name": "previousOwner",
          "type": "address",
          "indexed": true,
          "internalType": "address"
        },
        {
          "name": "newOwner",
          "type": "address",
          "indexed": true,
          "internalType": "address"
        }
      ],
      "anonymous": false
    },
    {
      "type": "event",
      "name": "Paused",
      "inputs": [
        {
          "name": "account",
          "type": "address",
          "indexed": false,
          "internalType": "address"
        }
      ],
      "anonymous": false
    },
    {
      "type": "event",
      "name": "Unpaused",
      "inputs": [
        {
          "name": "account",
          "type": "address",
          "indexed": false,
          "internalType": "address"
        }
      ],
      "anonymous": false
    },
    {
      "type": "event",
      "name": "VRFCallbackGasLimitUpdated",
      "inputs": [
        {
          "name": "oldLimit",
          "type": "uint32",
          "indexed": false,
          "internalType": "uint32"
        },
        {
          "name": "newLimit",
          "type": "uint32",
          "indexed": false,
          "internalType": "uint32"
        }
      ],
      "anonymous": false
    },
    {
      "type": "event",
      "name": "VRFKeyHashUpdated",
      "inputs": [
        {
          "name": "oldKeyHash",
          "type": "bytes32",
          "indexed": false,
          "internalType": "bytes32"
        },
        {
          "name": "newKeyHash",
          "type": "bytes32",
          "indexed": false,
          "internalType": "bytes32"
        }
      ],
      "anonymous": false
    },
    {
      "type": "event",
      "name": "VRFNumWordsUpdated",
      "inputs": [
        {
          "name": "oldNumWords",
          "type": "uint8",
          "indexed": false,
          "internalType": "uint8"
        },
        {
          "name": "newNumWords",
          "type": "uint8",
          "indexed": false,
          "internalType": "uint8"
        }
      ],
      "anonymous": false
    },
    {
      "type": "event",
      "name": "VRFRequestConfirmationsUpdated",
      "inputs": [
        {
          "name": "oldConfirmations",
          "type": "uint16",
          "indexed": false,
          "internalType": "uint16"
        },
        {
          "name": "newConfirmations",
          "type": "uint16",
          "indexed": false,
          "internalType": "uint16"
        }
      ],
      "anonymous": false
    },
    {
      "type": "event",
      "name": "VRFSubscriptionIdUpdated",
      "inputs": [
        {
          "name": "oldId",
          "type": "uint64",
          "indexed": false,
          "internalType": "uint64"
        },
        {
          "name": "newId",
          "type": "uint64",
          "indexed": false,
          "internalType": "uint64"
        }
      ],
      "anonymous": false
    },
    {
      "type": "error",
      "name": "BurnFailed",
      "inputs": [
        {
          "name": "account",
          "type": "address",
          "internalType": "address"
        },
        {
          "name": "amount",
          "type": "uint256",
          "internalType": "uint256"
        }
      ]
    },
    {
      "type": "error",
      "name": "EnforcedPause",
      "inputs": []
    },
    {
      "type": "error",
      "name": "ExpectedPause",
      "inputs": []
    },
    {
      "type": "error",
      "name": "GameError",
      "inputs": [
        {
          "name": "reason",
          "type": "string",
          "internalType": "string"
        }
      ]
    },
    {
      "type": "error",
      "name": "InsufficientAllowance",
      "inputs": [
        {
          "name": "required",
          "type": "uint256",
          "internalType": "uint256"
        },
        {
          "name": "allowed",
          "type": "uint256",
          "internalType": "uint256"
        }
      ]
    },
    {
      "type": "error",
      "name": "InsufficientUserBalance",
      "inputs": [
        {
          "name": "required",
          "type": "uint256",
          "internalType": "uint256"
        },
        {
          "name": "available",
          "type": "uint256",
          "internalType": "uint256"
        }
      ]
    },
    {
      "type": "error",
      "name": "InvalidBetParameters",
      "inputs": [
        {
          "name": "reason",
          "type": "string",
          "internalType": "string"
        }
      ]
    },
    {
      "type": "error",
      "name": "MaxPayoutExceeded",
      "inputs": [
        {
          "name": "potentialPayout",
          "type": "uint256",
          "internalType": "uint256"
        },
        {
          "name": "maxAllowed",
          "type": "uint256",
          "internalType": "uint256"
        }
      ]
    },
    {
      "type": "error",
      "name": "MintFailed",
      "inputs": [
        {
          "name": "account",
          "type": "address",
          "internalType": "address"
        },
        {
          "name": "amount",
          "type": "uint256",
          "internalType": "uint256"
        }
      ]
    },
    {
      "type": "error",
      "name": "OnlyCoordinatorCanFulfill",
      "inputs": [
        {
          "name": "have",
          "type": "address",
          "internalType": "address"
        },
        {
          "name": "want",
          "type": "address",
          "internalType": "address"
        }
      ]
    },
    {
      "type": "error",
      "name": "OwnableInvalidOwner",
      "inputs": [
        {
          "name": "owner",
          "type": "address",
          "internalType": "address"
        }
      ]
    },
    {
      "type": "error",
      "name": "OwnableUnauthorizedAccount",
      "inputs": [
        {
          "name": "account",
          "type": "address",
          "internalType": "address"
        }
      ]
    },
    {
      "type": "error",
      "name": "PayoutCalculationError",
      "inputs": [
        {
          "name": "message",
          "type": "string",
          "internalType": "string"
        }
      ]
    },
    {
      "type": "error",
      "name": "ReentrancyGuardReentrantCall",
      "inputs": []
    },
    {
      "type": "error",
      "name": "TransferFailed",
      "inputs": [
        {
          "name": "from",
          "type": "address",
          "internalType": "address"
        },
        {
          "name": "to",
          "type": "address",
          "internalType": "address"
        },
        {
          "name": "amount",
          "type": "uint256",
          "internalType": "uint256"
        }
      ]
    },
    {
      "type": "error",
      "name": "VRFError",
      "inputs": [
        {
          "name": "reason",
          "type": "string",
          "internalType": "string"
        }
      ]
    }
  ],
  "bytecode": {
    "object": "0x60c0346102ff57601f613eed38819003918201601f19168301916001600160401b038311848410176103035780849260e0946040528339810103126102ff5761004781610317565b9061005460208201610317565b60408201519092906001600160401b03811681036102ff57606083015160808401519163ffffffff83168093036102ff5760a08501519461ffff861686036102ff5760c001519560ff8716908188036102ff5760015f558060805233156102ec5760018054610100600160a81b0319811633600881811b610100600160a81b031692909217909355604051989291901c6001600160a01b03167f8be0079c531659141344cd1fd0a4f28419497f9722a3daafe3b4186f6b6457e05f80a36001600160a01b03169586156102aa57506001600160a01b031690811561026557841561021657156101d15765ffff000000009460a05260095491600160a01b600160e01b039060a01b169163ffffffff60e01b161717600955600a5566ff000000000000600b549460301b169366ffffffffffffff1916179160201b161717600b55604051613bc1908161032c823960805181612da6015260a0518181816103cd015281816111260152818161146f01528181611cce01526128990152f35b60405162461bcd60e51b815260206004820152601e60248201527f4e756d626572206f6620776f7264732063616e6e6f74206265207a65726f00006044820152606490fd5b60405162461bcd60e51b815260206004820152602160248201527f43616c6c6261636b20676173206c696d69742063616e6e6f74206265207a65726044820152606f60f81b6064820152608490fd5b60405162461bcd60e51b815260206004820152601e60248201527f56524620636f6f7264696e61746f722063616e6e6f74206265207a65726f00006044820152606490fd5b62461bcd60e51b815260206004820152601c60248201527f546f6b656e20616464726573732063616e6e6f74206265207a65726f000000006044820152606490fd5b631e4fbdf760e01b5f525f60045260245ffd5b5f80fd5b634e487b7160e01b5f52604160045260245ffd5b51906001600160a01b03821682036102ff5756fe6080806040526004361015610012575f80fd5b5f905f3560e01c9081630424315114612f25575080630c99375d14612ea857806318ea4d6714612e285780631fe543e314612d1f578063309167f514612cfa57806332bc18d014612ca757806338f8bc6d14612c8c5780633f4ba83a14612c015780634689b44114612bdc57806348aeb7d41461262557806350721cac1461252a57806354a7d931146124dc57806354e4437e146122f557806357816f3e146122d95780635a405c87146121e95780635bdb2e1b146121cb5780635c492129146121ad5780635c975abb1461218a5780635d424b851461210c578063715018a6146120895780638456cb59146120235780638da5cb5b14611fec578063a168fa8914611fb1578063a20ff9fc14611b1c578063ab149533146119f8578063b52a08551461130b578063b55f108f146112bb578063c10662511461129f578063c36df2d61461124a578063ce84a53b14611193578063d26f58081461114a578063d56ec8c9146110f9578063e4aadc1814611082578063e7efcfc214611064578063f081030914610fa8578063f2fde38b14610eb0578063f3b5a6711461032a5763ffc9896b146101c0575f80fd5b346103275760206003193601126103275760043573ffffffffffffffffffffffffffffffffffffffff8116809103610325578160a060405161020181612f61565b828152826020820152826040820152826060820152826080820152015280156102c6578160409160e0935260026020522063ffffffff60058201541660405161024981612f61565b82549260ff8085161515948584528160208501818360081c16151581526040860190828460101c16825282606088019460181c16845260a0600260018801549760808a0198895201549701968752604051988952511515602089015251166040870152511660608501525160808401525160a083015260c0820152f35b6040517f34460f4100000000000000000000000000000000000000000000000000000000815260206004820152601660248201527f496e76616c696420706c617965722061646472657373000000000000000000006044820152606490fd5b505b80fd5b503461032757604060031936011261032757610344612ff2565b90602435906103516138a2565b6103596138d9565b8115610e52576a084595161401484a0000008211610df45760ff831692600184108015610dea575b610d67573382526002602052604082209260ff845416610d0957600384018054610cab57600785019460ff865460101c16610c285773ffffffffffffffffffffffffffffffffffffffff7f0000000000000000000000000000000000000000000000000000000000000000166040517f70a08231000000000000000000000000000000000000000000000000000000008152336004820152602081602481855afa908115610bbb578791610bf6575b50848110610bc657506040517fdd62ed3e000000000000000000000000000000000000000000000000000000008152336004820152306024820152602081604481855afa908115610bbb578791610b89575b50848110610b59575060068402848104600603610b2c57846006820403610ace576a31a17e847807b1bc0000008111610a9457604051907f6f97e31c000000000000000000000000000000000000000000000000000000008252602082600481865afa918215610a89578892610a55575b50818111610a27575050803b15610a23576040517f79cc6790000000000000000000000000000000000000000000000000000000008152336004820152602481018590529086908290604490829084905af180156109ff57610a0a575b5060ff959661056184600854613047565b600855602060095460a4600a548973ffffffffffffffffffffffffffffffffffffffff600b54946040519d8e9687957f5d3b1d30000000000000000000000000000000000000000000000000000000008752600487015267ffffffffffffffff8360a01c16602487015261ffff818a1c16604487015263ffffffff8116606487015260301c166084850152165af19687156109ff5786976109c7575b5060209760405161060e8a82612f99565b8781525f3681376040516060810181811067ffffffffffffffff82111761099a57906001916040528981528b8101828152604082019384528b8b52600c8d5260408b209151151560ff60ff19845416911515161782555115157fffffffffffffffffffffffffffffffffffffffffffffffffffffffffffff00ff61ff00835492151560081b1691161781550190519081519167ffffffffffffffff831161099a579282828d8d9998966106c482978f9a976131a1565b01908752848720875b838110610980575050505060029392859260a092898552600d835260408520337fffffffffffffffffffffffff0000000000000000000000000000000000000000825416179055898552600e835260408520600160ff198254161790556005860163ffffffff42167fffffffffffffffffffffffffffffffffffffffffffffffffffffffff000000008254161790554360068701557fffffffffffffffffffffffffffffffffffffffffffffffffffffffffff0000ff8154169055836008860155836040519261079c84612f61565b6001845283015260408201528260608201528860808201520152600160ff198254161781557fffffffffffffffffffffffffffffffffffffffffffffffffffffffffffff00ff815416815580547fffffffffffffffffffffffffffffffffffffffffffffffffffffffffff00ffff62ff00008960101b1691161781557fffffffffffffffffffffffffffffffffffffffffffffffffffffffff00ffffff81541681558560018201550155553383526005855260ff604084205416156108aa575b6040805185815260ff90931660208401528201526001919033907f1efa8a4db358fbd4b3e1004cca7c5a1bdc9de3512d3392d48a51d1961316f9839080606081015b0390a255604051908152f35b600354680100000000000000008110156109535761089e60019493926109246108f984887f1efa8a4db358fbd4b3e1004cca7c5a1bdc9de3512d3392d48a51d1961316f9839601600355613002565b339073ffffffffffffffffffffffffffffffffffffffff8084549260031b9316831b921b1916179055565b60035433865260048952604086205533855260058852604085208660ff1982541617905592939450505061085c565b6024847f4e487b710000000000000000000000000000000000000000000000000000000081526041600452fd5b8251828201558e9a508d98508f96909201916001016106cd565b60248a7f4e487b710000000000000000000000000000000000000000000000000000000081526041600452fd5b9096506020813d6020116109f7575b816109e360209383612f99565b810103126109f35751955f6105fd565b5f80fd5b3d91506109d6565b6040513d88823e3d90fd5b610a15868092612f99565b610a1f575f610550565b8480fd5b8580fd5b7f21e510be000000000000000000000000000000000000000000000000000000008852600452602452604486fd5b9091506020813d602011610a81575b81610a7160209383612f99565b810103126109f35751905f6104f3565b3d9150610a64565b6040513d8a823e3d90fd5b7f21e510be0000000000000000000000000000000000000000000000000000000087526004526a31a17e847807b1bc000000602452604486fd5b60646040517f327512f600000000000000000000000000000000000000000000000000000000815260206004820152601b60248201527f5061796f75742063616c63756c6174696f6e206f766572666c6f7700000000006044820152fd5b6024877f4e487b710000000000000000000000000000000000000000000000000000000081526011600452fd5b86604491867f2a1b2dd8000000000000000000000000000000000000000000000000000000008352600452602452fd5b90506020813d602011610bb3575b81610ba460209383612f99565b810103126109f357515f610482565b3d9150610b97565b6040513d89823e3d90fd5b86604491867f5f504d20000000000000000000000000000000000000000000000000000000008352600452602452fd5b90506020813d602011610c20575b81610c1160209383612f99565b810103126109f357515f610430565b3d9150610c04565b60846040517f13b419a9000000000000000000000000000000000000000000000000000000008152602060048201526024808201527f50726576696f75732067616d65206177616974696e67207265736f6c7665476160448201527f6d652829000000000000000000000000000000000000000000000000000000006064820152fd5b60646040517f13b419a900000000000000000000000000000000000000000000000000000000815260206004820152601a60248201527f557365722068617320612070656e64696e6720726571756573740000000000006044820152fd5b60646040517f13b419a900000000000000000000000000000000000000000000000000000000815260206004820152601760248201527f557365722068617320616e206163746976652067616d650000000000000000006044820152fd5b60846040517f34460f41000000000000000000000000000000000000000000000000000000008152602060048201526024808201527f496e76616c69642063686f73656e206e756d626572206d75737420626520312060448201527f746f2036000000000000000000000000000000000000000000000000000000006064820152fd5b5060068411610381565b60646040517f34460f4100000000000000000000000000000000000000000000000000000000815260206004820152601460248201527f42657420616d6f756e7420746f6f206c617267650000000000000000000000006044820152fd5b60646040517f34460f4100000000000000000000000000000000000000000000000000000000815260206004820152601960248201527f42657420616d6f756e742063616e6e6f74206265207a65726f000000000000006044820152fd5b50346103275760206003193601126103275760043573ffffffffffffffffffffffffffffffffffffffff811690818103610fa457610eec613852565b8115610f785773ffffffffffffffffffffffffffffffffffffffff9074ffffffffffffffffffffffffffffffffffffffff006001549160081b167fffffffffffffffffffffff0000000000000000000000000000000000000000ff82161760015560081c167f8be0079c531659141344cd1fd0a4f28419497f9722a3daafe3b4186f6b6457e08380a380f35b6024837f1e4fbdf700000000000000000000000000000000000000000000000000000000815280600452fd5b8280fd5b50346103275760206003193601126103275760043567ffffffffffffffff811690818103610fa4577bffffffffffffffff00000000000000000000000000000000000000007fffffffff0000000000000000ffffffffffffffffffffffffffffffffffffffff91611017613852565b7f37a9861ca728332def304244cf36366a0f7cb0cf171746e03cb85f2b59541b7560406009549581519067ffffffffffffffff8860a01c1682526020820152a160a01b1691161760095580f35b50346103275780600319360112610327576020600754604051908152f35b503461032757806003193601126103275760c060095460ff600a54600b549067ffffffffffffffff6040519473ffffffffffffffffffffffffffffffffffffffff8116865260a01c166020850152604084015263ffffffff8116606084015261ffff8160201c16608084015260301c1660a0820152f35b5034610327578060031936011261032757602060405173ffffffffffffffffffffffffffffffffffffffff7f0000000000000000000000000000000000000000000000000000000000000000168152f35b50346103275760206003193601126103275760043573ffffffffffffffffffffffffffffffffffffffff8116809103610325578160409160209352600483522054604051908152f35b50346103275760206003193601126103275760043573ffffffffffffffffffffffffffffffffffffffff81168103610325576111ce9061325e565b90604051918291602083016020845282518091526020604085019301915b8181106111fa575050500390f35b91935091602060a06001926080875160ff815116835260ff85820151168584015263ffffffff604082015116604084015260608101516060840152015160808201520194019101918493926111ec565b503461032757602060031936011261032757600435611267613852565b7f41eba743241a4120a10538e4c887baf17167ecec55a062773811fab992c72e116040600a548151908152836020820152a1600a5580f35b50346103275780600319360112610327576020604051600a8152f35b5034610327576020600319360112610327576004359060035482101561032757602073ffffffffffffffffffffffffffffffffffffffff6112fb84613002565b90549060031b1c16604051908152f35b50346103275760206003193601126103275760043573ffffffffffffffffffffffffffffffffffffffff811690818103610fa457611347613852565b61134f6138a2565b8183526002602052604083209060ff82541615611999576003820180549283151592918380611983575b8061193d575b6118b857600782019260ff845460101c1661183357600683015461012c81018091116118065743118563ffffffff6113bc816005880154166131e6565b164211816117ec575b8215926117e3575b5081156117da575b506117575760018301549485156116f85788928391611693575b84547fffffffffffffffffffffffffffffffffffffffffffffffffffffffff00ff00001663fe0001001785556002850187905561142b836139d2565b557fffffffffffffffffffffffffffffffffffffffffffffffffffffffffff0000ff845416845581600884015573ffffffffffffffffffffffffffffffffffffffff7f000000000000000000000000000000000000000000000000000000000000000016803b15610fa4576040517f40c10f1900000000000000000000000000000000000000000000000000000000815273ffffffffffffffffffffffffffffffffffffffff9290921660048301526024820186905282908290604490829084905af1801561168857611673575b5050600460ff825460101c16916040519261151384612f7d565b835260fe602084015263ffffffff421660408401528460608401528460808401520190600a8254105f146115e7578154680100000000000000008110156115ba5760ff600a6040969461159a7ff43f4cfd330c9814ec89dcb330ca1c7559745bb35a6ea4068b171116c4ea3d539997956115948660018798018555846131ff565b9061390d565b5406161660ff198254161790555b82519182526020820152a26001815580f35b6024887f4e487b710000000000000000000000000000000000000000000000000000000081526041600452fd5b6115946115f99260ff855416906131ff565b600160ff8254160160ff811161164657917ff43f4cfd330c9814ec89dcb330ca1c7559745bb35a6ea4068b171116c4ea3d53939160ff600a8160409616061660ff198254161790556115a8565b6024867f4e487b710000000000000000000000000000000000000000000000000000000081526011600452fd5b8161167d91612f99565b610a2357855f6114f9565b6040513d84823e3d90fd5b878252600d602052604082207fffffffffffffffffffffffff00000000000000000000000000000000000000008154169055878252600e6020526040822060ff198154169055878252600c6020526116f360016040842084815501613171565b6113ef565b6040517f13b419a900000000000000000000000000000000000000000000000000000000815260206004820152601160248201527f4e6f7468696e6720746f20726566756e640000000000000000000000000000006044820152606490fd5b60846040517f13b419a9000000000000000000000000000000000000000000000000000000008152602060048201526024808201527f47616d65206e6f7420656c696769626c6520666f7220666f7263652073746f7060448201527f20796574000000000000000000000000000000000000000000000000000000006064820152fd5b9050155f6113d5565b1591505f6113cd565b888b52600c60205260408b205460081c60ff1691506113c5565b6024897f4e487b710000000000000000000000000000000000000000000000000000000081526011600452fd5b6040517f13b419a900000000000000000000000000000000000000000000000000000000815260206004820152602a60248201527f56524620726573706f6e646564202d2063616c6c207265736f6c766547616d6560448201527f282920696e7374656164000000000000000000000000000000000000000000006064820152608490fd5b6040517f13b419a900000000000000000000000000000000000000000000000000000000815260206004820152602860248201527f52657175657374206a7573742066756c66696c6c65642c206c6574205652462060448201527f636f6d706c6574650000000000000000000000000000000000000000000000006064820152608490fd5b506006820154600a81018091116119565743111561137f565b6024887f4e487b710000000000000000000000000000000000000000000000000000000081526011600452fd5b50848752600c60205260ff604088205416611379565b6040517f13b419a900000000000000000000000000000000000000000000000000000000815260206004820152600e60248201527f4e6f206163746976652067616d650000000000000000000000000000000000006044820152606490fd5b50346103275760206003193601126103275760043561ffff811690818103610fa457611a22613852565b8115611a985765ffff000000007fffffffffffffffffffffffffffffffffffffffffffffffffffff0000ffffffff917f09ba260748f313ae174a82dc397901ee6f86d831d07cfda07fea8e5adae5ceed6040600b549581519061ffff8860201c1682526020820152a160201b16911617600b5580f35b60846040517f08c379a000000000000000000000000000000000000000000000000000000000815260206004820152602160248201527f5265717565737420636f6e6669726d6174696f6e73206d757374206265203e2060448201527f30000000000000000000000000000000000000000000000000000000000000006064820152fd5b5034610327578060031936011261032757611b356138a2565b611b3d6138d9565b33815260026020526040812060ff8154161561199957600381018054918215611f5357828452600c60205260ff60408520541680611f3a575b6118b857600781019060ff825460101c1661183357600681015461012c810180911161164657431163ffffffff611bb2816005850154166131e6565b164211858752600c60205260ff604088205460081c1690821592611f31575b508115611f28575b50611ea45760018101549283156116f8578590858252600c602052611c0660016040842084815501613171565b858252600d6020908152604080842080547fffffffffffffffffffffffff0000000000000000000000000000000000000000169055878452600e9091528220805460ff1916905582547fffffffffffffffffffffffffffffffffffffffffffffffffffffffff00ff00001663ff00010017835560028301859055611c89336139d2565b557fffffffffffffffffffffffffffffffffffffffffffffffffffffffffff0000ff82541682558460088201558473ffffffffffffffffffffffffffffffffffffffff7f000000000000000000000000000000000000000000000000000000000000000016803b15610325576040517f40c10f19000000000000000000000000000000000000000000000000000000008152336004820152602481018690529082908290604490829084905af1801561168857611e8f575b5050600460ff825460101c169160405192611d5b84612f7d565b835260ff602084015263ffffffff421660408401528460608401528460808401520190600a8254105f14611e2957815468010000000000000000811015611dfc5760ff92611db68493611594846001600a96018555846131ff565b5406161660ff198254161790555b60405191825260208201527ff43f4cfd330c9814ec89dcb330ca1c7559745bb35a6ea4068b171116c4ea3d5360403392a26001815580f35b6024877f4e487b710000000000000000000000000000000000000000000000000000000081526041600452fd5b611594611e3b9260ff855416906131ff565b600160ff8254160160ff8111611e6257600a60ff809216061660ff19825416179055611dc4565b6024857f4e487b710000000000000000000000000000000000000000000000000000000081526011600452fd5b81611e9991612f99565b610a1f57845f611d41565b60846040517f13b419a900000000000000000000000000000000000000000000000000000000815260206004820152602260248201527f47616d65206e6f7420656c696769626c6520666f72207265636f76657279207960448201527f65740000000000000000000000000000000000000000000000000000000000006064820152fd5b9050155f611bd9565b1591505f611bd1565b506006810154600a8101809111611e6257431115611b76565b60646040517f13b419a900000000000000000000000000000000000000000000000000000000815260206004820152601d60248201527f4e6f2070656e64696e67207265717565737420746f207265636f7665720000006044820152fd5b503461032757602060031936011261032757604080916004358152600c602052205460ff8251918181161515835260081c1615156020820152f35b5034610327578060031936011261032757602073ffffffffffffffffffffffffffffffffffffffff60015460081c16604051908152f35b503461032757806003193601126103275761203c613852565b6120446138a2565b61204c6138d9565b600160ff19815416176001557f62e78cea01bee320cd4e420270b5ea74000d11b0c9f74754ebdbfc544b05a2586020604051338152a16001815580f35b50346103275780600319360112610327576120a2613852565b8073ffffffffffffffffffffffffffffffffffffffff6001547fffffffffffffffffffffff0000000000000000000000000000000000000000ff811660015560081c167f8be0079c531659141344cd1fd0a4f28419497f9722a3daafe3b4186f6b6457e08280a380f35b50346103275760206003193601126103275760043573ffffffffffffffffffffffffffffffffffffffff8116809103610325578160409160209352600283522060ff81541615908161217d575b8161216a575b506040519015158152f35b60ff91506007015460101c16155f61215f565b6003810154159150612159565b5034610327578060031936011261032757602060ff600154166040519015158152f35b50346103275780600319360112610327576020600654604051908152f35b50346103275780600319360112610327576020600854604051908152f35b50346103275760206003193601126103275760043563ffffffff811680910361032557612214613852565b801561227b577fffffffffffffffffffffffffffffffffffffffffffffffffffffffff00000000600b547f563cbbc005401e97bd6d1352dd9adcdf5d6bd13cf166e0e845f72c1bd4f08a976040805163ffffffff84168152856020820152a11617600b5580f35b60646040517f08c379a000000000000000000000000000000000000000000000000000000000815260206004820152601e60248201527f43616c6c6261636b20676173206c696d6974206d757374206265203e203000006044820152fd5b5034610327578060031936011261032757602060405160ff8152f35b50346103275760206003193601126103275760043573ffffffffffffffffffffffffffffffffffffffff81168091036103255780156102c657815260026020526040812080549160ff83169160018101549060ff8560181c1692600282015492600383015463ffffffff6005850154169460ff600786015460101c169681151593846124d2575b846124c6575b859484151586816124a4575b80998d8061249c575b612407575b5050506101a09b60ff916040519c15158d52151560208d0152818160081c16151560408d015260101c1660608b015260808a015260a089015260c088015260e08701521515610100860152151561012085015215156101408401526101608301521515610180820152f35b60069192939a5001549061012c820180921161246f57509b60ff916101a09d43119063ffffffff6124378d6131e6565b16421181612467575b8261245f575b5081612457575b509891819d61239c565b90505f61244d565b91505f612446565b899150612440565b807f4e487b7100000000000000000000000000000000000000000000000000000000602492526011600452fd5b508c15612397565b868152600c602052604081205460ff8082169a5060089190911c16975061238e565b60068211159450612382565b811515945061237c565b50346103275760206003193601126103275760043573ffffffffffffffffffffffffffffffffffffffff81168091036103255760408260ff9260209452600584522054166040519015158152f35b503461032757602060031936011261032757612544612ff2565b61254c613852565b60ff81169081156125c75766ff0000000000007fffffffffffffffffffffffffffffffffffffffffffffffffff00ffffffffffff917fe5896f8959ed0b3ac18bbe2654f250c6a92a07998d709e537fd7594602cb594f6040600b549581519060ff8860301c1682526020820152a160301b16911617600b5580f35b60646040517f08c379a000000000000000000000000000000000000000000000000000000000815260206004820152601460248201527f6e756d576f726473206d757374206265203e20300000000000000000000000006044820152fd5b50346109f35760206003193601126109f3576004359073ffffffffffffffffffffffffffffffffffffffff82168083036109f3576126616138a2565b6126696138d9565b80156102c657805f52600260205260405f206007810160ff815460101c1615612b585781549460ff861615612afa57600383018054926008850160ff81549960101c1690600660018801549a0660018101809111612a065760ff16965f9a888414612a33575b81547fffffffffffffffffffffffffffffffffffffffffffffffffffffffff00ff00001660188a901b63ff0000001617610100178255600282018c905560405193600492919061271e86612f7d565b855289602086015263ffffffff4216604086015260608501528b608085015201600a8154105f146129a95780546801000000000000000081101561297c57600a60ff926127977fffffffffffffffffffffffffffffffffffffffffffffffffffffffffff0000ff966115948560018897018555846131ff565b5406161660ff198454161783555b5f8a15159485612968575b600160065401600655818554935555169055825f52600c6020526127dc600160405f205f815501613171565b825f52600d60205260405f207fffffffffffffffffffffffff00000000000000000000000000000000000000008154169055825f52600e60205260405f2060ff19815416905561282b826139d2565b612882575b506128787fc74777e2214d32e7b4952c2ecbbfc0ec7dc3642e448c3c927261cb69d9f036509394956040519384938460ff604092959493606083019683521660208201520152565b0390a26001815580f35b73ffffffffffffffffffffffffffffffffffffffff7f000000000000000000000000000000000000000000000000000000000000000016803b156109f3576040517f40c10f1900000000000000000000000000000000000000000000000000000000815273ffffffffffffffffffffffffffffffffffffffff929092166004830152602482018790525f908290604490829084905af1801561295d5715612830577fc74777e2214d32e7b4952c2ecbbfc0ec7dc3642e448c3c927261cb69d9f036509394505f61295191612f99565b6128785f949350612830565b6040513d5f823e3d90fd5b6129748c600754613047565b6007556127b0565b7f4e487b71000000000000000000000000000000000000000000000000000000005f52604160045260245ffd5b916115946129bd929360ff865416906131ff565b600160ff835416019060ff8211612a065760ff600a817fffffffffffffffffffffffffffffffffffffffffffffffffffffffffff0000ff9416061660ff198454161783556127a5565b7f4e487b71000000000000000000000000000000000000000000000000000000005f52601160045260245ffd5b9a507f2aaaaaaaaaaaaaaaaaaaaaaaaaaaaaaaaaaaaaaaaaaaaaaaaaaaaaaaaaaaaaaa8b11612a765760068b02908b82046006148c151715612a0657909a6126cf565b60846040517f327512f600000000000000000000000000000000000000000000000000000000815260206004820152602b60248201527f42657420616d6f756e7420746f6f206c6172676520666f72207061796f75742060448201527f63616c63756c6174696f6e0000000000000000000000000000000000000000006064820152fd5b60646040517f13b419a900000000000000000000000000000000000000000000000000000000815260206004820152601260248201527f47616d65206973206e6f742061637469766500000000000000000000000000006044820152fd5b60846040517f13b419a900000000000000000000000000000000000000000000000000000000815260206004820152602160248201527f4e6f20726573756c742070656e64696e6720666f72207468697320706c61796560448201527f72000000000000000000000000000000000000000000000000000000000000006064820152fd5b346109f3575f6003193601126109f35760206040516a31a17e847807b1bc0000008152f35b346109f3575f6003193601126109f357612c19613852565b612c216138a2565b60015460ff811615612c645760ff19166001557f5db9ee0a495bf2e6ff9c91a7834c1ba4fdd244a5e8aa4e537bd38aeae4b073aa6020604051338152a160015f55005b7f8dfc202b000000000000000000000000000000000000000000000000000000005f5260045ffd5b346109f3575f6003193601126109f357602060405160fe8152f35b346109f35760206003193601126109f35760043573ffffffffffffffffffffffffffffffffffffffff81168091036109f3575f526002602052602060ff600760405f20015460101c166040519015158152f35b346109f3575f6003193601126109f35760206040516a084595161401484a0000008152f35b346109f35760406003193601126109f35760243567ffffffffffffffff81116109f357366023820112156109f357806004013590612d5c82612fda565b91612d6a6040519384612f99565b8083526024602084019160051b830101913683116109f357602401905b828210612e18578373ffffffffffffffffffffffffffffffffffffffff7f00000000000000000000000000000000000000000000000000000000000000001690813303612de857612de290612dda6138a2565b6004356134ab565b60015f55005b507f1cf993f4000000000000000000000000000000000000000000000000000000005f523360045260245260445ffd5b8135815260209182019101612d87565b346109f35760406003193601126109f357612e47602435600435613075565b9060405190604082019260408352815180945260206060840192015f945b808610612e7a57505082935060208301520390f35b909260208060019273ffffffffffffffffffffffffffffffffffffffff875116815201940195019490612e65565b346109f35760206003193601126109f35760043573ffffffffffffffffffffffffffffffffffffffff81168091036109f3575f526002602052602060405f2060ff8154169081612efd57506040519015158152f35b60038101541580159250612f13575b508261215f565b60ff91506007015460101c1682612f0c565b346109f35760206003193601126109f3576020906004355f52600d825273ffffffffffffffffffffffffffffffffffffffff60405f2054168152f35b60c0810190811067ffffffffffffffff82111761297c57604052565b60a0810190811067ffffffffffffffff82111761297c57604052565b90601f7fffffffffffffffffffffffffffffffffffffffffffffffffffffffffffffffe0910116810190811067ffffffffffffffff82111761297c57604052565b67ffffffffffffffff811161297c5760051b60200190565b6004359060ff821682036109f357565b60035481101561301a5760035f5260205f2001905f90565b7f4e487b71000000000000000000000000000000000000000000000000000000005f52603260045260245ffd5b91908201809211612a0657565b91908203918211612a0657565b805182101561301a5760209160051b010190565b9190600354908184101561315557838261308f8383613047565b1115613143576130a0915082613054565b907fffffffffffffffffffffffffffffffffffffffffffffffffffffffffffffffe06130e46130ce84612fda565b936130dc6040519586612f99565b808552612fda565b0136602084013781905f5b835181101561313b578073ffffffffffffffffffffffffffffffffffffffff61312261311d6001948a613047565b613002565b90549060031b1c166131348287613061565b52016130ef565b509291509250565b6131506130a09282613047565b613054565b509150604051613166602082612f99565b5f81525f3681379190565b8054905f815581613180575050565b5f5260205f20908101905b818110613196575050565b5f815560010161318b565b9068010000000000000000811161297c578154918181558282106131c457505050565b5f5260205f2091820191015b8181106131db575050565b5f81556001016131d0565b63ffffffff610e109116019063ffffffff8211612a0657565b805482101561301a575f52600360205f20910201905f90565b9060405161322581612f7d565b60806002829463ffffffff815460ff8116865260ff8160081c16602087015260101c166040850152600181015460608501520154910152565b73ffffffffffffffffffffffffffffffffffffffff6060911680156102c6575f52600260205260405f20906004820180549182156134505750600a82111561344957600a925b7fffffffffffffffffffffffffffffffffffffffffffffffffffffffffffffffe06132e76132d186612fda565b956132df6040519788612f99565b808752612fda565b015f5b818110613414575050600a83101561337457507fffffffffffffffffffffffffffffffffffffffffffffffffffffffffffffffff82018281115f5b84811061333457505050505090565b81612a06578061335861335261334c60019487613054565b876131ff565b50613218565b6133628289613061565b5261336d8188613061565b5001613325565b6007015490915060ff16806133e2575060ff60095b16905f91600a8101809111925b600a81106133a5575050505090565b83612a0657806133c6613352600a6133bf60019587613054565b06866131ff565b6133d08288613061565b526133db8187613061565b5001613396565b7fffffffffffffffffffffffffffffffffffffffffffffffffffffffffffffffff0160ff8111612a065760ff90613389565b60209060405161342381612f7d565b5f81525f838201525f60408201525f60608201525f6080820152828289010152016132ea565b81926132a4565b9250505060405190613463602083612f99565b5f82525f90815b8281106134775750505090565b60209060405161348681612f7d565b5f81525f838201525f60408201525f848201525f60808201528282870101520161346a565b90815f52600c60205260405f2080549160ff8360081c16156137f45760ff831661379657805160ff600b5460301c160361373857835f52600d60205273ffffffffffffffffffffffffffffffffffffffff60405f20541680156136d9575f52600260205260405f209260038401928584540361367b57600160ff198193161781550191815167ffffffffffffffff811161297c5761354981856131a1565b6020830180945f5260205f205f5b838110613667575050505060078401946101007fffffffffffffffffffffffffffffffffffffffffffffffffffffffffffff00ff87541617865560ff855416156135d8575050511561301a57516008919091015580547fffffffffffffffffffffffffffffffffffffffffffffffffffffffffff00ffff1662010000179055565b915091505f9250808352600c6020526135f960016040852085815501613171565b808352600d602052604083207fffffffffffffffffffffffff000000000000000000000000000000000000000081541690558252600e6020526040822060ff198154169055557fffffffffffffffffffffffffffffffffffffffffffffffffffffffffffff00ff8154169055565b600190602084519401938184015501613557565b60646040517f13b419a900000000000000000000000000000000000000000000000000000000815260206004820152601360248201527f52657175657374204944206d69736d61746368000000000000000000000000006044820152fd5b6040517f1726a07e00000000000000000000000000000000000000000000000000000000815260206004820152601660248201527f496e76616c696420706c617965722061646472657373000000000000000000006044820152606490fd5b60646040517f1726a07e00000000000000000000000000000000000000000000000000000000815260206004820152601b60248201527f496e76616c69642072616e646f6d20776f726473206c656e67746800000000006044820152fd5b60646040517f1726a07e00000000000000000000000000000000000000000000000000000000815260206004820152601960248201527f5265717565737420616c72656164792066756c66696c6c6564000000000000006044820152fd5b60646040517f1726a07e00000000000000000000000000000000000000000000000000000000815260206004820152601160248201527f52657175657374206e6f7420666f756e640000000000000000000000000000006044820152fd5b73ffffffffffffffffffffffffffffffffffffffff60015460081c16330361387657565b7f118cdaa7000000000000000000000000000000000000000000000000000000005f523360045260245ffd5b60025f54146138b15760025f55565b7f3ee5aeb5000000000000000000000000000000000000000000000000000000005f5260045ffd5b60ff600154166138e557565b7fd93c0665000000000000000000000000000000000000000000000000000000005f5260045ffd5b91906139a65760808160ff8060029451161660ff19855416178455602081015161ff0085549160081b16807fffffffffffffffffffffffffffffffffffffffffffffffffffffffffffff00ff83161786557fffffffffffffffffffffffffffffffffffffffffffffffffffff0000000000ff65ffffffff0000604085015160101b16921617178455606081015160018501550151910155565b7f4e487b71000000000000000000000000000000000000000000000000000000005f525f60045260245ffd5b73ffffffffffffffffffffffffffffffffffffffff16805f52600560205260ff60405f20541615613b8857805f52600460205260405f20547fffffffffffffffffffffffffffffffffffffffffffffffffffffffffffffffff8101818111612a06576003547fffffffffffffffffffffffffffffffffffffffffffffffffffffffffffffffff8101908111612a0657808203613b13575b5050506003548015613ae6577fffffffffffffffffffffffffffffffffffffffffffffffffffffffffffffffff01613aa081613002565b73ffffffffffffffffffffffffffffffffffffffff82549160031b1b19169055600355805f5260046020525f60408120555f52600560205260405f2060ff198154169055565b7f4e487b71000000000000000000000000000000000000000000000000000000005f52603160045260245ffd5b613b489173ffffffffffffffffffffffffffffffffffffffff613b38613b7493613002565b90549060031b1c16928391613002565b90919073ffffffffffffffffffffffffffffffffffffffff8084549260031b9316831b921b1916179055565b5f52600460205260405f20555f8080613a69565b5056fea2646970667358221220e79400d7e083118f43f24e06ccb8abb9592606d6c738e251c12a280de1296d3164736f6c634300081e0033",
    "linkReferences": {}
  },
  "methodIdentifiers": {
    "MAX_BET_AMOUNT()": "309167f5",
    "MAX_HISTORY_SIZE()": "c1066251",
    "MAX_POSSIBLE_PAYOUT()": "4689b441",
    "RESULT_FORCE_STOPPED()": "38f8bc6d",
    "RESULT_RECOVERED()": "57816f3e",
    "activePlayerIndex(address)": "d26f5808",
    "activePlayers(uint256)": "b55f108f",
    "canStartNewGame(address)": "5d424b85",
    "forceStopGame(address)": "b52a0855",
    "gamaToken()": "d56ec8c9",
    "getActivePlayers(uint256,uint256)": "18ea4d67",
    "getBetHistory(address)": "ce84a53b",
    "getGameStatus(address)": "54e4437e",
    "getPlayerForRequest(uint256)": "04243151",
    "getUserData(address)": "ffc9896b",
    "getVrfConfig()": "e4aadc18",
    "hasPendingRequest(address)": "0c99375d",
    "hasPendingResolution(address)": "32bc18d0",
    "isActivePlayer(address)": "54a7d931",
    "owner()": "8da5cb5b",
    "pause()": "8456cb59",
    "paused()": "5c975abb",
    "playDice(uint8,uint256)": "f3b5a671",
    "rawFulfillRandomWords(uint256,uint256[])": "1fe543e3",
    "recoverOwnStuckGame()": "a20ff9fc",
    "renounceOwnership()": "715018a6",
    "resolveGame(address)": "48aeb7d4",
    "s_requests(uint256)": "a168fa89",
    "setVrfCallbackGasLimit(uint32)": "5a405c87",
    "setVrfKeyHash(bytes32)": "c36df2d6",
    "setVrfNumWords(uint8)": "50721cac",
    "setVrfRequestConfirmations(uint16)": "ab149533",
    "setVrfSubscriptionId(uint64)": "f0810309",
    "totalGamesPlayed()": "5c492129",
    "totalPayoutAmount()": "e7efcfc2",
    "totalWageredAmount()": "5bdb2e1b",
    "transferOwnership(address)": "f2fde38b",
    "unpause()": "3f4ba83a"
  },
  "id": 22
}