{
  "abi": [
    {
      "type": "constructor",
      "inputs": [
        {
          "name": "_gamaTokenAddress",
          "type": "address",
          "internalType": "address"
        },
        {
          "name": "vrfCoordinator",
          "type": "address",
          "internalType": "address"
        },
        {
          "name": "subscriptionId",
          "type": "uint64",
          "internalType": "uint64"
        },
        {
          "name": "keyHash",
          "type": "bytes32",
          "internalType": "bytes32"
        },
        {
          "name": "_callbackGasLimit",
          "type": "uint32",
          "internalType": "uint32"
        },
        {
          "name": "_requestConfirmations",
          "type": "uint16",
          "internalType": "uint16"
        },
        {
          "name": "_numWords",
          "type": "uint8",
          "internalType": "uint8"
        }
      ],
      "stateMutability": "nonpayable"
    },
    {
      "type": "function",
      "name": "BURNER_ROLE",
      "inputs": [],
      "outputs": [
        {
          "name": "",
          "type": "bytes32",
          "internalType": "bytes32"
        }
      ],
      "stateMutability": "view"
    },
    {
      "type": "function",
      "name": "DENOMINATOR",
      "inputs": [],
      "outputs": [
        {
          "name": "",
          "type": "uint256",
          "internalType": "uint256"
        }
      ],
      "stateMutability": "view"
    },
    {
      "type": "function",
      "name": "MAX_BET_AMOUNT",
      "inputs": [],
      "outputs": [
        {
          "name": "",
          "type": "uint256",
          "internalType": "uint256"
        }
      ],
      "stateMutability": "view"
    },
    {
      "type": "function",
      "name": "MAX_HISTORY_SIZE",
      "inputs": [],
      "outputs": [
        {
          "name": "",
          "type": "uint8",
          "internalType": "uint8"
        }
      ],
      "stateMutability": "view"
    },
    {
      "type": "function",
      "name": "MAX_POSSIBLE_PAYOUT",
      "inputs": [],
      "outputs": [
        {
          "name": "",
          "type": "uint256",
          "internalType": "uint256"
        }
      ],
      "stateMutability": "view"
    },
    {
      "type": "function",
      "name": "MINTER_ROLE",
      "inputs": [],
      "outputs": [
        {
          "name": "",
          "type": "bytes32",
          "internalType": "bytes32"
        }
      ],
      "stateMutability": "view"
    },
    {
      "type": "function",
      "name": "RESULT_FORCE_STOPPED",
      "inputs": [],
      "outputs": [
        {
          "name": "",
          "type": "uint8",
          "internalType": "uint8"
        }
      ],
      "stateMutability": "view"
    },
    {
      "type": "function",
      "name": "RESULT_RECOVERED",
      "inputs": [],
      "outputs": [
        {
          "name": "",
          "type": "uint8",
          "internalType": "uint8"
        }
      ],
      "stateMutability": "view"
    },
    {
      "type": "function",
      "name": "canStartNewGame",
      "inputs": [
        {
          "name": "player",
          "type": "address",
          "internalType": "address"
        }
      ],
      "outputs": [
        {
          "name": "",
          "type": "bool",
          "internalType": "bool"
        }
      ],
      "stateMutability": "view"
    },
    {
      "type": "function",
      "name": "forceStopGame",
      "inputs": [
        {
          "name": "player",
          "type": "address",
          "internalType": "address"
        }
      ],
      "outputs": [],
      "stateMutability": "nonpayable"
    },
    {
      "type": "function",
      "name": "gamaToken",
      "inputs": [],
      "outputs": [
        {
          "name": "",
          "type": "address",
          "internalType": "contract IERC20"
        }
      ],
      "stateMutability": "view"
    },
    {
      "type": "function",
      "name": "getBetHistory",
      "inputs": [
        {
          "name": "player",
          "type": "address",
          "internalType": "address"
        }
      ],
      "outputs": [
        {
          "name": "",
          "type": "tuple[]",
          "internalType": "struct BetHistory[]",
          "components": [
            {
              "name": "chosenNumber",
              "type": "uint8",
              "internalType": "uint8"
            },
            {
              "name": "rolledNumber",
              "type": "uint8",
              "internalType": "uint8"
            },
            {
              "name": "timestamp",
              "type": "uint32",
              "internalType": "uint32"
            },
            {
              "name": "amount",
              "type": "uint256",
              "internalType": "uint256"
            },
            {
              "name": "payout",
              "type": "uint256",
              "internalType": "uint256"
            }
          ]
        }
      ],
      "stateMutability": "view"
    },
    {
      "type": "function",
      "name": "getGameStatus",
      "inputs": [
        {
          "name": "player",
          "type": "address",
          "internalType": "address"
        }
      ],
      "outputs": [
        {
          "name": "isActive",
          "type": "bool",
          "internalType": "bool"
        },
        {
          "name": "isWin",
          "type": "bool",
          "internalType": "bool"
        },
        {
          "name": "isCompleted",
          "type": "bool",
          "internalType": "bool"
        },
        {
          "name": "chosenNumber",
          "type": "uint8",
          "internalType": "uint8"
        },
        {
          "name": "amount",
          "type": "uint256",
          "internalType": "uint256"
        },
        {
          "name": "result",
          "type": "uint8",
          "internalType": "uint8"
        },
        {
          "name": "payout",
          "type": "uint256",
          "internalType": "uint256"
        },
        {
          "name": "requestId",
          "type": "uint256",
          "internalType": "uint256"
        },
        {
          "name": "requestExists",
          "type": "bool",
          "internalType": "bool"
        },
        {
          "name": "requestProcessed",
          "type": "bool",
          "internalType": "bool"
        },
        {
          "name": "recoveryEligible",
          "type": "bool",
          "internalType": "bool"
        },
        {
          "name": "lastPlayTimestamp",
          "type": "uint256",
          "internalType": "uint256"
        }
      ],
      "stateMutability": "view"
    },
    {
      "type": "function",
      "name": "getPlayerForRequest",
      "inputs": [
        {
          "name": "requestId",
          "type": "uint256",
          "internalType": "uint256"
        }
      ],
      "outputs": [
        {
          "name": "",
          "type": "address",
          "internalType": "address"
        }
      ],
      "stateMutability": "view"
    },
    {
      "type": "function",
      "name": "getUserData",
      "inputs": [
        {
          "name": "player",
          "type": "address",
          "internalType": "address"
        }
      ],
      "outputs": [
        {
          "name": "gameState",
          "type": "tuple",
          "internalType": "struct GameState",
          "components": [
            {
              "name": "isActive",
              "type": "bool",
              "internalType": "bool"
            },
            {
              "name": "completed",
              "type": "bool",
              "internalType": "bool"
            },
            {
              "name": "chosenNumber",
              "type": "uint8",
              "internalType": "uint8"
            },
            {
              "name": "result",
              "type": "uint8",
              "internalType": "uint8"
            },
            {
              "name": "amount",
              "type": "uint256",
              "internalType": "uint256"
            },
            {
              "name": "payout",
              "type": "uint256",
              "internalType": "uint256"
            }
          ]
        },
        {
          "name": "lastPlayed",
          "type": "uint256",
          "internalType": "uint256"
        }
      ],
      "stateMutability": "view"
    },
    {
      "type": "function",
      "name": "hasPendingRequest",
      "inputs": [
        {
          "name": "player",
          "type": "address",
          "internalType": "address"
        }
      ],
      "outputs": [
        {
          "name": "",
          "type": "bool",
          "internalType": "bool"
        }
      ],
      "stateMutability": "view"
    },
    {
      "type": "function",
      "name": "owner",
      "inputs": [],
      "outputs": [
        {
          "name": "",
          "type": "address",
          "internalType": "address"
        }
      ],
      "stateMutability": "view"
    },
    {
      "type": "function",
      "name": "pause",
      "inputs": [],
      "outputs": [],
      "stateMutability": "nonpayable"
    },
    {
      "type": "function",
      "name": "paused",
      "inputs": [],
      "outputs": [
        {
          "name": "",
          "type": "bool",
          "internalType": "bool"
        }
      ],
      "stateMutability": "view"
    },
    {
      "type": "function",
      "name": "playDice",
      "inputs": [
        {
          "name": "chosenNumber",
          "type": "uint8",
          "internalType": "uint8"
        },
        {
          "name": "amount",
          "type": "uint256",
          "internalType": "uint256"
        }
      ],
      "outputs": [
        {
          "name": "requestId",
          "type": "uint256",
          "internalType": "uint256"
        }
      ],
      "stateMutability": "nonpayable"
    },
    {
      "type": "function",
      "name": "rawFulfillRandomWords",
      "inputs": [
        {
          "name": "requestId",
          "type": "uint256",
          "internalType": "uint256"
        },
        {
          "name": "randomWords",
          "type": "uint256[]",
          "internalType": "uint256[]"
        }
      ],
      "outputs": [],
      "stateMutability": "nonpayable"
    },
    {
      "type": "function",
      "name": "recoverOwnStuckGame",
      "inputs": [],
      "outputs": [],
      "stateMutability": "nonpayable"
    },
    {
      "type": "function",
      "name": "renounceOwnership",
      "inputs": [],
      "outputs": [],
      "stateMutability": "nonpayable"
    },
    {
      "type": "function",
      "name": "s_requests",
      "inputs": [
        {
          "name": "",
          "type": "uint256",
          "internalType": "uint256"
        }
      ],
      "outputs": [
        {
          "name": "fulfilled",
          "type": "bool",
          "internalType": "bool"
        },
        {
          "name": "exists",
          "type": "bool",
          "internalType": "bool"
        }
      ],
      "stateMutability": "view"
    },
    {
      "type": "function",
      "name": "totalGamesPlayed",
      "inputs": [],
      "outputs": [
        {
          "name": "",
          "type": "uint256",
          "internalType": "uint256"
        }
      ],
      "stateMutability": "view"
    },
    {
      "type": "function",
      "name": "totalPayoutAmount",
      "inputs": [],
      "outputs": [
        {
          "name": "",
          "type": "uint256",
          "internalType": "uint256"
        }
      ],
      "stateMutability": "view"
    },
    {
      "type": "function",
      "name": "totalWageredAmount",
      "inputs": [],
      "outputs": [
        {
          "name": "",
          "type": "uint256",
          "internalType": "uint256"
        }
      ],
      "stateMutability": "view"
    },
    {
      "type": "function",
      "name": "transferOwnership",
      "inputs": [
        {
          "name": "newOwner",
          "type": "address",
          "internalType": "address"
        }
      ],
      "outputs": [],
      "stateMutability": "nonpayable"
    },
    {
      "type": "function",
      "name": "unpause",
      "inputs": [],
      "outputs": [],
      "stateMutability": "nonpayable"
    },
    {
      "type": "event",
      "name": "BetPlaced",
      "inputs": [
        {
          "name": "player",
          "type": "address",
          "indexed": true,
          "internalType": "address"
        },
        {
          "name": "requestId",
          "type": "uint256",
          "indexed": false,
          "internalType": "uint256"
        },
        {
          "name": "chosenNumber",
          "type": "uint8",
          "indexed": false,
          "internalType": "uint8"
        },
        {
          "name": "amount",
          "type": "uint256",
          "indexed": false,
          "internalType": "uint256"
        }
      ],
      "anonymous": false
    },
    {
      "type": "event",
      "name": "GameCompleted",
      "inputs": [
        {
          "name": "player",
          "type": "address",
          "indexed": true,
          "internalType": "address"
        },
        {
          "name": "requestId",
          "type": "uint256",
          "indexed": false,
          "internalType": "uint256"
        },
        {
          "name": "result",
          "type": "uint8",
          "indexed": false,
          "internalType": "uint8"
        },
        {
          "name": "payout",
          "type": "uint256",
          "indexed": false,
          "internalType": "uint256"
        }
      ],
      "anonymous": false
    },
    {
      "type": "event",
      "name": "GameRecovered",
      "inputs": [
        {
          "name": "player",
          "type": "address",
          "indexed": true,
          "internalType": "address"
        },
        {
          "name": "requestId",
          "type": "uint256",
          "indexed": false,
          "internalType": "uint256"
        },
        {
          "name": "refundAmount",
          "type": "uint256",
          "indexed": false,
          "internalType": "uint256"
        }
      ],
      "anonymous": false
    },
    {
      "type": "event",
      "name": "OwnershipTransferred",
      "inputs": [
        {
          "name": "previousOwner",
          "type": "address",
          "indexed": true,
          "internalType": "address"
        },
        {
          "name": "newOwner",
          "type": "address",
          "indexed": true,
          "internalType": "address"
        }
      ],
      "anonymous": false
    },
    {
      "type": "event",
      "name": "Paused",
      "inputs": [
        {
          "name": "account",
          "type": "address",
          "indexed": false,
          "internalType": "address"
        }
      ],
      "anonymous": false
    },
    {
      "type": "event",
      "name": "Unpaused",
      "inputs": [
        {
          "name": "account",
          "type": "address",
          "indexed": false,
          "internalType": "address"
        }
      ],
      "anonymous": false
    },
    {
      "type": "error",
      "name": "BurnFailed",
      "inputs": [
        {
          "name": "account",
          "type": "address",
          "internalType": "address"
        },
        {
          "name": "amount",
          "type": "uint256",
          "internalType": "uint256"
        }
      ]
    },
    {
      "type": "error",
      "name": "EnforcedPause",
      "inputs": []
    },
    {
      "type": "error",
      "name": "ExpectedPause",
      "inputs": []
    },
    {
      "type": "error",
      "name": "GameError",
      "inputs": [
        {
          "name": "reason",
          "type": "string",
          "internalType": "string"
        }
      ]
    },
    {
      "type": "error",
      "name": "InsufficientAllowance",
      "inputs": [
        {
          "name": "required",
          "type": "uint256",
          "internalType": "uint256"
        },
        {
          "name": "allowed",
          "type": "uint256",
          "internalType": "uint256"
        }
      ]
    },
    {
      "type": "error",
      "name": "InsufficientUserBalance",
      "inputs": [
        {
          "name": "required",
          "type": "uint256",
          "internalType": "uint256"
        },
        {
          "name": "available",
          "type": "uint256",
          "internalType": "uint256"
        }
      ]
    },
    {
      "type": "error",
      "name": "InvalidBetParameters",
      "inputs": [
        {
          "name": "reason",
          "type": "string",
          "internalType": "string"
        }
      ]
    },
    {
      "type": "error",
      "name": "MaxPayoutExceeded",
      "inputs": [
        {
          "name": "potentialPayout",
          "type": "uint256",
          "internalType": "uint256"
        },
        {
          "name": "maxAllowed",
          "type": "uint256",
          "internalType": "uint256"
        }
      ]
    },
    {
      "type": "error",
      "name": "MintFailed",
      "inputs": [
        {
          "name": "account",
          "type": "address",
          "internalType": "address"
        },
        {
          "name": "amount",
          "type": "uint256",
          "internalType": "uint256"
        }
      ]
    },
    {
      "type": "error",
      "name": "MissingContractRole",
      "inputs": [
        {
          "name": "role",
          "type": "bytes32",
          "internalType": "bytes32"
        }
      ]
    },
    {
      "type": "error",
      "name": "OnlyCoordinatorCanFulfill",
      "inputs": [
        {
          "name": "have",
          "type": "address",
          "internalType": "address"
        },
        {
          "name": "want",
          "type": "address",
          "internalType": "address"
        }
      ]
    },
    {
      "type": "error",
      "name": "OwnableInvalidOwner",
      "inputs": [
        {
          "name": "owner",
          "type": "address",
          "internalType": "address"
        }
      ]
    },
    {
      "type": "error",
      "name": "OwnableUnauthorizedAccount",
      "inputs": [
        {
          "name": "account",
          "type": "address",
          "internalType": "address"
        }
      ]
    },
    {
      "type": "error",
      "name": "PayoutCalculationError",
      "inputs": [
        {
          "name": "message",
          "type": "string",
          "internalType": "string"
        }
      ]
    },
    {
      "type": "error",
      "name": "ReentrancyGuardReentrantCall",
      "inputs": []
    },
    {
      "type": "error",
      "name": "TransferFailed",
      "inputs": [
        {
          "name": "from",
          "type": "address",
          "internalType": "address"
        },
        {
          "name": "to",
          "type": "address",
          "internalType": "address"
        },
        {
          "name": "amount",
          "type": "uint256",
          "internalType": "uint256"
        }
      ]
    },
    {
      "type": "error",
      "name": "VRFError",
      "inputs": [
        {
          "name": "reason",
          "type": "string",
          "internalType": "string"
        }
      ]
    }
  ],
  "bytecode": {
    "object": "0x6101803461030457601f61374a38819003918201601f19168301916001600160401b038311848410176103085780849260e094604052833981010312610304576100488161031c565b906100556020820161031c565b60408201519092906001600160401b03811681036103045760608301519060808401519263ffffffff8416908185036103045760a08601519561ffff871687036103045760c001519660ff8816908189036103045760015f558060805233156102f15760018054610100600160a81b0319811633600881811b610100600160a81b031692909217909355604051959291901c6001600160a01b03167f8be0079c531659141344cd1fd0a4f28419497f9722a3daafe3b4186f6b6457e05f80a36001600160a01b03169283156102af57506001600160a01b031692831561026a571561021b57156101d65760a05260c05260e0526101005261012052610140526101605260405161341990816103318239608051816124f5015260a05181818161035b015281816110f2015281816113c501528181611b110152612d68015260c051816106d7015260e05181610615015261010051816105e60152610120518161066b0152610140518161063f0152610160518181816106940152612aac0152f35b60405162461bcd60e51b815260206004820152601e60248201527f4e756d626572206f6620776f7264732063616e6e6f74206265207a65726f00006044820152606490fd5b60405162461bcd60e51b815260206004820152602160248201527f43616c6c6261636b20676173206c696d69742063616e6e6f74206265207a65726044820152606f60f81b6064820152608490fd5b60405162461bcd60e51b815260206004820152601e60248201527f56524620636f6f7264696e61746f722063616e6e6f74206265207a65726f00006044820152606490fd5b62461bcd60e51b815260206004820152601c60248201527f546f6b656e20616464726573732063616e6e6f74206265207a65726f000000006044820152606490fd5b631e4fbdf760e01b5f525f60045260245ffd5b5f80fd5b634e487b7160e01b5f52604160045260245ffd5b51906001600160a01b03821682036103045756fe6080806040526004361015610012575f80fd5b5f905f3560e01c90816304243151146125da575080630c99375d146125775780631fe543e31461246e578063282c51f314612434578063309167f51461240f57806338f8bc6d146123f45780633f4ba83a146123695780634689b4411461234457806354e4437e1461219c57806357816f3e146121815780635bdb2e1b146121645780635c492129146121475780635c975abb146121255780635d424b85146120c1578063715018a6146120405780638456cb5914611fdc5780638da5cb5b14611fa6578063918f867414611f8a578063a168fa8914611f50578063a20ff9fc1461194c578063b52a085514611224578063c106625114611208578063ce84a53b14611151578063d539139314611116578063d56ec8c9146110c5578063e7efcfc2146110a7578063f2fde38b14610faf578063f3b5a671146102c75763ffc9896b1461015d575f80fd5b346102c45760206003193601126102c45760043573ffffffffffffffffffffffffffffffffffffffff81168091036102c2578160a060405161019e81612616565b82815282602082015282604082015282606082015282608082015201528015610263578160409160e0935260026020522063ffffffff6005820154166040516101e681612616565b82549260ff8085161515948584528160208501818360081c16151581526040860190828460101c16825282606088019460181c16845260a0600260018801549760808a0198895201549701968752604051988952511515602089015251166040870152511660608501525160808401525160a083015260c0820152f35b6040517f34460f4100000000000000000000000000000000000000000000000000000000815260206004820152601660248201527f496e76616c696420706c617965722061646472657373000000000000000000006044820152606490fd5b505b80fd5b50346102c45760406003193601126102c4576004359060ff8216918281036102c257602435906102f56132b3565b6102fd6132ea565b8115610f51576a084595161401484a0000008211610ef357600184108015610ee9575b610e8b573383526002602052604083209060ff825416610e2d57600382018054610dcf5773ffffffffffffffffffffffffffffffffffffffff7f0000000000000000000000000000000000000000000000000000000000000000166040517f70a08231000000000000000000000000000000000000000000000000000000008152336004820152602081602481855afa908115610b84579086918891610d9a575b5010610cef576040517fdd62ed3e000000000000000000000000000000000000000000000000000000008152336004820152306024820152602081604481855afa908115610b84579086918891610cba575b5010610bfa576040517f91d148540000000000000000000000000000000000000000000000000000000081527f3c11d16cbaffd01df69ce1c404f6340ee057498f5f00246190ea54220576a8486004820152306024820152602081604481855afa908115610b84578791610bdb575b5015610b8f576040517f91d148540000000000000000000000000000000000000000000000000000000081527f9f2df0fed2c77648de5860a4cc508cd0818c85b8b8a1ab4ceeef8d981c8956a66004820152306024820152602081604481855afa908115610b84578791610b55575b5015610b095760068502858104600603610adc57856006820403610a7e576a31a17e847807b1bc0000008111610a445750803b15610a40576040517f9dc29fac0000000000000000000000000000000000000000000000000000000081523360048201526024810186905290869081908390604490829084905af19182610a2b575b50506105a957604485857f016f84a100000000000000000000000000000000000000000000000000000000825233600452602452fd5b93929091936105ba826005546126d4565b600555604051947f5d3b1d300000000000000000000000000000000000000000000000000000000086527f0000000000000000000000000000000000000000000000000000000000000000600487015267ffffffffffffffff7f000000000000000000000000000000000000000000000000000000000000000016602487015261ffff7f000000000000000000000000000000000000000000000000000000000000000016604487015263ffffffff7f000000000000000000000000000000000000000000000000000000000000000016606487015260ff7f000000000000000000000000000000000000000000000000000000000000000016608487015260208660a4818873ffffffffffffffffffffffffffffffffffffffff7f0000000000000000000000000000000000000000000000000000000000000000165af1958615610a205785966109e8575b50602096604051610718898261267b565b8681525f3681376040516060810181811067ffffffffffffffff8211176109bb57906001916040528881528a8101828152604082019384528a8a5260068c5260408a209151151560ff60ff19845416911515161782555115157fffffffffffffffffffffffffffffffffffffffffffffffffffffffffffff00ff61ff00835492151560081b1691161781550190519081519167ffffffffffffffff83116109bb5791818b80946107cc848e9a99989661272a565b01908a52838a208a5b8381106109a4575050505092876002819897948260a08996610998997f1efa8a4db358fbd4b3e1004cca7c5a1bdc9de3512d3392d48a51d1961316f9839b60019f526007825260408420337fffffffffffffffffffffffff000000000000000000000000000000000000000082541617905588845260088252604084208f60ff198254161790556005850163ffffffff42167fffffffffffffffffffffffffffffffffffffffffffffffffffffffff00000000825416179055436006860155600785017fffffffffffffffffffffffffffffffffffffffffffffffffffffffffffff00ff815416905583604051926108cc84612616565b60018452830152604082015282606082015288608082015201528a60ff198254161781557fffffffffffffffffffffffffffffffffffffffffffffffffffffffffffff00ff815416815580547fffffffffffffffffffffffffffffffffffffffffffffffffffffffffff00ffff62ff00008b60101b1691161781557fffffffffffffffffffffffffffffffffffffffffffffffffffffffff00ffffff8154168155858b8201550155556040519182913395898460ff604092959493606083019683521660208201520152565b0390a255604051908152f35b8251818301558c98508d95909201916001016107d5565b6024897f4e487b710000000000000000000000000000000000000000000000000000000081526041600452fd5b9095506020813d602011610a18575b81610a046020938361267b565b81010312610a145751945f610707565b5f80fd5b3d91506109f7565b6040513d87823e3d90fd5b81610a359161267b565b610a4057855f610573565b8580fd5b7f21e510be0000000000000000000000000000000000000000000000000000000087526004526a31a17e847807b1bc000000602452604486fd5b60646040517f327512f600000000000000000000000000000000000000000000000000000000815260206004820152601b60248201527f5061796f75742063616c63756c6174696f6e206f766572666c6f7700000000006044820152fd5b6024877f4e487b710000000000000000000000000000000000000000000000000000000081526011600452fd5b6024867fb3eebf6e0000000000000000000000000000000000000000000000000000000081527f9f2df0fed2c77648de5860a4cc508cd0818c85b8b8a1ab4ceeef8d981c8956a6600452fd5b610b77915060203d602011610b7d575b610b6f818361267b565b81019061276f565b5f6104f1565b503d610b65565b6040513d89823e3d90fd5b6024867fb3eebf6e0000000000000000000000000000000000000000000000000000000081527f3c11d16cbaffd01df69ce1c404f6340ee057498f5f00246190ea54220576a848600452fd5b610bf4915060203d602011610b7d57610b6f818361267b565b5f610482565b6040517fdd62ed3e0000000000000000000000000000000000000000000000000000000081523360048201523060248201529086908690602090849060449082905afa908115610caf578291610c7a575b604493507f2a1b2dd8000000000000000000000000000000000000000000000000000000008352600452602452fd5b90506020833d602011610ca7575b81610c956020938361267b565b81010312610a14576044925190610c4b565b3d9150610c88565b6040513d84823e3d90fd5b9150506020813d602011610ce7575b81610cd66020938361267b565b81010312610a14578590515f610413565b3d9150610cc9565b85856020602493604051948580927f70a082310000000000000000000000000000000000000000000000000000000082523360048301525afa908115610caf578291610d65575b604493507f5f504d20000000000000000000000000000000000000000000000000000000008352600452602452fd5b90506020833d602011610d92575b81610d806020938361267b565b81010312610a14576044925190610d36565b3d9150610d73565b9150506020813d602011610dc7575b81610db66020938361267b565b81010312610a14578590515f6103c1565b3d9150610da9565b60646040517f13b419a900000000000000000000000000000000000000000000000000000000815260206004820152601a60248201527f557365722068617320612070656e64696e6720726571756573740000000000006044820152fd5b60646040517f13b419a900000000000000000000000000000000000000000000000000000000815260206004820152601760248201527f557365722068617320616e206163746976652067616d650000000000000000006044820152fd5b60646040517f34460f4100000000000000000000000000000000000000000000000000000000815260206004820152601560248201527f496e76616c69642063686f73656e206e756d62657200000000000000000000006044820152fd5b5060068411610320565b60646040517f34460f4100000000000000000000000000000000000000000000000000000000815260206004820152601460248201527f42657420616d6f756e7420746f6f206c617267650000000000000000000000006044820152fd5b60646040517f34460f4100000000000000000000000000000000000000000000000000000000815260206004820152601960248201527f42657420616d6f756e742063616e6e6f74206265207a65726f000000000000006044820152fd5b50346102c45760206003193601126102c45760043573ffffffffffffffffffffffffffffffffffffffff8116908181036110a357610feb613263565b81156110775773ffffffffffffffffffffffffffffffffffffffff9074ffffffffffffffffffffffffffffffffffffffff006001549160081b167fffffffffffffffffffffff0000000000000000000000000000000000000000ff82161760015560081c167f8be0079c531659141344cd1fd0a4f28419497f9722a3daafe3b4186f6b6457e08380a380f35b6024837f1e4fbdf700000000000000000000000000000000000000000000000000000000815280600452fd5b8280fd5b50346102c457806003193601126102c4576020600454604051908152f35b50346102c457806003193601126102c457602060405173ffffffffffffffffffffffffffffffffffffffff7f0000000000000000000000000000000000000000000000000000000000000000168152f35b50346102c457806003193601126102c45760206040517f9f2df0fed2c77648de5860a4cc508cd0818c85b8b8a1ab4ceeef8d981c8956a68152f35b50346102c45760206003193601126102c45760043573ffffffffffffffffffffffffffffffffffffffff811681036102c25761118c90612834565b90604051918291602083016020845282518091526020604085019301915b8181106111b8575050500390f35b91935091602060a06001926080875160ff815116835260ff85820151168584015263ffffffff604082015116604084015260608101516060840152015160808201520194019101918493926111aa565b50346102c457806003193601126102c4576020604051600a8152f35b50346102c45760206003193601126102c4576004359073ffffffffffffffffffffffffffffffffffffffff8216918281036102c257611261613263565b6112696132b3565b8282526002602052604082209260ff845416156118ed5760038401918254948515158080916118d7575b806118be575b61183957600682015461012c8101809111610adc5743118163ffffffff6112c5816005870154166126e1565b1642118161181f575b81611808575b8215926117ff575b5081156117f6575b506117735760018201549485156117145786916116af575b82547fffffffffffffffffffffffffffffffffffffffffffffffffffffffff00ff00001663fe00010017835560028301869055556007810180547fffffffffffffffffffffffffffffffffffffffffffffffffffffffffffff00ff1681556040517f91d148540000000000000000000000000000000000000000000000000000000081527f9f2df0fed2c77648de5860a4cc508cd0818c85b8b8a1ab4ceeef8d981c8956a66004820152306024820152909273ffffffffffffffffffffffffffffffffffffffff7f00000000000000000000000000000000000000000000000000000000000000001691602081604481865afa9081156116a4578891611685575b501561163957813b15611635576040517f40c10f1900000000000000000000000000000000000000000000000000000000815273ffffffffffffffffffffffffffffffffffffffff9190911660048201526024810186905290869081908390604490829084905af19182611620575b50506114a3575050604493507f5c0b206f000000000000000000000000000000000000000000000000000000008352600452602452fd5b9492919394600460ff825460101c1691604051926114c08461265f565b835260fe602084015263ffffffff421660408401528460608401528460808401520190600a8254105f14611594578154680100000000000000008110156115675760ff600a604096946115477ff43f4cfd330c9814ec89dcb330ca1c7559745bb35a6ea4068b171116c4ea3d53999795611541866001879801855584612794565b9061331e565b5406161660ff198254161790555b82519182526020820152a26001815580f35b6024887f4e487b710000000000000000000000000000000000000000000000000000000081526041600452fd5b6115416115a69260ff85541690612794565b600160ff8254160160ff81116115f357917ff43f4cfd330c9814ec89dcb330ca1c7559745bb35a6ea4068b171116c4ea3d53939160ff600a8160409616061660ff19825416179055611555565b6024867f4e487b710000000000000000000000000000000000000000000000000000000081526011600452fd5b8161162a9161267b565b610a4057855f61146c565b8680fd5b6024877fb3eebf6e0000000000000000000000000000000000000000000000000000000081527f9f2df0fed2c77648de5860a4cc508cd0818c85b8b8a1ab4ceeef8d981c8956a6600452fd5b61169e915060203d602011610b7d57610b6f818361267b565b5f6113fd565b6040513d8a823e3d90fd5b8782526007602052604082207fffffffffffffffffffffffff0000000000000000000000000000000000000000815416905587825260086020526040822060ff198154169055878252600660205261170f600160408420848155016126fa565b6112fc565b6040517f13b419a900000000000000000000000000000000000000000000000000000000815260206004820152601160248201527f4e6f7468696e6720746f20726566756e640000000000000000000000000000006044820152606490fd5b60846040517f13b419a9000000000000000000000000000000000000000000000000000000008152602060048201526024808201527f47616d65206e6f7420656c696769626c6520666f7220666f7263652073746f7060448201527f20796574000000000000000000000000000000000000000000000000000000006064820152fd5b9050155f6112e4565b1591505f6112dc565b8989526006602052604089205460ff1691506112d4565b8989526006602052604089205460081c60ff1691506112ce565b6040517f13b419a900000000000000000000000000000000000000000000000000000000815260206004820152602860248201527f52657175657374206a7573742066756c66696c6c65642c206c6574205652462060448201527f636f6d706c6574650000000000000000000000000000000000000000000000006064820152608490fd5b506006820154600a8101809111610adc57431115611299565b50868652600660205260ff604087205416611293565b6040517f13b419a900000000000000000000000000000000000000000000000000000000815260206004820152600e60248201527f4e6f206163746976652067616d650000000000000000000000000000000000006044820152606490fd5b5034610a14575f600319360112610a14576119656132b3565b61196d6132ea565b335f52600260205260405f209060ff825416156118ed57600382018054928315611ef257835f52600660205260ff60405f20541680611ed9575b61183957600681015461012c8101809111611eac57431163ffffffff6119d2816005850154166126e1565b164211855f52600660205260ff60405f205460081c169081611e94575b821592611e8b575b508115611e82575b50611dfe576001810154918215611714575f908582526006602052611a2c600160408420848155016126fa565b8582526007602052604082207fffffffffffffffffffffffff0000000000000000000000000000000000000000815416905585825260086020526040822060ff1981541690556101007fffffffffffffffffffffffffffffffffffffffffffffffffffffffffffff000084541617835563ff0000007fffffffffffffffffffffffffffffffffffffffffffffffffffffffff00ffffff8454161783558360028401555560078101907fffffffffffffffffffffffffffffffffffffffffffffffffffffffffffff00ff825416825573ffffffffffffffffffffffffffffffffffffffff7f0000000000000000000000000000000000000000000000000000000000000000166040517f91d148540000000000000000000000000000000000000000000000000000000081527f9f2df0fed2c77648de5860a4cc508cd0818c85b8b8a1ab4ceeef8d981c8956a66004820152306024820152602081604481855afa908115611df3575f91611dd4575b5015611d8857803b15610a14576040517f40c10f1900000000000000000000000000000000000000000000000000000000815233600482015260248101859052905f908290604490829084905af19081611d73575b50611c2457604484847f5c0b206f00000000000000000000000000000000000000000000000000000000825233600452602452fd5b939293600460ff825460101c169160405192611c3f8461265f565b835260ff602084015263ffffffff421660408401528460608401528460808401520190600a8254105f14611d0d57815468010000000000000000811015611ce05760ff92611c9a8493611541846001600a9601855584612794565b5406161660ff198254161790555b60405191825260208201527ff43f4cfd330c9814ec89dcb330ca1c7559745bb35a6ea4068b171116c4ea3d5360403392a26001815580f35b6024877f4e487b710000000000000000000000000000000000000000000000000000000081526041600452fd5b611541611d1f9260ff85541690612794565b600160ff8254160160ff8111611d4657600a60ff809216061660ff19825416179055611ca8565b6024857f4e487b710000000000000000000000000000000000000000000000000000000081526011600452fd5b611d809195505f9061267b565b5f935f611bef565b7fb3eebf6e000000000000000000000000000000000000000000000000000000005f527f9f2df0fed2c77648de5860a4cc508cd0818c85b8b8a1ab4ceeef8d981c8956a660045260245ffd5b611ded915060203d602011610b7d57610b6f818361267b565b5f611b9a565b6040513d5f823e3d90fd5b60846040517f13b419a900000000000000000000000000000000000000000000000000000000815260206004820152602260248201527f47616d65206e6f7420656c696769626c6520666f72207265636f76657279207960448201527f65740000000000000000000000000000000000000000000000000000000000006064820152fd5b9050155f6119ff565b1591505f6119f7565b9050855f52600660205260ff60405f205416906119ef565b7f4e487b71000000000000000000000000000000000000000000000000000000005f52601160045260245ffd5b506006810154600a8101809111611eac574311156119a7565b60646040517f13b419a900000000000000000000000000000000000000000000000000000000815260206004820152601d60248201527f4e6f2070656e64696e67207265717565737420746f207265636f7665720000006044820152fd5b34610a14576020600319360112610a14576004355f5260066020526040805f205460ff8251918181161515835260081c1615156020820152f35b34610a14575f600319360112610a145760206040516127108152f35b34610a14575f600319360112610a1457602073ffffffffffffffffffffffffffffffffffffffff60015460081c16604051908152f35b34610a14575f600319360112610a1457611ff4613263565b611ffc6132b3565b6120046132ea565b600160ff19815416176001557f62e78cea01bee320cd4e420270b5ea74000d11b0c9f74754ebdbfc544b05a2586020604051338152a160015f55005b34610a14575f600319360112610a1457612058613263565b5f73ffffffffffffffffffffffffffffffffffffffff6001547fffffffffffffffffffffff0000000000000000000000000000000000000000ff811660015560081c167f8be0079c531659141344cd1fd0a4f28419497f9722a3daafe3b4186f6b6457e08280a3005b34610a14576020600319360112610a145760043573ffffffffffffffffffffffffffffffffffffffff8116809103610a14575f526002602052602060405f2060ff815416159081612118575b506040519015158152f35b600391500154158261210d565b34610a14575f600319360112610a1457602060ff600154166040519015158152f35b34610a14575f600319360112610a14576020600354604051908152f35b34610a14575f600319360112610a14576020600554604051908152f35b34610a14575f600319360112610a1457602060405160ff8152f35b34610a14576020600319360112610a145760043573ffffffffffffffffffffffffffffffffffffffff8116809103610a14578015610263575f52600260205260405f2080549060ff821660018201549260ff8160181c1692600281015491600382015463ffffffff60058401541693801515968761233a575b8761232e575b8697985f979697945f96851515908161230c575b5f99612298575b505060ff906101809b6040519b15158c52151560208c0152818160081c16151560408c015260101c1660608a0152608089015260a088015260c087015260e0860152151561010085015215156101208401521515610140830152610160820152f35b6006919c995001549061012c8201809211611eac576101809b60ff9243119063ffffffff6122c58d6126e1565b16421181612304575b816122fc575b826122f4575b50816122ec575b50989b819250612236565b90508d6122e1565b91508e6122da565b8a91506122d4565b8991506122ce565b97509550845f52600660205260405f20549560ff808860081c1697169761222f565b6006811115975061221b565b8015159750612215565b34610a14575f600319360112610a145760206040516a31a17e847807b1bc0000008152f35b34610a14575f600319360112610a1457612381613263565b6123896132b3565b60015460ff8116156123cc5760ff19166001557f5db9ee0a495bf2e6ff9c91a7834c1ba4fdd244a5e8aa4e537bd38aeae4b073aa6020604051338152a160015f55005b7f8dfc202b000000000000000000000000000000000000000000000000000000005f5260045ffd5b34610a14575f600319360112610a1457602060405160fe8152f35b34610a14575f600319360112610a145760206040516a084595161401484a0000008152f35b34610a14575f600319360112610a145760206040517f3c11d16cbaffd01df69ce1c404f6340ee057498f5f00246190ea54220576a8488152f35b34610a14576040600319360112610a145760243567ffffffffffffffff8111610a145736602382011215610a14578060040135906124ab826126bc565b916124b9604051938461267b565b8083526024602084019160051b83010191368311610a1457602401905b828210612567578373ffffffffffffffffffffffffffffffffffffffff7f0000000000000000000000000000000000000000000000000000000000000000169081330361253757612531906125296132b3565b600435612a81565b60015f55005b507f1cf993f4000000000000000000000000000000000000000000000000000000005f523360045260245260445ffd5b81358152602091820191016124d6565b34610a14576020600319360112610a145760043573ffffffffffffffffffffffffffffffffffffffff8116809103610a14575f526002602052602060405f2060ff81541690816125cc57506040519015158152f35b60039150015415158261210d565b34610a14576020600319360112610a14576020906004355f526007825273ffffffffffffffffffffffffffffffffffffffff60405f2054168152f35b60c0810190811067ffffffffffffffff82111761263257604052565b7f4e487b71000000000000000000000000000000000000000000000000000000005f52604160045260245ffd5b60a0810190811067ffffffffffffffff82111761263257604052565b90601f7fffffffffffffffffffffffffffffffffffffffffffffffffffffffffffffffe0910116810190811067ffffffffffffffff82111761263257604052565b67ffffffffffffffff81116126325760051b60200190565b91908201809211611eac57565b63ffffffff610e109116019063ffffffff8211611eac57565b8054905f815581612709575050565b5f5260205f20908101905b81811061271f575050565b5f8155600101612714565b906801000000000000000081116126325781549181815582821061274d57505050565b5f5260205f2091820191015b818110612764575050565b5f8155600101612759565b90816020910312610a1457518015158103610a145790565b91908203918211611eac57565b80548210156127ad575f52600360205f20910201905f90565b7f4e487b71000000000000000000000000000000000000000000000000000000005f52603260045260245ffd5b80518210156127ad5760209160051b010190565b906040516127fb8161265f565b60806002829463ffffffff815460ff8116865260ff8160081c16602087015260101c166040850152600181015460608501520154910152565b73ffffffffffffffffffffffffffffffffffffffff606091168015610263575f52600260205260405f2090600482018054918215612a265750600a821115612a1f57600a925b7fffffffffffffffffffffffffffffffffffffffffffffffffffffffffffffffe06128bd6128a7866126bc565b956128b5604051978861267b565b8087526126bc565b015f5b8181106129ea575050600a83101561294a57507fffffffffffffffffffffffffffffffffffffffffffffffffffffffffffffffff82018281115f5b84811061290a57505050505090565b81611eac578061292e61292861292260019487612787565b87612794565b506127ee565b61293882896127da565b5261294381886127da565b50016128fb565b6007015490915060ff16806129b8575060ff60095b16905f91600a8101809111925b600a811061297b575050505090565b83611eac578061299c612928600a61299560019587612787565b0686612794565b6129a682886127da565b526129b181876127da565b500161296c565b7fffffffffffffffffffffffffffffffffffffffffffffffffffffffffffffffff0160ff8111611eac5760ff9061295f565b6020906040516129f98161265f565b5f81525f838201525f60408201525f60608201525f6080820152828289010152016128c0565b819261287a565b9250505060405190612a3960208361267b565b5f82525f90815b828110612a4d5750505090565b602090604051612a5c8161265f565b5f81525f838201525f60408201525f848201525f608082015282828701015201612a40565b5f815f52600660205260405f209182549160ff8360081c16156132055760ff83166131a757845160ff7f0000000000000000000000000000000000000000000000000000000000000000160361314957815f52600760205273ffffffffffffffffffffffffffffffffffffffff60405f2054169384156130ea57845f52600260205260405f209360038501918483540361308c57600160ff1981931617815501865167ffffffffffffffff811161263257612b3c818361272a565b6020880180925f5260205f205f5b838110613078575050505060078501906101007fffffffffffffffffffffffffffffffffffffffffffffffffffffffffffff00ff83541617825560ff86541615612fe75760ff865460101c169060018701549851156127ad578060069150510660018101809111611eac5760ff16955f98878314612f20575b81547fffffffffffffffffffffffffffffffffffffffffffffffffffffffff00ff000016601889901b63ff0000001617610100178255600282018a9055604051926004929190612c128561265f565b845288602085015263ffffffff4216604085015260608401528960808401520190600a8254105f14612ee757815490680100000000000000008210156126325760ff92612c6c600a92611541856001889701855584612794565b5406161660ff198254161790555b6003547fffffffffffffffffffffffffffffffffffffffffffffffffffffffffffffffff8114611eac576001016003555f8615159182612ed3575b8482526007602052604082207fffffffffffffffffffffffff0000000000000000000000000000000000000000815416905584825260086020526040822060ff19815416905555612d4d575b50612d487fc74777e2214d32e7b4952c2ecbbfc0ec7dc3642e448c3c927261cb69d9f0365093946040519384938460ff604092959493606083019683521660208201520152565b0390a2565b9392919073ffffffffffffffffffffffffffffffffffffffff7f0000000000000000000000000000000000000000000000000000000000000000166040517f91d148540000000000000000000000000000000000000000000000000000000081527f9f2df0fed2c77648de5860a4cc508cd0818c85b8b8a1ab4ceeef8d981c8956a66004820152306024820152602081604481855afa908115611df3575f91612eb4575b5015611d8857803b15610a14576040517f40c10f1900000000000000000000000000000000000000000000000000000000815273ffffffffffffffffffffffffffffffffffffffff8516600482015260248101869052905f908290604490829084905af19081612e9f575b50612e92575050604493507f5c0b206f000000000000000000000000000000000000000000000000000000008352600452602452fd5b9293509091612d48612d01565b612eac9196505f9061267b565b5f945f612e5c565b612ecd915060203d602011610b7d57610b6f818361267b565b5f612df1565b612edf886004546126d4565b600455612cb5565b611541612ef99260ff85541690612794565b600160ff8254160160ff8111611eac57600a60ff809216061660ff19825416179055612c7a565b98507f2aaaaaaaaaaaaaaaaaaaaaaaaaaaaaaaaaaaaaaaaaaaaaaaaaaaaaaaaaaaaaaa8911612f635760068902908982046006148a151715611eac579098612bc3565b60846040517f327512f600000000000000000000000000000000000000000000000000000000815260206004820152602b60248201527f42657420616d6f756e7420746f6f206c6172676520666f72207061796f75742060448201527f63616c63756c6174696f6e0000000000000000000000000000000000000000006064820152fd5b5095509250505f9250808352600660205261300a600160408520858155016126fa565b8083526007602052604083207fffffffffffffffffffffffff00000000000000000000000000000000000000008154169055825260086020526040822060ff198154169055557fffffffffffffffffffffffffffffffffffffffffffffffffffffffffffff00ff8154169055565b600190602084519401938184015501612b4a565b60646040517f13b419a900000000000000000000000000000000000000000000000000000000815260206004820152601360248201527f52657175657374204944206d69736d61746368000000000000000000000000006044820152fd5b6040517f1726a07e00000000000000000000000000000000000000000000000000000000815260206004820152601660248201527f496e76616c696420706c617965722061646472657373000000000000000000006044820152606490fd5b60646040517f1726a07e00000000000000000000000000000000000000000000000000000000815260206004820152601b60248201527f496e76616c69642072616e646f6d20776f726473206c656e67746800000000006044820152fd5b60646040517f1726a07e00000000000000000000000000000000000000000000000000000000815260206004820152601960248201527f5265717565737420616c72656164792066756c66696c6c6564000000000000006044820152fd5b60646040517f1726a07e00000000000000000000000000000000000000000000000000000000815260206004820152601160248201527f52657175657374206e6f7420666f756e640000000000000000000000000000006044820152fd5b73ffffffffffffffffffffffffffffffffffffffff60015460081c16330361328757565b7f118cdaa7000000000000000000000000000000000000000000000000000000005f523360045260245ffd5b60025f54146132c25760025f55565b7f3ee5aeb5000000000000000000000000000000000000000000000000000000005f5260045ffd5b60ff600154166132f657565b7fd93c0665000000000000000000000000000000000000000000000000000000005f5260045ffd5b91906133b75760808160ff8060029451161660ff19855416178455602081015161ff0085549160081b16807fffffffffffffffffffffffffffffffffffffffffffffffffffffffffffff00ff83161786557fffffffffffffffffffffffffffffffffffffffffffffffffffff0000000000ff65ffffffff0000604085015160101b16921617178455606081015160018501550151910155565b7f4e487b71000000000000000000000000000000000000000000000000000000005f525f60045260245ffdfea26469706673582212207677f2a06b7942cf71ee7c6e5dad0d91ab21e45005cbb6735dc0a77e01fa23ac64736f6c634300081c0033",
    "linkReferences": {}
  },
  "methodIdentifiers": {
    "BURNER_ROLE()": "282c51f3",
    "DENOMINATOR()": "918f8674",
    "MAX_BET_AMOUNT()": "309167f5",
    "MAX_HISTORY_SIZE()": "c1066251",
    "MAX_POSSIBLE_PAYOUT()": "4689b441",
    "MINTER_ROLE()": "d5391393",
    "RESULT_FORCE_STOPPED()": "38f8bc6d",
    "RESULT_RECOVERED()": "57816f3e",
    "canStartNewGame(address)": "5d424b85",
    "forceStopGame(address)": "b52a0855",
    "gamaToken()": "d56ec8c9",
    "getBetHistory(address)": "ce84a53b",
    "getGameStatus(address)": "54e4437e",
    "getPlayerForRequest(uint256)": "04243151",
    "getUserData(address)": "ffc9896b",
    "hasPendingRequest(address)": "0c99375d",
    "owner()": "8da5cb5b",
    "pause()": "8456cb59",
    "paused()": "5c975abb",
    "playDice(uint8,uint256)": "f3b5a671",
    "rawFulfillRandomWords(uint256,uint256[])": "1fe543e3",
    "recoverOwnStuckGame()": "a20ff9fc",
    "renounceOwnership()": "715018a6",
    "s_requests(uint256)": "a168fa89",
    "totalGamesPlayed()": "5c492129",
    "totalPayoutAmount()": "e7efcfc2",
    "totalWageredAmount()": "5bdb2e1b",
    "transferOwnership(address)": "f2fde38b",
    "unpause()": "3f4ba83a"
  },
  "id": 49
}