{"abi":[{"type":"constructor","inputs":[{"name":"_gamaTokenAddress","type":"address","internalType":"address"},{"name":"vrfCoordinator","type":"address","internalType":"address"},{"name":"subscriptionId","type":"uint64","internalType":"uint64"},{"name":"keyHash","type":"bytes32","internalType":"bytes32"},{"name":"_callbackGasLimit","type":"uint32","internalType":"uint32"},{"name":"_requestConfirmations","type":"uint16","internalType":"uint16"},{"name":"_numWords","type":"uint8","internalType":"uint8"}],"stateMutability":"nonpayable"},{"type":"function","name":"BURNER_ROLE","inputs":[],"outputs":[{"name":"","type":"bytes32","internalType":"bytes32"}],"stateMutability":"view"},{"type":"function","name":"DENOMINATOR","inputs":[],"outputs":[{"name":"","type":"uint256","internalType":"uint256"}],"stateMutability":"view"},{"type":"function","name":"MAX_BET_AMOUNT","inputs":[],"outputs":[{"name":"","type":"uint256","internalType":"uint256"}],"stateMutability":"view"},{"type":"function","name":"MAX_HISTORY_SIZE","inputs":[],"outputs":[{"name":"","type":"uint8","internalType":"uint8"}],"stateMutability":"view"},{"type":"function","name":"MAX_POSSIBLE_PAYOUT","inputs":[],"outputs":[{"name":"","type":"uint256","internalType":"uint256"}],"stateMutability":"view"},{"type":"function","name":"MINTER_ROLE","inputs":[],"outputs":[{"name":"","type":"bytes32","internalType":"bytes32"}],"stateMutability":"view"},{"type":"function","name":"RESULT_FORCE_STOPPED","inputs":[],"outputs":[{"name":"","type":"uint8","internalType":"uint8"}],"stateMutability":"view"},{"type":"function","name":"RESULT_RECOVERED","inputs":[],"outputs":[{"name":"","type":"uint8","internalType":"uint8"}],"stateMutability":"view"},{"type":"function","name":"canStartNewGame","inputs":[{"name":"player","type":"address","internalType":"address"}],"outputs":[{"name":"","type":"bool","internalType":"bool"}],"stateMutability":"view"},{"type":"function","name":"forceStopGame","inputs":[{"name":"player","type":"address","internalType":"address"}],"outputs":[],"stateMutability":"nonpayable"},{"type":"function","name":"gamaToken","inputs":[],"outputs":[{"name":"","type":"address","internalType":"contract IERC20"}],"stateMutability":"view"},{"type":"function","name":"getBetHistory","inputs":[{"name":"player","type":"address","internalType":"address"}],"outputs":[{"name":"","type":"tuple[]","internalType":"struct BetHistory[]","components":[{"name":"chosenNumber","type":"uint8","internalType":"uint8"},{"name":"rolledNumber","type":"uint8","internalType":"uint8"},{"name":"timestamp","type":"uint32","internalType":"uint32"},{"name":"amount","type":"uint256","internalType":"uint256"},{"name":"payout","type":"uint256","internalType":"uint256"}]}],"stateMutability":"view"},{"type":"function","name":"getGameStatus","inputs":[{"name":"player","type":"address","internalType":"address"}],"outputs":[{"name":"isActive","type":"bool","internalType":"bool"},{"name":"isWin","type":"bool","internalType":"bool"},{"name":"isCompleted","type":"bool","internalType":"bool"},{"name":"chosenNumber","type":"uint8","internalType":"uint8"},{"name":"amount","type":"uint256","internalType":"uint256"},{"name":"result","type":"uint8","internalType":"uint8"},{"name":"payout","type":"uint256","internalType":"uint256"},{"name":"requestId","type":"uint256","internalType":"uint256"},{"name":"requestExists","type":"bool","internalType":"bool"},{"name":"requestProcessed","type":"bool","internalType":"bool"},{"name":"recoveryEligible","type":"bool","internalType":"bool"},{"name":"lastPlayTimestamp","type":"uint256","internalType":"uint256"}],"stateMutability":"view"},{"type":"function","name":"getPlayerForRequest","inputs":[{"name":"requestId","type":"uint256","internalType":"uint256"}],"outputs":[{"name":"","type":"address","internalType":"address"}],"stateMutability":"view"},{"type":"function","name":"getUserData","inputs":[{"name":"player","type":"address","internalType":"address"}],"outputs":[{"name":"gameState","type":"tuple","internalType":"struct GameState","components":[{"name":"isActive","type":"bool","internalType":"bool"},{"name":"completed","type":"bool","internalType":"bool"},{"name":"chosenNumber","type":"uint8","internalType":"uint8"},{"name":"result","type":"uint8","internalType":"uint8"},{"name":"amount","type":"uint256","internalType":"uint256"},{"name":"payout","type":"uint256","internalType":"uint256"}]},{"name":"lastPlayed","type":"uint256","internalType":"uint256"}],"stateMutability":"view"},{"type":"function","name":"hasPendingRequest","inputs":[{"name":"player","type":"address","internalType":"address"}],"outputs":[{"name":"","type":"bool","internalType":"bool"}],"stateMutability":"view"},{"type":"function","name":"owner","inputs":[],"outputs":[{"name":"","type":"address","internalType":"address"}],"stateMutability":"view"},{"type":"function","name":"pause","inputs":[],"outputs":[],"stateMutability":"nonpayable"},{"type":"function","name":"paused","inputs":[],"outputs":[{"name":"","type":"bool","internalType":"bool"}],"stateMutability":"view"},{"type":"function","name":"playDice","inputs":[{"name":"chosenNumber","type":"uint8","internalType":"uint8"},{"name":"amount","type":"uint256","internalType":"uint256"}],"outputs":[{"name":"requestId","type":"uint256","internalType":"uint256"}],"stateMutability":"nonpayable"},{"type":"function","name":"rawFulfillRandomWords","inputs":[{"name":"requestId","type":"uint256","internalType":"uint256"},{"name":"randomWords","type":"uint256[]","internalType":"uint256[]"}],"outputs":[],"stateMutability":"nonpayable"},{"type":"function","name":"recoverOwnStuckGame","inputs":[],"outputs":[],"stateMutability":"nonpayable"},{"type":"function","name":"renounceOwnership","inputs":[],"outputs":[],"stateMutability":"nonpayable"},{"type":"function","name":"s_requests","inputs":[{"name":"","type":"uint256","internalType":"uint256"}],"outputs":[{"name":"fulfilled","type":"bool","internalType":"bool"},{"name":"exists","type":"bool","internalType":"bool"}],"stateMutability":"view"},{"type":"function","name":"totalGamesPlayed","inputs":[],"outputs":[{"name":"","type":"uint256","internalType":"uint256"}],"stateMutability":"view"},{"type":"function","name":"totalPayoutAmount","inputs":[],"outputs":[{"name":"","type":"uint256","internalType":"uint256"}],"stateMutability":"view"},{"type":"function","name":"totalWageredAmount","inputs":[],"outputs":[{"name":"","type":"uint256","internalType":"uint256"}],"stateMutability":"view"},{"type":"function","name":"transferOwnership","inputs":[{"name":"newOwner","type":"address","internalType":"address"}],"outputs":[],"stateMutability":"nonpayable"},{"type":"function","name":"unpause","inputs":[],"outputs":[],"stateMutability":"nonpayable"},{"type":"event","name":"BetPlaced","inputs":[{"name":"player","type":"address","indexed":true,"internalType":"address"},{"name":"requestId","type":"uint256","indexed":false,"internalType":"uint256"},{"name":"chosenNumber","type":"uint8","indexed":false,"internalType":"uint8"},{"name":"amount","type":"uint256","indexed":false,"internalType":"uint256"}],"anonymous":false},{"type":"event","name":"GameCompleted","inputs":[{"name":"player","type":"address","indexed":true,"internalType":"address"},{"name":"requestId","type":"uint256","indexed":false,"internalType":"uint256"},{"name":"result","type":"uint8","indexed":false,"internalType":"uint8"},{"name":"payout","type":"uint256","indexed":false,"internalType":"uint256"}],"anonymous":false},{"type":"event","name":"GameRecovered","inputs":[{"name":"player","type":"address","indexed":true,"internalType":"address"},{"name":"requestId","type":"uint256","indexed":false,"internalType":"uint256"},{"name":"refundAmount","type":"uint256","indexed":false,"internalType":"uint256"}],"anonymous":false},{"type":"event","name":"OwnershipTransferred","inputs":[{"name":"previousOwner","type":"address","indexed":true,"internalType":"address"},{"name":"newOwner","type":"address","indexed":true,"internalType":"address"}],"anonymous":false},{"type":"event","name":"Paused","inputs":[{"name":"account","type":"address","indexed":false,"internalType":"address"}],"anonymous":false},{"type":"event","name":"Unpaused","inputs":[{"name":"account","type":"address","indexed":false,"internalType":"address"}],"anonymous":false},{"type":"error","name":"BurnFailed","inputs":[{"name":"account","type":"address","internalType":"address"},{"name":"amount","type":"uint256","internalType":"uint256"}]},{"type":"error","name":"EnforcedPause","inputs":[]},{"type":"error","name":"ExpectedPause","inputs":[]},{"type":"error","name":"GameError","inputs":[{"name":"reason","type":"string","internalType":"string"}]},{"type":"error","name":"InsufficientAllowance","inputs":[{"name":"required","type":"uint256","internalType":"uint256"},{"name":"allowed","type":"uint256","internalType":"uint256"}]},{"type":"error","name":"InsufficientUserBalance","inputs":[{"name":"required","type":"uint256","internalType":"uint256"},{"name":"available","type":"uint256","internalType":"uint256"}]},{"type":"error","name":"InvalidBetParameters","inputs":[{"name":"reason","type":"string","internalType":"string"}]},{"type":"error","name":"MaxPayoutExceeded","inputs":[{"name":"potentialPayout","type":"uint256","internalType":"uint256"},{"name":"maxAllowed","type":"uint256","internalType":"uint256"}]},{"type":"error","name":"MintFailed","inputs":[{"name":"account","type":"address","internalType":"address"},{"name":"amount","type":"uint256","internalType":"uint256"}]},{"type":"error","name":"MissingContractRole","inputs":[{"name":"role","type":"bytes32","internalType":"bytes32"}]},{"type":"error","name":"OnlyCoordinatorCanFulfill","inputs":[{"name":"have","type":"address","internalType":"address"},{"name":"want","type":"address","internalType":"address"}]},{"type":"error","name":"OwnableInvalidOwner","inputs":[{"name":"owner","type":"address","internalType":"address"}]},{"type":"error","name":"OwnableUnauthorizedAccount","inputs":[{"name":"account","type":"address","internalType":"address"}]},{"type":"error","name":"PayoutCalculationError","inputs":[{"name":"message","type":"string","internalType":"string"}]},{"type":"error","name":"ReentrancyGuardReentrantCall","inputs":[]},{"type":"error","name":"TransferFailed","inputs":[{"name":"from","type":"address","internalType":"address"},{"name":"to","type":"address","internalType":"address"},{"name":"amount","type":"uint256","internalType":"uint256"}]},{"type":"error","name":"VRFError","inputs":[{"name":"reason","type":"string","internalType":"string"}]}],"bytecode":{"object":"0x6101803461030457601f6136f338819003918201601f19168301916001600160401b038311848410176103085780849260e094604052833981010312610304576100488161031c565b906100556020820161031c565b60408201519092906001600160401b03811681036103045760608301519060808401519263ffffffff8416908185036103045760a08601519561ffff871687036103045760c001519660ff8816908189036103045760015f558060805233156102f15760018054610100600160a81b0319811633600881811b610100600160a81b031692909217909355604051959291901c6001600160a01b03167f8be0079c531659141344cd1fd0a4f28419497f9722a3daafe3b4186f6b6457e05f80a36001600160a01b03169283156102af57506001600160a01b031692831561026a571561021b57156101d65760a05260c05260e052610100526101205261014052610160526040516133c290816103318239608051816124c5015260a05181818161035a015281816111750152818161144201528181611b3a0152612d25015260c051816106e9015260e05181610627015261010051816105f80152610120518161067d015261014051816106510152610160518181816106a60152612a7c0152f35b60405162461bcd60e51b815260206004820152601e60248201527f4e756d626572206f6620776f7264732063616e6e6f74206265207a65726f00006044820152606490fd5b60405162461bcd60e51b815260206004820152602160248201527f43616c6c6261636b20676173206c696d69742063616e6e6f74206265207a65726044820152606f60f81b6064820152608490fd5b60405162461bcd60e51b815260206004820152601e60248201527f56524620636f6f7264696e61746f722063616e6e6f74206265207a65726f00006044820152606490fd5b62461bcd60e51b815260206004820152601c60248201527f546f6b656e20616464726573732063616e6e6f74206265207a65726f000000006044820152606490fd5b631e4fbdf760e01b5f525f60045260245ffd5b5f80fd5b634e487b7160e01b5f52604160045260245ffd5b51906001600160a01b03821682036103045756fe6080806040526004361015610012575f80fd5b5f905f3560e01c90816304243151146125aa575080630c99375d146125475780631fe543e31461243e578063282c51f314612404578063309167f5146123df57806338f8bc6d146123c45780633f4ba83a146123395780634689b4411461231457806354e4437e1461217a57806357816f3e1461215f5780635bdb2e1b146121425780635c492129146121255780635c975abb146121035780635d424b851461209f578063715018a61461201e5780638456cb5914611fba5780638da5cb5b14611f84578063918f867414611f68578063a168fa8914611f2e578063a20ff9fc1461197c578063b52a0855146112a7578063c10662511461128b578063ce84a53b146111d4578063d539139314611199578063d56ec8c914611148578063e7efcfc21461112a578063f2fde38b14611032578063f3b5a671146102c75763ffc9896b1461015d575f80fd5b346102c45760206003193601126102c45760043573ffffffffffffffffffffffffffffffffffffffff81168091036102c2578160a060405161019e816125e6565b82815282602082015282604082015282606082015282608082015201528015610263578160409160e0935260026020522063ffffffff6005820154166040516101e6816125e6565b82549260ff8085161515948584528160208501818360081c16151581526040860190828460101c16825282606088019460181c16845260a0600260018801549760808a0198895201549701968752604051988952511515602089015251166040870152511660608501525160808401525160a083015260c0820152f35b6040517f34460f4100000000000000000000000000000000000000000000000000000000815260206004820152601660248201527f496e76616c696420706c617965722061646472657373000000000000000000006044820152606490fd5b505b80fd5b50346102c45760406003193601126102c45760043560ff8116918282036102c457602435916102f461325c565b6102fc613293565b8215610fd4576a084595161401484a0000008311610f7657600184108015610f6c575b610f0e573382526002602052604082209260ff845416610eb057600384018054610e525773ffffffffffffffffffffffffffffffffffffffff7f0000000000000000000000000000000000000000000000000000000000000000166040517f70a08231000000000000000000000000000000000000000000000000000000008152336004820152602081602481855afa908115610c07579084918791610e1d575b5010610d72576040517fdd62ed3e000000000000000000000000000000000000000000000000000000008152336004820152306024820152602081604481855afa908115610c07579084918791610d3d575b5010610c7d576040517f91d148540000000000000000000000000000000000000000000000000000000081527f3c11d16cbaffd01df69ce1c404f6340ee057498f5f00246190ea54220576a8486004820152306024820152602081604481855afa908115610c07578691610c5e575b5015610c12576040517f91d148540000000000000000000000000000000000000000000000000000000081527f9f2df0fed2c77648de5860a4cc508cd0818c85b8b8a1ab4ceeef8d981c8956a66004820152306024820152602081604481855afa908115610c07578691610bd8575b5015610b8c5760068302838104600603610b5f57836006820403610b01576a31a17e847807b1bc0000008111610ac757604051907f6f97e31c000000000000000000000000000000000000000000000000000000008252602082600481865afa918215610abc578792610a88575b50818111610a5a575050803b15610a56576040517f79cc6790000000000000000000000000000000000000000000000000000000008152336004820152602481018490529085908290604490829084905af18015610a3257908591610a3d575b50506105cc826005546126a4565b600555604051947f5d3b1d300000000000000000000000000000000000000000000000000000000086527f0000000000000000000000000000000000000000000000000000000000000000600487015267ffffffffffffffff7f000000000000000000000000000000000000000000000000000000000000000016602487015261ffff7f000000000000000000000000000000000000000000000000000000000000000016604487015263ffffffff7f000000000000000000000000000000000000000000000000000000000000000016606487015260ff7f000000000000000000000000000000000000000000000000000000000000000016608487015260208660a4818873ffffffffffffffffffffffffffffffffffffffff7f0000000000000000000000000000000000000000000000000000000000000000165af1958615610a325785966109fa575b5060209660405161072a898261264b565b8681525f3681376040516060810181811067ffffffffffffffff8211176109cd57906001916040528881528a8101828152604082019384528a8a5260068c5260408a209151151560ff60ff19845416911515161782555115157fffffffffffffffffffffffffffffffffffffffffffffffffffffffffffff00ff61ff00835492151560081b1691161781550190519081519167ffffffffffffffff83116109cd5791818b80946107de848e9a9998966126fa565b01908a52838a208a5b8381106109b6575050505092876002819897948260a089966109aa997f1efa8a4db358fbd4b3e1004cca7c5a1bdc9de3512d3392d48a51d1961316f9839b60019f526007825260408420337fffffffffffffffffffffffff000000000000000000000000000000000000000082541617905588845260088252604084208f60ff198254161790556005850163ffffffff42167fffffffffffffffffffffffffffffffffffffffffffffffffffffffff00000000825416179055436006860155600785017fffffffffffffffffffffffffffffffffffffffffffffffffffffffffffff00ff815416905583604051926108de846125e6565b60018452830152604082015282606082015288608082015201528a60ff198254161781557fffffffffffffffffffffffffffffffffffffffffffffffffffffffffffff00ff815416815580547fffffffffffffffffffffffffffffffffffffffffffffffffffffffffff00ffff62ff00008b60101b1691161781557fffffffffffffffffffffffffffffffffffffffffffffffffffffffff00ffffff8154168155858b8201550155556040519182913395898460ff604092959493606083019683521660208201520152565b0390a255604051908152f35b8251818301558c98508d95909201916001016107e7565b6024897f4e487b710000000000000000000000000000000000000000000000000000000081526041600452fd5b9095506020813d602011610a2a575b81610a166020938361264b565b81010312610a265751945f610719565b5f80fd5b3d9150610a09565b6040513d87823e3d90fd5b81610a479161264b565b610a5257835f6105be565b8380fd5b8480fd5b7f21e510be000000000000000000000000000000000000000000000000000000008752600452602452604485fd5b9091506020813d602011610ab4575b81610aa46020938361264b565b81010312610a265751905f61055e565b3d9150610a97565b6040513d89823e3d90fd5b7f21e510be0000000000000000000000000000000000000000000000000000000086526004526a31a17e847807b1bc000000602452604485fd5b60646040517f327512f600000000000000000000000000000000000000000000000000000000815260206004820152601b60248201527f5061796f75742063616c63756c6174696f6e206f766572666c6f7700000000006044820152fd5b6024867f4e487b710000000000000000000000000000000000000000000000000000000081526011600452fd5b6024857fb3eebf6e0000000000000000000000000000000000000000000000000000000081527f9f2df0fed2c77648de5860a4cc508cd0818c85b8b8a1ab4ceeef8d981c8956a6600452fd5b610bfa915060203d602011610c00575b610bf2818361264b565b81019061273f565b5f6104f0565b503d610be8565b6040513d88823e3d90fd5b6024857fb3eebf6e0000000000000000000000000000000000000000000000000000000081527f3c11d16cbaffd01df69ce1c404f6340ee057498f5f00246190ea54220576a848600452fd5b610c77915060203d602011610c0057610bf2818361264b565b5f610481565b6040517fdd62ed3e0000000000000000000000000000000000000000000000000000000081523360048201523060248201529085908490602090849060449082905afa908115610d32578291610cfd575b604493507f2a1b2dd8000000000000000000000000000000000000000000000000000000008352600452602452fd5b90506020833d602011610d2a575b81610d186020938361264b565b81010312610a26576044925190610cce565b3d9150610d0b565b6040513d84823e3d90fd5b9150506020813d602011610d6a575b81610d596020938361264b565b81010312610a26578390515f610412565b3d9150610d4c565b84836020602493604051948580927f70a082310000000000000000000000000000000000000000000000000000000082523360048301525afa908115610d32578291610de8575b604493507f5f504d20000000000000000000000000000000000000000000000000000000008352600452602452fd5b90506020833d602011610e15575b81610e036020938361264b565b81010312610a26576044925190610db9565b3d9150610df6565b9150506020813d602011610e4a575b81610e396020938361264b565b81010312610a26578390515f6103c0565b3d9150610e2c565b60646040517f13b419a900000000000000000000000000000000000000000000000000000000815260206004820152601a60248201527f557365722068617320612070656e64696e6720726571756573740000000000006044820152fd5b60646040517f13b419a900000000000000000000000000000000000000000000000000000000815260206004820152601760248201527f557365722068617320616e206163746976652067616d650000000000000000006044820152fd5b60646040517f34460f4100000000000000000000000000000000000000000000000000000000815260206004820152601560248201527f496e76616c69642063686f73656e206e756d62657200000000000000000000006044820152fd5b506006841161031f565b60646040517f34460f4100000000000000000000000000000000000000000000000000000000815260206004820152601460248201527f42657420616d6f756e7420746f6f206c617267650000000000000000000000006044820152fd5b60646040517f34460f4100000000000000000000000000000000000000000000000000000000815260206004820152601960248201527f42657420616d6f756e742063616e6e6f74206265207a65726f000000000000006044820152fd5b50346102c45760206003193601126102c45760043573ffffffffffffffffffffffffffffffffffffffff8116908181036111265761106e61320c565b81156110fa5773ffffffffffffffffffffffffffffffffffffffff9074ffffffffffffffffffffffffffffffffffffffff006001549160081b167fffffffffffffffffffffff0000000000000000000000000000000000000000ff82161760015560081c167f8be0079c531659141344cd1fd0a4f28419497f9722a3daafe3b4186f6b6457e08380a380f35b6024837f1e4fbdf700000000000000000000000000000000000000000000000000000000815280600452fd5b8280fd5b50346102c457806003193601126102c4576020600454604051908152f35b50346102c457806003193601126102c457602060405173ffffffffffffffffffffffffffffffffffffffff7f0000000000000000000000000000000000000000000000000000000000000000168152f35b50346102c457806003193601126102c45760206040517f9f2df0fed2c77648de5860a4cc508cd0818c85b8b8a1ab4ceeef8d981c8956a68152f35b50346102c45760206003193601126102c45760043573ffffffffffffffffffffffffffffffffffffffff811681036102c25761120f90612804565b90604051918291602083016020845282518091526020604085019301915b81811061123b575050500390f35b91935091602060a06001926080875160ff815116835260ff85820151168584015263ffffffff6040820151166040840152606081015160608401520151608082015201940191019184939261122d565b50346102c457806003193601126102c4576020604051600a8152f35b50346102c45760206003193601126102c45760043573ffffffffffffffffffffffffffffffffffffffff811690818103611126576112e361320c565b6112eb61325c565b8183526002602052604083209060ff8254161561191d576003820190815492831515808091611907575b806118ee575b61186957600682015461012c810180911161183c5743118163ffffffff611347816005870154166126b1565b16421181611822575b821592611819575b508115611810575b5061178d57600182015493841561172e5787916116c9575b82547fffffffffffffffffffffffffffffffffffffffffffffffffffffffff00ff00001663fe00010017835560028301859055556007810180547fffffffffffffffffffffffffffffffffffffffffffffffffffffffffffff00ff1681556040517f91d148540000000000000000000000000000000000000000000000000000000081527f9f2df0fed2c77648de5860a4cc508cd0818c85b8b8a1ab4ceeef8d981c8956a6600482015230602482015290929073ffffffffffffffffffffffffffffffffffffffff7f00000000000000000000000000000000000000000000000000000000000000001690602081604481855afa9081156116be57899161169f575b501561165357908188923b15611126576040517f40c10f1900000000000000000000000000000000000000000000000000000000815273ffffffffffffffffffffffffffffffffffffffff9290921660048301526024820186905282908290604490829084905af18015610d325761163a575b5050600460ff825460101c1691604051926115078461262f565b835260fe602084015263ffffffff421660408401528460608401528460808401520190600a8254105f146115db578154680100000000000000008110156115ae5760ff600a6040969461158e7ff43f4cfd330c9814ec89dcb330ca1c7559745bb35a6ea4068b171116c4ea3d53999795611588866001879801855584612764565b906132c7565b5406161660ff198254161790555b82519182526020820152a26001815580f35b6024887f4e487b710000000000000000000000000000000000000000000000000000000081526041600452fd5b6115886115ed9260ff85541690612764565b600160ff8254160160ff8111610b5f57917ff43f4cfd330c9814ec89dcb330ca1c7559745bb35a6ea4068b171116c4ea3d53939160ff600a8160409616061660ff1982541617905561159c565b816116449161264b565b61164f57855f6114ed565b8580fd5b6024887fb3eebf6e0000000000000000000000000000000000000000000000000000000081527f9f2df0fed2c77648de5860a4cc508cd0818c85b8b8a1ab4ceeef8d981c8956a6600452fd5b6116b8915060203d602011610c0057610bf2818361264b565b5f61147a565b6040513d8b823e3d90fd5b8582526007602052604082207fffffffffffffffffffffffff0000000000000000000000000000000000000000815416905585825260086020526040822060ff1981541690558582526006602052611729600160408420848155016126ca565b611378565b6040517f13b419a900000000000000000000000000000000000000000000000000000000815260206004820152601160248201527f4e6f7468696e6720746f20726566756e640000000000000000000000000000006044820152606490fd5b60846040517f13b419a9000000000000000000000000000000000000000000000000000000008152602060048201526024808201527f47616d65206e6f7420656c696769626c6520666f7220666f7263652073746f7060448201527f20796574000000000000000000000000000000000000000000000000000000006064820152fd5b9050155f611360565b1591505f611358565b878a52600660205260408a205460081c60ff169150611350565b6024887f4e487b710000000000000000000000000000000000000000000000000000000081526011600452fd5b6040517f13b419a900000000000000000000000000000000000000000000000000000000815260206004820152602860248201527f52657175657374206a7573742066756c66696c6c65642c206c6574205652462060448201527f636f6d706c6574650000000000000000000000000000000000000000000000006064820152608490fd5b506006820154600a810180911161183c5743111561131b565b50848752600660205260ff604088205416611315565b6040517f13b419a900000000000000000000000000000000000000000000000000000000815260206004820152600e60248201527f4e6f206163746976652067616d650000000000000000000000000000000000006044820152606490fd5b5034610a26575f600319360112610a265761199561325c565b61199d613293565b335f52600260205260405f2060ff8154161561191d57600381018054918215611ed057825f52600660205260ff60405f20541680611eb7575b61186957600681015461012c8101809111611e8a57431163ffffffff611a01816005850154166126b1565b164211845f52600660205260ff60405f205460081c1690821592611e81575b508115611e78575b50611df457600181015491821561172e575f908482526006602052611a55600160408420848155016126ca565b8482526007602052604082207fffffffffffffffffffffffff0000000000000000000000000000000000000000815416905584825260086020526040822060ff1981541690556101007fffffffffffffffffffffffffffffffffffffffffffffffffffffffffffff000084541617835563ff0000007fffffffffffffffffffffffffffffffffffffffffffffffffffffffff00ffffff8454161783558360028401555560078101907fffffffffffffffffffffffffffffffffffffffffffffffffffffffffffff00ff825416825573ffffffffffffffffffffffffffffffffffffffff7f0000000000000000000000000000000000000000000000000000000000000000166040517f91d148540000000000000000000000000000000000000000000000000000000081527f9f2df0fed2c77648de5860a4cc508cd0818c85b8b8a1ab4ceeef8d981c8956a66004820152306024820152602081604481855afa908115611d7e575f91611dd5575b5015611d8957803b15610a26576040517f40c10f1900000000000000000000000000000000000000000000000000000000815233600482015260248101859052905f908290604490829084905af18015611d7e57611d69575b50600460ff825460101c169160405192611c358461262f565b835260ff602084015263ffffffff421660408401528460608401528460808401520190600a8254105f14611d0357815468010000000000000000811015611cd65760ff92611c908493611588846001600a9601855584612764565b5406161660ff198254161790555b60405191825260208201527ff43f4cfd330c9814ec89dcb330ca1c7559745bb35a6ea4068b171116c4ea3d5360403392a26001815580f35b6024877f4e487b710000000000000000000000000000000000000000000000000000000081526041600452fd5b611588611d159260ff85541690612764565b600160ff8254160160ff8111611d3c57600a60ff809216061660ff19825416179055611c9e565b6024857f4e487b710000000000000000000000000000000000000000000000000000000081526011600452fd5b611d769195505f9061264b565b5f935f611c1c565b6040513d5f823e3d90fd5b7fb3eebf6e000000000000000000000000000000000000000000000000000000005f527f9f2df0fed2c77648de5860a4cc508cd0818c85b8b8a1ab4ceeef8d981c8956a660045260245ffd5b611dee915060203d602011610c0057610bf2818361264b565b5f611bc3565b60846040517f13b419a900000000000000000000000000000000000000000000000000000000815260206004820152602260248201527f47616d65206e6f7420656c696769626c6520666f72207265636f76657279207960448201527f65740000000000000000000000000000000000000000000000000000000000006064820152fd5b9050155f611a28565b1591505f611a20565b7f4e487b71000000000000000000000000000000000000000000000000000000005f52601160045260245ffd5b506006810154600a8101809111611e8a574311156119d6565b60646040517f13b419a900000000000000000000000000000000000000000000000000000000815260206004820152601d60248201527f4e6f2070656e64696e67207265717565737420746f207265636f7665720000006044820152fd5b34610a26576020600319360112610a26576004355f5260066020526040805f205460ff8251918181161515835260081c1615156020820152f35b34610a26575f600319360112610a265760206040516127108152f35b34610a26575f600319360112610a2657602073ffffffffffffffffffffffffffffffffffffffff60015460081c16604051908152f35b34610a26575f600319360112610a2657611fd261320c565b611fda61325c565b611fe2613293565b600160ff19815416176001557f62e78cea01bee320cd4e420270b5ea74000d11b0c9f74754ebdbfc544b05a2586020604051338152a160015f55005b34610a26575f600319360112610a265761203661320c565b5f73ffffffffffffffffffffffffffffffffffffffff6001547fffffffffffffffffffffff0000000000000000000000000000000000000000ff811660015560081c167f8be0079c531659141344cd1fd0a4f28419497f9722a3daafe3b4186f6b6457e08280a3005b34610a26576020600319360112610a265760043573ffffffffffffffffffffffffffffffffffffffff8116809103610a26575f526002602052602060405f2060ff8154161590816120f6575b506040519015158152f35b60039150015415826120eb565b34610a26575f600319360112610a2657602060ff600154166040519015158152f35b34610a26575f600319360112610a26576020600354604051908152f35b34610a26575f600319360112610a26576020600554604051908152f35b34610a26575f600319360112610a2657602060405160ff8152f35b34610a26576020600319360112610a265760043573ffffffffffffffffffffffffffffffffffffffff8116809103610a26578015610263575f52600260205260405f2080549060ff821660018201549260ff8160181c1692600281015491600382015463ffffffff60058401541693801515968761230a575b876122fe575b8697985f979697945f9685151590816122dc575b5f99612276575b505060ff906101809b6040519b15158c52151560208c0152818160081c16151560408c015260101c1660608a0152608089015260a088015260c087015260e0860152151561010085015215156101208401521515610140830152610160820152f35b6006919c995001549061012c8201809211611e8a576101809b60ff9243119063ffffffff6122a38d6126b1565b164211816122d4575b826122cc575b50816122c4575b50989b819250612214565b90508d6122b9565b91508e6122b2565b8991506122ac565b97509550845f52600660205260405f20549560ff808860081c1697169761220d565b600681111597506121f9565b80151597506121f3565b34610a26575f600319360112610a265760206040516a31a17e847807b1bc0000008152f35b34610a26575f600319360112610a265761235161320c565b61235961325c565b60015460ff81161561239c5760ff19166001557f5db9ee0a495bf2e6ff9c91a7834c1ba4fdd244a5e8aa4e537bd38aeae4b073aa6020604051338152a160015f55005b7f8dfc202b000000000000000000000000000000000000000000000000000000005f5260045ffd5b34610a26575f600319360112610a2657602060405160fe8152f35b34610a26575f600319360112610a265760206040516a084595161401484a0000008152f35b34610a26575f600319360112610a265760206040517f3c11d16cbaffd01df69ce1c404f6340ee057498f5f00246190ea54220576a8488152f35b34610a26576040600319360112610a265760243567ffffffffffffffff8111610a265736602382011215610a265780600401359061247b8261268c565b91612489604051938461264b565b8083526024602084019160051b83010191368311610a2657602401905b828210612537578373ffffffffffffffffffffffffffffffffffffffff7f0000000000000000000000000000000000000000000000000000000000000000169081330361250757612501906124f961325c565b600435612a51565b60015f55005b507f1cf993f4000000000000000000000000000000000000000000000000000000005f523360045260245260445ffd5b81358152602091820191016124a6565b34610a26576020600319360112610a265760043573ffffffffffffffffffffffffffffffffffffffff8116809103610a26575f526002602052602060405f2060ff815416908161259c57506040519015158152f35b6003915001541515826120eb565b34610a26576020600319360112610a26576020906004355f526007825273ffffffffffffffffffffffffffffffffffffffff60405f2054168152f35b60c0810190811067ffffffffffffffff82111761260257604052565b7f4e487b71000000000000000000000000000000000000000000000000000000005f52604160045260245ffd5b60a0810190811067ffffffffffffffff82111761260257604052565b90601f7fffffffffffffffffffffffffffffffffffffffffffffffffffffffffffffffe0910116810190811067ffffffffffffffff82111761260257604052565b67ffffffffffffffff81116126025760051b60200190565b91908201809211611e8a57565b63ffffffff610e109116019063ffffffff8211611e8a57565b8054905f8155816126d9575050565b5f5260205f20908101905b8181106126ef575050565b5f81556001016126e4565b906801000000000000000081116126025781549181815582821061271d57505050565b5f5260205f2091820191015b818110612734575050565b5f8155600101612729565b90816020910312610a2657518015158103610a265790565b91908203918211611e8a57565b805482101561277d575f52600360205f20910201905f90565b7f4e487b71000000000000000000000000000000000000000000000000000000005f52603260045260245ffd5b805182101561277d5760209160051b010190565b906040516127cb8161262f565b60806002829463ffffffff815460ff8116865260ff8160081c16602087015260101c166040850152600181015460608501520154910152565b73ffffffffffffffffffffffffffffffffffffffff606091168015610263575f52600260205260405f20906004820180549182156129f65750600a8211156129ef57600a925b7fffffffffffffffffffffffffffffffffffffffffffffffffffffffffffffffe061288d6128778661268c565b95612885604051978861264b565b80875261268c565b015f5b8181106129ba575050600a83101561291a57507fffffffffffffffffffffffffffffffffffffffffffffffffffffffffffffffff82018281115f5b8481106128da57505050505090565b81611e8a57806128fe6128f86128f260019487612757565b87612764565b506127be565b61290882896127aa565b5261291381886127aa565b50016128cb565b6007015490915060ff1680612988575060ff60095b16905f91600a8101809111925b600a811061294b575050505090565b83611e8a578061296c6128f8600a61296560019587612757565b0686612764565b61297682886127aa565b5261298181876127aa565b500161293c565b7fffffffffffffffffffffffffffffffffffffffffffffffffffffffffffffffff0160ff8111611e8a5760ff9061292f565b6020906040516129c98161262f565b5f81525f838201525f60408201525f60608201525f608082015282828901015201612890565b819261284a565b9250505060405190612a0960208361264b565b5f82525f90815b828110612a1d5750505090565b602090604051612a2c8161262f565b5f81525f838201525f60408201525f848201525f608082015282828701015201612a10565b90815f52600660205260405f209182549060ff8260081c16156131ae5760ff821661315057825160ff7f000000000000000000000000000000000000000000000000000000000000000016036130f257805f52600760205273ffffffffffffffffffffffffffffffffffffffff60405f20541693841561309357845f52600260205260405f209260038401918383540361303557600160ff1981931617815501845167ffffffffffffffff811161260257612b0c81836126fa565b6020860180925f5260205f205f5b838110613021575050505060078401906101007fffffffffffffffffffffffffffffffffffffffffffffffffffffffffffff00ff83541617825560ff85541615612f915760ff855460101c1690600186015496511561277d578060069150510660018101809111611e8a5760ff16945f96868314612eca575b81547fffffffffffffffffffffffffffffffffffffffffffffffffffffffff00ff000016601888901b63ff000000161761010017825560028201889055604051926004929190612be28561262f565b845287602085015263ffffffff4216604085015260608401528760808401520190600a8254105f14612e9157815490680100000000000000008210156126025760ff92612c3c600a92611588856001889701855584612764565b5406161660ff198254161790555b6001600354016003555f8415159182612e7d575b8382526007602052604082207fffffffffffffffffffffffff0000000000000000000000000000000000000000815416905583825260086020526040822060ff1981541690558382526006602052612cbe600160408420848155016126ca565b55612d0e575b612d097fc74777e2214d32e7b4952c2ecbbfc0ec7dc3642e448c3c927261cb69d9f03650936040519384938460ff604092959493606083019683521660208201520152565b0390a2565b73ffffffffffffffffffffffffffffffffffffffff7f000000000000000000000000000000000000000000000000000000000000000016926040517f91d148540000000000000000000000000000000000000000000000000000000081527f9f2df0fed2c77648de5860a4cc508cd0818c85b8b8a1ab4ceeef8d981c8956a66004820152306024820152602081604481885afa908115611d7e575f91612e5e575b5015611d8957833b15610a26576040517f40c10f1900000000000000000000000000000000000000000000000000000000815273ffffffffffffffffffffffffffffffffffffffff8616600482015260248101829052935f908590604490829084905af1908115611d7e577fc74777e2214d32e7b4952c2ecbbfc0ec7dc3642e448c3c927261cb69d9f0365094612d0992612e4e575b50935050612cc4565b5f612e589161264b565b5f612e45565b612e77915060203d602011610c0057610bf2818361264b565b5f612daf565b612e89866004546126a4565b600455612c5e565b611588612ea39260ff85541690612764565b600160ff8254160160ff8111611e8a57600a60ff809216061660ff19825416179055612c4a565b96507f2aaaaaaaaaaaaaaaaaaaaaaaaaaaaaaaaaaaaaaaaaaaaaaaaaaaaaaaaaaaaaaa8711612f0d57600687029087820460061488151715611e8a579096612b93565b60846040517f327512f600000000000000000000000000000000000000000000000000000000815260206004820152602b60248201527f42657420616d6f756e7420746f6f206c6172676520666f72207061796f75742060448201527f63616c63756c6174696f6e0000000000000000000000000000000000000000006064820152fd5b50945091505f92508083526006602052612fb3600160408520858155016126ca565b8083526007602052604083207fffffffffffffffffffffffff00000000000000000000000000000000000000008154169055825260086020526040822060ff198154169055557fffffffffffffffffffffffffffffffffffffffffffffffffffffffffffff00ff8154169055565b600190602084519401938184015501612b1a565b60646040517f13b419a900000000000000000000000000000000000000000000000000000000815260206004820152601360248201527f52657175657374204944206d69736d61746368000000000000000000000000006044820152fd5b6040517f1726a07e00000000000000000000000000000000000000000000000000000000815260206004820152601660248201527f496e76616c696420706c617965722061646472657373000000000000000000006044820152606490fd5b60646040517f1726a07e00000000000000000000000000000000000000000000000000000000815260206004820152601b60248201527f496e76616c69642072616e646f6d20776f726473206c656e67746800000000006044820152fd5b60646040517f1726a07e00000000000000000000000000000000000000000000000000000000815260206004820152601960248201527f5265717565737420616c72656164792066756c66696c6c6564000000000000006044820152fd5b60646040517f1726a07e00000000000000000000000000000000000000000000000000000000815260206004820152601160248201527f52657175657374206e6f7420666f756e640000000000000000000000000000006044820152fd5b73ffffffffffffffffffffffffffffffffffffffff60015460081c16330361323057565b7f118cdaa7000000000000000000000000000000000000000000000000000000005f523360045260245ffd5b60025f541461326b5760025f55565b7f3ee5aeb5000000000000000000000000000000000000000000000000000000005f5260045ffd5b60ff6001541661329f57565b7fd93c0665000000000000000000000000000000000000000000000000000000005f5260045ffd5b91906133605760808160ff8060029451161660ff19855416178455602081015161ff0085549160081b16807fffffffffffffffffffffffffffffffffffffffffffffffffffffffffffff00ff83161786557fffffffffffffffffffffffffffffffffffffffffffffffffffff0000000000ff65ffffffff0000604085015160101b16921617178455606081015160018501550151910155565b7f4e487b71000000000000000000000000000000000000000000000000000000005f525f60045260245ffdfea264697066735822122041bad92ee52539a2efc2850b59a948eae9c144f65fa34677da566ac4ba40b16764736f6c634300081c0033","linkReferences":{}},"methodIdentifiers":{"BURNER_ROLE()":"282c51f3","DENOMINATOR()":"918f8674","MAX_BET_AMOUNT()":"309167f5","MAX_HISTORY_SIZE()":"c1066251","MAX_POSSIBLE_PAYOUT()":"4689b441","MINTER_ROLE()":"d5391393","RESULT_FORCE_STOPPED()":"38f8bc6d","RESULT_RECOVERED()":"57816f3e","canStartNewGame(address)":"5d424b85","forceStopGame(address)":"b52a0855","gamaToken()":"d56ec8c9","getBetHistory(address)":"ce84a53b","getGameStatus(address)":"54e4437e","getPlayerForRequest(uint256)":"04243151","getUserData(address)":"ffc9896b","hasPendingRequest(address)":"0c99375d","owner()":"8da5cb5b","pause()":"8456cb59","paused()":"5c975abb","playDice(uint8,uint256)":"f3b5a671","rawFulfillRandomWords(uint256,uint256[])":"1fe543e3","recoverOwnStuckGame()":"a20ff9fc","renounceOwnership()":"715018a6","s_requests(uint256)":"a168fa89","totalGamesPlayed()":"5c492129","totalPayoutAmount()":"e7efcfc2","totalWageredAmount()":"5bdb2e1b","transferOwnership(address)":"f2fde38b","unpause()":"3f4ba83a"},"id":35}