{
  "abi": [
    {
      "type": "constructor",
      "inputs": [
        {
          "name": "_gamaTokenAddress",
          "type": "address",
          "internalType": "address"
        },
        {
          "name": "vrfCoordinator",
          "type": "address",
          "internalType": "address"
        },
        {
          "name": "subscriptionId",
          "type": "uint64",
          "internalType": "uint64"
        },
        {
          "name": "keyHash",
          "type": "bytes32",
          "internalType": "bytes32"
        },
        {
          "name": "_callbackGasLimit",
          "type": "uint32",
          "internalType": "uint32"
        },
        {
          "name": "_requestConfirmations",
          "type": "uint16",
          "internalType": "uint16"
        },
        {
          "name": "_numWords",
          "type": "uint8",
          "internalType": "uint8"
        }
      ],
      "stateMutability": "nonpayable"
    },
    {
      "type": "function",
      "name": "BURNER_ROLE",
      "inputs": [],
      "outputs": [
        {
          "name": "",
          "type": "bytes32",
          "internalType": "bytes32"
        }
      ],
      "stateMutability": "view"
    },
    {
      "type": "function",
      "name": "MAX_BET_AMOUNT",
      "inputs": [],
      "outputs": [
        {
          "name": "",
          "type": "uint256",
          "internalType": "uint256"
        }
      ],
      "stateMutability": "view"
    },
    {
      "type": "function",
      "name": "MAX_HISTORY_SIZE",
      "inputs": [],
      "outputs": [
        {
          "name": "",
          "type": "uint8",
          "internalType": "uint8"
        }
      ],
      "stateMutability": "view"
    },
    {
      "type": "function",
      "name": "MINTER_ROLE",
      "inputs": [],
      "outputs": [
        {
          "name": "",
          "type": "bytes32",
          "internalType": "bytes32"
        }
      ],
      "stateMutability": "view"
    },
    {
      "type": "function",
      "name": "RESULT_FORCE_STOPPED",
      "inputs": [],
      "outputs": [
        {
          "name": "",
          "type": "uint8",
          "internalType": "uint8"
        }
      ],
      "stateMutability": "view"
    },
    {
      "type": "function",
      "name": "RESULT_RECOVERED",
      "inputs": [],
      "outputs": [
        {
          "name": "",
          "type": "uint8",
          "internalType": "uint8"
        }
      ],
      "stateMutability": "view"
    },
    {
      "type": "function",
      "name": "canStartNewGame",
      "inputs": [
        {
          "name": "player",
          "type": "address",
          "internalType": "address"
        }
      ],
      "outputs": [
        {
          "name": "",
          "type": "bool",
          "internalType": "bool"
        }
      ],
      "stateMutability": "view"
    },
    {
      "type": "function",
      "name": "forceStopGame",
      "inputs": [
        {
          "name": "player",
          "type": "address",
          "internalType": "address"
        }
      ],
      "outputs": [],
      "stateMutability": "nonpayable"
    },
    {
      "type": "function",
      "name": "gamaToken",
      "inputs": [],
      "outputs": [
        {
          "name": "",
          "type": "address",
          "internalType": "contract IERC20"
        }
      ],
      "stateMutability": "view"
    },
    {
      "type": "function",
      "name": "getBetHistory",
      "inputs": [
        {
          "name": "player",
          "type": "address",
          "internalType": "address"
        }
      ],
      "outputs": [
        {
          "name": "",
          "type": "tuple[]",
          "internalType": "struct BetHistory[]",
          "components": [
            {
              "name": "chosenNumber",
              "type": "uint8",
              "internalType": "uint8"
            },
            {
              "name": "rolledNumber",
              "type": "uint8",
              "internalType": "uint8"
            },
            {
              "name": "timestamp",
              "type": "uint32",
              "internalType": "uint32"
            },
            {
              "name": "amount",
              "type": "uint256",
              "internalType": "uint256"
            },
            {
              "name": "payout",
              "type": "uint256",
              "internalType": "uint256"
            }
          ]
        }
      ],
      "stateMutability": "view"
    },
    {
      "type": "function",
      "name": "getGameStatus",
      "inputs": [
        {
          "name": "player",
          "type": "address",
          "internalType": "address"
        }
      ],
      "outputs": [
        {
          "name": "isActive",
          "type": "bool",
          "internalType": "bool"
        },
        {
          "name": "isWin",
          "type": "bool",
          "internalType": "bool"
        },
        {
          "name": "isCompleted",
          "type": "bool",
          "internalType": "bool"
        },
        {
          "name": "chosenNumber",
          "type": "uint8",
          "internalType": "uint8"
        },
        {
          "name": "amount",
          "type": "uint256",
          "internalType": "uint256"
        },
        {
          "name": "result",
          "type": "uint8",
          "internalType": "uint8"
        },
        {
          "name": "payout",
          "type": "uint256",
          "internalType": "uint256"
        },
        {
          "name": "requestId",
          "type": "uint256",
          "internalType": "uint256"
        },
        {
          "name": "requestExists",
          "type": "bool",
          "internalType": "bool"
        },
        {
          "name": "requestProcessed",
          "type": "bool",
          "internalType": "bool"
        },
        {
          "name": "recoveryEligible",
          "type": "bool",
          "internalType": "bool"
        },
        {
          "name": "lastPlayTimestamp",
          "type": "uint256",
          "internalType": "uint256"
        }
      ],
      "stateMutability": "view"
    },
    {
      "type": "function",
      "name": "getPlayerForRequest",
      "inputs": [
        {
          "name": "requestId",
          "type": "uint256",
          "internalType": "uint256"
        }
      ],
      "outputs": [
        {
          "name": "",
          "type": "address",
          "internalType": "address"
        }
      ],
      "stateMutability": "view"
    },
    {
      "type": "function",
      "name": "getUserData",
      "inputs": [
        {
          "name": "player",
          "type": "address",
          "internalType": "address"
        }
      ],
      "outputs": [
        {
          "name": "gameState",
          "type": "tuple",
          "internalType": "struct GameState",
          "components": [
            {
              "name": "isActive",
              "type": "bool",
              "internalType": "bool"
            },
            {
              "name": "completed",
              "type": "bool",
              "internalType": "bool"
            },
            {
              "name": "chosenNumber",
              "type": "uint8",
              "internalType": "uint8"
            },
            {
              "name": "result",
              "type": "uint8",
              "internalType": "uint8"
            },
            {
              "name": "amount",
              "type": "uint256",
              "internalType": "uint256"
            },
            {
              "name": "payout",
              "type": "uint256",
              "internalType": "uint256"
            }
          ]
        },
        {
          "name": "lastPlayed",
          "type": "uint256",
          "internalType": "uint256"
        }
      ],
      "stateMutability": "view"
    },
    {
      "type": "function",
      "name": "hasPendingRequest",
      "inputs": [
        {
          "name": "player",
          "type": "address",
          "internalType": "address"
        }
      ],
      "outputs": [
        {
          "name": "",
          "type": "bool",
          "internalType": "bool"
        }
      ],
      "stateMutability": "view"
    },
    {
      "type": "function",
      "name": "owner",
      "inputs": [],
      "outputs": [
        {
          "name": "",
          "type": "address",
          "internalType": "address"
        }
      ],
      "stateMutability": "view"
    },
    {
      "type": "function",
      "name": "pause",
      "inputs": [],
      "outputs": [],
      "stateMutability": "nonpayable"
    },
    {
      "type": "function",
      "name": "paused",
      "inputs": [],
      "outputs": [
        {
          "name": "",
          "type": "bool",
          "internalType": "bool"
        }
      ],
      "stateMutability": "view"
    },
    {
      "type": "function",
      "name": "playDice",
      "inputs": [
        {
          "name": "chosenNumber",
          "type": "uint8",
          "internalType": "uint8"
        },
        {
          "name": "amount",
          "type": "uint256",
          "internalType": "uint256"
        }
      ],
      "outputs": [
        {
          "name": "requestId",
          "type": "uint256",
          "internalType": "uint256"
        }
      ],
      "stateMutability": "nonpayable"
    },
    {
      "type": "function",
      "name": "rawFulfillRandomWords",
      "inputs": [
        {
          "name": "requestId",
          "type": "uint256",
          "internalType": "uint256"
        },
        {
          "name": "randomWords",
          "type": "uint256[]",
          "internalType": "uint256[]"
        }
      ],
      "outputs": [],
      "stateMutability": "nonpayable"
    },
    {
      "type": "function",
      "name": "recoverOwnStuckGame",
      "inputs": [],
      "outputs": [],
      "stateMutability": "nonpayable"
    },
    {
      "type": "function",
      "name": "renounceOwnership",
      "inputs": [],
      "outputs": [],
      "stateMutability": "nonpayable"
    },
    {
      "type": "function",
      "name": "s_requests",
      "inputs": [
        {
          "name": "",
          "type": "uint256",
          "internalType": "uint256"
        }
      ],
      "outputs": [
        {
          "name": "fulfilled",
          "type": "bool",
          "internalType": "bool"
        },
        {
          "name": "exists",
          "type": "bool",
          "internalType": "bool"
        }
      ],
      "stateMutability": "view"
    },
    {
      "type": "function",
      "name": "totalGamesPlayed",
      "inputs": [],
      "outputs": [
        {
          "name": "",
          "type": "uint256",
          "internalType": "uint256"
        }
      ],
      "stateMutability": "view"
    },
    {
      "type": "function",
      "name": "totalPayoutAmount",
      "inputs": [],
      "outputs": [
        {
          "name": "",
          "type": "uint256",
          "internalType": "uint256"
        }
      ],
      "stateMutability": "view"
    },
    {
      "type": "function",
      "name": "totalWageredAmount",
      "inputs": [],
      "outputs": [
        {
          "name": "",
          "type": "uint256",
          "internalType": "uint256"
        }
      ],
      "stateMutability": "view"
    },
    {
      "type": "function",
      "name": "transferOwnership",
      "inputs": [
        {
          "name": "newOwner",
          "type": "address",
          "internalType": "address"
        }
      ],
      "outputs": [],
      "stateMutability": "nonpayable"
    },
    {
      "type": "function",
      "name": "unpause",
      "inputs": [],
      "outputs": [],
      "stateMutability": "nonpayable"
    },
    {
      "type": "event",
      "name": "OwnershipTransferred",
      "inputs": [
        {
          "name": "previousOwner",
          "type": "address",
          "indexed": true,
          "internalType": "address"
        },
        {
          "name": "newOwner",
          "type": "address",
          "indexed": true,
          "internalType": "address"
        }
      ],
      "anonymous": false
    },
    {
      "type": "event",
      "name": "Paused",
      "inputs": [
        {
          "name": "account",
          "type": "address",
          "indexed": false,
          "internalType": "address"
        }
      ],
      "anonymous": false
    },
    {
      "type": "event",
      "name": "Unpaused",
      "inputs": [
        {
          "name": "account",
          "type": "address",
          "indexed": false,
          "internalType": "address"
        }
      ],
      "anonymous": false
    },
    {
      "type": "error",
      "name": "EnforcedPause",
      "inputs": []
    },
    {
      "type": "error",
      "name": "ExpectedPause",
      "inputs": []
    },
    {
      "type": "error",
      "name": "GameError",
      "inputs": [
        {
          "name": "reason",
          "type": "string",
          "internalType": "string"
        }
      ]
    },
    {
      "type": "error",
      "name": "InsufficientAllowance",
      "inputs": [
        {
          "name": "required",
          "type": "uint256",
          "internalType": "uint256"
        },
        {
          "name": "allowed",
          "type": "uint256",
          "internalType": "uint256"
        }
      ]
    },
    {
      "type": "error",
      "name": "InsufficientUserBalance",
      "inputs": [
        {
          "name": "required",
          "type": "uint256",
          "internalType": "uint256"
        },
        {
          "name": "available",
          "type": "uint256",
          "internalType": "uint256"
        }
      ]
    },
    {
      "type": "error",
      "name": "InvalidBetParameters",
      "inputs": [
        {
          "name": "reason",
          "type": "string",
          "internalType": "string"
        }
      ]
    },
    {
      "type": "error",
      "name": "MissingContractRole",
      "inputs": [
        {
          "name": "role",
          "type": "bytes32",
          "internalType": "bytes32"
        }
      ]
    },
    {
      "type": "error",
      "name": "OnlyCoordinatorCanFulfill",
      "inputs": [
        {
          "name": "have",
          "type": "address",
          "internalType": "address"
        },
        {
          "name": "want",
          "type": "address",
          "internalType": "address"
        }
      ]
    },
    {
      "type": "error",
      "name": "OwnableInvalidOwner",
      "inputs": [
        {
          "name": "owner",
          "type": "address",
          "internalType": "address"
        }
      ]
    },
    {
      "type": "error",
      "name": "OwnableUnauthorizedAccount",
      "inputs": [
        {
          "name": "account",
          "type": "address",
          "internalType": "address"
        }
      ]
    },
    {
      "type": "error",
      "name": "PayoutCalculationError",
      "inputs": [
        {
          "name": "message",
          "type": "string",
          "internalType": "string"
        }
      ]
    },
    {
      "type": "error",
      "name": "ReentrancyGuardReentrantCall",
      "inputs": []
    },
    {
      "type": "error",
      "name": "TransferFailed",
      "inputs": [
        {
          "name": "reason",
          "type": "string",
          "internalType": "string"
        }
      ]
    },
    {
      "type": "error",
      "name": "VRFError",
      "inputs": [
        {
          "name": "reason",
          "type": "string",
          "internalType": "string"
        }
      ]
    }
  ],
  "bytecode": {
    "object": "0x6101803461031757601f61335338819003918201601f19168301916001600160401b0383118484101761031b5780849260e094604052833981010312610317576100488161032f565b906100556020820161032f565b60408201519092906001600160401b03811681036103175760608301519060808401519263ffffffff8416908185036103175760a08601519561ffff871687036103175760c001519660ff8816908189036103175760015f558060805233156103045760018054610100600160a81b0319811633600881811b610100600160a81b031692909217909355604051959291901c6001600160a01b03167f8be0079c531659141344cd1fd0a4f28419497f9722a3daafe3b4186f6b6457e05f80a36001600160a01b03169283156102c157506001600160a01b031692831561026c571561021c57156101d65760a05260c05260e0526101005261012052610140526101605260405161300f90816103448239608051816120ad015260a05181818161033901528181610f26015281816110e50152818161170d0152612904015260c051816106a4015260e051816105e2015261010051816105b3015261012051816106380152610140518161060c01526101605181818161066101526126980152f35b6040516334460f4160e01b815260206004820152601e60248201527f4e756d626572206f6620776f7264732063616e6e6f74206265207a65726f00006044820152606490fd5b6040516334460f4160e01b815260206004820152602160248201527f43616c6c6261636b20676173206c696d69742063616e6e6f74206265207a65726044820152606f60f81b6064820152608490fd5b6040516334460f4160e01b815260206004820152602660248201527f56524620636f6f7264696e61746f7220616464726573732063616e6e6f74206260448201526565207a65726f60d01b6064820152608490fd5b6334460f4160e01b815260206004820152601c60248201527f546f6b656e20616464726573732063616e6e6f74206265207a65726f000000006044820152606490fd5b631e4fbdf760e01b5f525f60045260245ffd5b5f80fd5b634e487b7160e01b5f52604160045260245ffd5b51906001600160a01b03821682036103175756fe6080806040526004361015610012575f80fd5b5f905f3560e01c9081630424315114612192575080630c99375d1461212f5780631fe543e314612026578063282c51f314611fec578063309167f514611fc757806338f8bc6d14611fac5780633f4ba83a14611f2d57806354e4437e14611d7257806357816f3e14611d575780635bdb2e1b14611d3a5780635c49212914611d1d5780635c975abb14611cfb5780635d424b8514611c97578063715018a614611c165780638456cb5914611bbe5780638da5cb5b14611b88578063a168fa8914611b4e578063a20ff9fc1461166d578063b52a085514611058578063c10662511461103c578063ce84a53b14610f85578063d539139314610f4a578063d56ec8c914610ef9578063e7efcfc214610edb578063f2fde38b14610de3578063f3b5a671146102b15763ffc9896b14610147575f80fd5b346102ae5760206003193601126102ae5760043573ffffffffffffffffffffffffffffffffffffffff81168091036102ac578160a0604051610188816121ce565b8281528260208201528260408201528260608201528260808201520152801561024d578160409160e0935260026020522063ffffffff6005820154166040516101d0816121ce565b82549260ff8085161515948584528160208501818360081c16151581526040860190828460101c16825282606088019460181c16845260a0600260018801549760808a0198895201549701968752604051988952511515602089015251166040870152511660608501525160808401525160a083015260c0820152f35b6040517f34460f4100000000000000000000000000000000000000000000000000000000815260206004820152601660248201527f496e76616c696420706c617965722061646472657373000000000000000000006044820152606490fd5b505b80fd5b50346102ae5760406003193601126102ae5760043560ff8116918282036102ae576024356102dd612ea9565b6102e5612fa5565b8015610d85576a084595161401484a0000008111610d2757600184108015610d1d575b610cbf573382526002602052604082209060ff825416610c615773ffffffffffffffffffffffffffffffffffffffff7f0000000000000000000000000000000000000000000000000000000000000000166040517f70a08231000000000000000000000000000000000000000000000000000000008152336004820152602081602481855afa908115610a16579083918691610c2c575b5010610b81576040517fdd62ed3e000000000000000000000000000000000000000000000000000000008152336004820152306024820152602081604481855afa908115610a16579083918691610b4c575b5010610a8c576040517f91d148540000000000000000000000000000000000000000000000000000000081527f3c11d16cbaffd01df69ce1c404f6340ee057498f5f00246190ea54220576a8486004820152306024820152602081604481855afa908115610a16578591610a6d575b5015610a21576040517f91d148540000000000000000000000000000000000000000000000000000000081527f9f2df0fed2c77648de5860a4cc508cd0818c85b8b8a1ab4ceeef8d981c8956a66004820152306024820152602081604481855afa908115610a165785916109e7575b501561099b57803b15610997576040517f9dc29fac0000000000000000000000000000000000000000000000000000000081523360048201526024810183905290849081908390604490829084905af19182610982575b505061058a5760646040517f12dfddb300000000000000000000000000000000000000000000000000000000815260206004820152601160248201527f546f6b656e206275726e206661696c65640000000000000000000000000000006044820152fd5b604051937f5d3b1d300000000000000000000000000000000000000000000000000000000085527f0000000000000000000000000000000000000000000000000000000000000000600486015267ffffffffffffffff7f000000000000000000000000000000000000000000000000000000000000000016602486015261ffff7f000000000000000000000000000000000000000000000000000000000000000016604486015263ffffffff7f000000000000000000000000000000000000000000000000000000000000000016606486015260ff7f000000000000000000000000000000000000000000000000000000000000000016608486015260208560a4818773ffffffffffffffffffffffffffffffffffffffff7f0000000000000000000000000000000000000000000000000000000000000000165af194851561097757849561093f575b506020956040516106e58882612233565b8581525f3681376040516060810181811067ffffffffffffffff82111761091257906001916040528781528981018281526040820193845289895260068b52604089209151151560ff60ff19845416911515161782555115157fffffffffffffffffffffffffffffffffffffffffffffffffffffffffffff00ff61ff00835492151560081b1691161781550190519081519167ffffffffffffffff8311610912579089839261079a8b989a99979695846122e2565b01908752898720875b8381106108fd575050505094600392918560a060019887835260078c5260408320337fffffffffffffffffffffffff000000000000000000000000000000000000000082541617905587835260088c52604083208a60ff198254161790556005860163ffffffff42167fffffffffffffffffffffffffffffffffffffffffffffffffffffffff0000000082541617905543600687015560405190610846826121ce565b8a8252838d830152604082015282606082015284608082015201528660ff198454161783557fffffffffffffffffffffffffffffffffffffffffffffffffffffffffffff00ff83541683557fffffffffffffffffffffffffffffffffffffffffffffffffffffffffff00ffff62ff000084549260101b1691161782557fffffffffffffffffffffffffffffffffffffffffffffffffffffffff00ffffff825416825585820155836002820155015555604051908152f35b8251818301558a9750918b01916001016107a3565b6024887f4e487b710000000000000000000000000000000000000000000000000000000081526041600452fd5b9094506020813d60201161096f575b8161095b60209383612233565b8101031261096b5751935f6106d4565b5f80fd5b3d915061094e565b6040513d86823e3d90fd5b8161098c91612233565b61099757835f610526565b8380fd5b6024847fb3eebf6e0000000000000000000000000000000000000000000000000000000081527f9f2df0fed2c77648de5860a4cc508cd0818c85b8b8a1ab4ceeef8d981c8956a6600452fd5b610a09915060203d602011610a0f575b610a018183612233565b810190612327565b5f6104cf565b503d6109f7565b6040513d87823e3d90fd5b6024847fb3eebf6e0000000000000000000000000000000000000000000000000000000081527f3c11d16cbaffd01df69ce1c404f6340ee057498f5f00246190ea54220576a848600452fd5b610a86915060203d602011610a0f57610a018183612233565b5f610460565b6040517fdd62ed3e0000000000000000000000000000000000000000000000000000000081523360048201523060248201529084908390602090849060449082905afa908115610b41578291610b0c575b604493507f2a1b2dd8000000000000000000000000000000000000000000000000000000008352600452602452fd5b90506020833d602011610b39575b81610b2760209383612233565b8101031261096b576044925190610add565b3d9150610b1a565b6040513d84823e3d90fd5b9150506020813d602011610b79575b81610b6860209383612233565b8101031261096b578290515f6103f1565b3d9150610b5b565b60249160208592604051948580927f70a082310000000000000000000000000000000000000000000000000000000082523360048301525afa908115610b41578291610bf7575b604493507f5f504d20000000000000000000000000000000000000000000000000000000008352600452602452fd5b90506020833d602011610c24575b81610c1260209383612233565b8101031261096b576044925190610bc8565b3d9150610c05565b9150506020813d602011610c59575b81610c4860209383612233565b8101031261096b578290515f61039f565b3d9150610c3b565b60646040517f13b419a900000000000000000000000000000000000000000000000000000000815260206004820152601760248201527f557365722068617320616e206163746976652067616d650000000000000000006044820152fd5b60646040517f34460f4100000000000000000000000000000000000000000000000000000000815260206004820152601560248201527f496e76616c69642063686f73656e206e756d62657200000000000000000000006044820152fd5b5060068411610308565b60646040517f34460f4100000000000000000000000000000000000000000000000000000000815260206004820152601460248201527f42657420616d6f756e7420746f6f206c617267650000000000000000000000006044820152fd5b60646040517f34460f4100000000000000000000000000000000000000000000000000000000815260206004820152601960248201527f42657420616d6f756e742063616e6e6f74206265207a65726f000000000000006044820152fd5b50346102ae5760206003193601126102ae5760043573ffffffffffffffffffffffffffffffffffffffff811690818103610ed757610e1f612e59565b8115610eab5773ffffffffffffffffffffffffffffffffffffffff9074ffffffffffffffffffffffffffffffffffffffff006001549160081b167fffffffffffffffffffffff0000000000000000000000000000000000000000ff82161760015560081c167f8be0079c531659141344cd1fd0a4f28419497f9722a3daafe3b4186f6b6457e08380a380f35b6024837f1e4fbdf700000000000000000000000000000000000000000000000000000000815280600452fd5b8280fd5b50346102ae57806003193601126102ae576020600454604051908152f35b50346102ae57806003193601126102ae57602060405173ffffffffffffffffffffffffffffffffffffffff7f0000000000000000000000000000000000000000000000000000000000000000168152f35b50346102ae57806003193601126102ae5760206040517f9f2df0fed2c77648de5860a4cc508cd0818c85b8b8a1ab4ceeef8d981c8956a68152f35b50346102ae5760206003193601126102ae5760043573ffffffffffffffffffffffffffffffffffffffff811681036102ac57610fc090612419565b90604051918291602083016020845282518091526020604085019301915b818110610fec575050500390f35b91935091602060a06001926080875160ff815116835260ff85820151168584015263ffffffff60408201511660408401526060810151606084015201516080820152019401910191849392610fde565b50346102ae57806003193601126102ae576020604051600a8152f35b50346102ae5760206003193601126102ae5760043573ffffffffffffffffffffffffffffffffffffffff8116808203610ed757611093612e59565b61109b612ea9565b825260026020526040822090815460ff81161561160e5760018301549182156115af5760038401918254908161145e575b505073ffffffffffffffffffffffffffffffffffffffff7f0000000000000000000000000000000000000000000000000000000000000000166040517f91d148540000000000000000000000000000000000000000000000000000000081527f9f2df0fed2c77648de5860a4cc508cd0818c85b8b8a1ab4ceeef8d981c8956a66004820152306024820152602081604481855afa908115611453578791611434575b50156113e8578086913b156102ac576040517f40c10f1900000000000000000000000000000000000000000000000000000000815273ffffffffffffffffffffffffffffffffffffffff9390931660048401526024830185905281908390604490829084905af191826113cf575b50506112405760646040517f12dfddb300000000000000000000000000000000000000000000000000000000815260206004820152601f60248201527f546f6b656e206d696e74206661696c6564206f6e20666f7263652073746f70006044820152fd5b839061124d60035461233f565b60035561125c8360055461228c565b60055561126b8360045461228c565b600455835463fe0001007fffffffffffffffffffffffffffffffffffffffffffffffffffffffff00ff00ff90911617845560028401839055558154604051919060101c60ff166112ba83612217565b825260fe602083015263ffffffff4216604083015280606083015260808201526004820190600a8254105f146113645781546801000000000000000081101561133757600a60ff9361131f859461131985600160079701855584612379565b90612ee0565b5406930192161660ff198254161790555b6001815580f35b6024857f4e487b710000000000000000000000000000000000000000000000000000000081526041600452fd5b611319600761137b9394019360ff85541690612379565b600160ff8254160160ff81116113a257600a60ff809216061660ff19825416179055611330565b6024837f4e487b710000000000000000000000000000000000000000000000000000000081526011600452fd5b816113d991612233565b6113e457845f6111dc565b8480fd5b6024867fb3eebf6e0000000000000000000000000000000000000000000000000000000081527f9f2df0fed2c77648de5860a4cc508cd0818c85b8b8a1ab4ceeef8d981c8956a6600452fd5b61144d915060203d602011610a0f57610a018183612233565b5f61116e565b6040513d89823e3d90fd5b60ff19168555808652600660205260ff60408720541680611569575b6114e4578086526007602052604086207fffffffffffffffffffffffff0000000000000000000000000000000000000000815416905580865260086020526040862060ff198154169055855260066020526114dd600160408720878155016122b2565b5f806110cc565b6040517f13b419a900000000000000000000000000000000000000000000000000000000815260206004820152602860248201527f52657175657374206a7573742066756c66696c6c65642c206c6574205652462060448201527f636f6d706c6574650000000000000000000000000000000000000000000000006064820152608490fd5b506006850154600a81018091116115825743111561147a565b6024877f4e487b710000000000000000000000000000000000000000000000000000000081526011600452fd5b6040517f13b419a900000000000000000000000000000000000000000000000000000000815260206004820152601160248201527f4e6f7468696e6720746f20726566756e640000000000000000000000000000006044820152606490fd5b6040517f13b419a900000000000000000000000000000000000000000000000000000000815260206004820152600e60248201527f4e6f206163746976652067616d650000000000000000000000000000000000006044820152606490fd5b503461096b575f60031936011261096b57611686612ea9565b335f52600260205260405f20805460ff81161561160e5760068201545f9161012c8201808311611a51574311611b45575b600384019182549182151594858096611b2f575b611b27575b801580611b0a575b611b02575b15611a7e5760018601549485156115af576119b2575b50505073ffffffffffffffffffffffffffffffffffffffff7f0000000000000000000000000000000000000000000000000000000000000000166040517f91d148540000000000000000000000000000000000000000000000000000000081527f9f2df0fed2c77648de5860a4cc508cd0818c85b8b8a1ab4ceeef8d981c8956a66004820152306024820152602081604481855afa9081156119a7575f91611988575b501561193c57803b1561096b576040517f40c10f1900000000000000000000000000000000000000000000000000000000815233600482015260248101849052905f908290604490829084905af19081611927575b5061184e5760646040517f12dfddb300000000000000000000000000000000000000000000000000000000815260206004820152601b60248201527f546f6b656e206d696e74206661696c6564206f6e20726566756e6400000000006044820152fd5b839061185b60035461233f565b60035561186a8360055461228c565b6005556118798360045461228c565b600455835463ff0001007fffffffffffffffffffffffffffffffffffffffffffffffffffffffff00ff00ff90911617845560028401839055558154604051919060101c60ff166118c883612217565b825260ff602083015263ffffffff4216604083015280606083015260808201526004820190600a8254105f146113645781546801000000000000000081101561133757600a60ff9361131f859461131985600160079701855584612379565b6119349195505f90612233565b5f935f6117eb565b7fb3eebf6e000000000000000000000000000000000000000000000000000000005f527f9f2df0fed2c77648de5860a4cc508cd0818c85b8b8a1ab4ceeef8d981c8956a660045260245ffd5b6119a1915060203d602011610a0f57610a018183612233565b5f611796565b6040513d5f823e3d90fd5b60ff19168555815f52600660205260ff60405f2054169081611a3b575b506114e457805f52600760205260405f207fffffffffffffffffffffffff00000000000000000000000000000000000000008154169055805f52600860205260405f2060ff1981541690555f526006602052611a33600160405f205f8155016122b2565b5f80806116f3565b9050600a8101809111611a51574311155f6119cf565b7f4e487b71000000000000000000000000000000000000000000000000000000005f52601160045260245ffd5b60846040517f13b419a900000000000000000000000000000000000000000000000000000000815260206004820152602260248201527f47616d65206e6f7420656c696769626c6520666f72207265636f76657279207960448201527f65740000000000000000000000000000000000000000000000000000000000006064820152fd5b5060016116dd565b5063ffffffff611b1f8160058a015416612299565b1642116116d8565b5060016116d0565b50835f52600660205260ff60405f2054166116cb565b600192506116b7565b3461096b57602060031936011261096b576004355f5260066020526040805f205460ff8251918181161515835260081c1615156020820152f35b3461096b575f60031936011261096b57602073ffffffffffffffffffffffffffffffffffffffff60015460081c16604051908152f35b3461096b575f60031936011261096b57611bd6612e59565b611bde612fa5565b600160ff19815416176001557f62e78cea01bee320cd4e420270b5ea74000d11b0c9f74754ebdbfc544b05a2586020604051338152a1005b3461096b575f60031936011261096b57611c2e612e59565b5f73ffffffffffffffffffffffffffffffffffffffff6001547fffffffffffffffffffffff0000000000000000000000000000000000000000ff811660015560081c167f8be0079c531659141344cd1fd0a4f28419497f9722a3daafe3b4186f6b6457e08280a3005b3461096b57602060031936011261096b5760043573ffffffffffffffffffffffffffffffffffffffff811680910361096b575f526002602052602060405f2060ff815416159081611cee575b506040519015158152f35b6003915001541582611ce3565b3461096b575f60031936011261096b57602060ff600154166040519015158152f35b3461096b575f60031936011261096b576020600354604051908152f35b3461096b575f60031936011261096b576020600554604051908152f35b3461096b575f60031936011261096b57602060405160ff8152f35b3461096b57602060031936011261096b5760043573ffffffffffffffffffffffffffffffffffffffff811680910361096b57801561024d575f52600260205260405f2080549060ff8216908160018201549160ff8560181c1692600282015460038301549063ffffffff600585015416958115159384611f23575b84611f17575b5f945f968515159081611ef5575b5f99611e6a575b50506101809a60ff916040519b15158c52151560208c0152818160081c16151560408c015260101c1660608a0152608089015260a088015260c087015260e0860152151561010085015215156101208401521515610140830152610160820152f35b9198509a60065f9201549161012c8301809311611a51576101809c60ff934311611eec575b80611ee5575b80611ede575b611ed6575b801580611ebf575b611eb7575b9891819c50611e08565b506001611ead565b5063ffffffff611ece8c612299565b164211611ea8565b506001611ea0565b5088611e9b565b5087611e95565b60019150611e8f565b97509550845f52600660205260405f20549560ff808860081c16971697611e01565b60068211159450611df3565b8115159450611ded565b3461096b575f60031936011261096b57611f45612e59565b60015460ff811615611f845760ff19166001557f5db9ee0a495bf2e6ff9c91a7834c1ba4fdd244a5e8aa4e537bd38aeae4b073aa6020604051338152a1005b7f8dfc202b000000000000000000000000000000000000000000000000000000005f5260045ffd5b3461096b575f60031936011261096b57602060405160fe8152f35b3461096b575f60031936011261096b5760206040516a084595161401484a0000008152f35b3461096b575f60031936011261096b5760206040517f3c11d16cbaffd01df69ce1c404f6340ee057498f5f00246190ea54220576a8488152f35b3461096b57604060031936011261096b5760243567ffffffffffffffff811161096b573660238201121561096b5780600401359061206382612274565b916120716040519384612233565b8083526024602084019160051b8301019136831161096b57602401905b82821061211f578373ffffffffffffffffffffffffffffffffffffffff7f000000000000000000000000000000000000000000000000000000000000000016908133036120ef576120e9906120e1612ea9565b600435612666565b60015f55005b507f1cf993f4000000000000000000000000000000000000000000000000000000005f523360045260245260445ffd5b813581526020918201910161208e565b3461096b57602060031936011261096b5760043573ffffffffffffffffffffffffffffffffffffffff811680910361096b575f526002602052602060405f2060ff815416908161218457506040519015158152f35b600391500154151582611ce3565b3461096b57602060031936011261096b576020906004355f526007825273ffffffffffffffffffffffffffffffffffffffff60405f2054168152f35b60c0810190811067ffffffffffffffff8211176121ea57604052565b7f4e487b71000000000000000000000000000000000000000000000000000000005f52604160045260245ffd5b60a0810190811067ffffffffffffffff8211176121ea57604052565b90601f7fffffffffffffffffffffffffffffffffffffffffffffffffffffffffffffffe0910116810190811067ffffffffffffffff8211176121ea57604052565b67ffffffffffffffff81116121ea5760051b60200190565b91908201809211611a5157565b63ffffffff610e109116019063ffffffff8211611a5157565b8054905f8155816122c1575050565b5f5260205f20908101905b8181106122d7575050565b5f81556001016122cc565b906801000000000000000081116121ea5781549181815582821061230557505050565b5f5260205f2091820191015b81811061231c575050565b5f8155600101612311565b9081602091031261096b5751801515810361096b5790565b7fffffffffffffffffffffffffffffffffffffffffffffffffffffffffffffffff8114611a515760010190565b91908203918211611a5157565b8054821015612392575f52600360205f20910201905f90565b7f4e487b71000000000000000000000000000000000000000000000000000000005f52603260045260245ffd5b80518210156123925760209160051b010190565b906040516123e081612217565b60806002829463ffffffff815460ff8116865260ff8160081c16602087015260101c166040850152600181015460608501520154910152565b73ffffffffffffffffffffffffffffffffffffffff60609116801561024d575f52600260205260405f209060048201805491821561260b5750600a82111561260457600a925b7fffffffffffffffffffffffffffffffffffffffffffffffffffffffffffffffe06124a261248c86612274565b9561249a6040519788612233565b808752612274565b015f5b8181106125cf575050600a83101561252f57507fffffffffffffffffffffffffffffffffffffffffffffffffffffffffffffffff82018281115f5b8481106124ef57505050505090565b81611a51578061251361250d6125076001948761236c565b87612379565b506123d3565b61251d82896123bf565b5261252881886123bf565b50016124e0565b6007015490915060ff168061259d575060ff60095b16905f91600a8101809111925b600a8110612560575050505090565b83611a51578061258161250d600a61257a6001958761236c565b0686612379565b61258b82886123bf565b5261259681876123bf565b5001612551565b7fffffffffffffffffffffffffffffffffffffffffffffffffffffffffffffffff0160ff8111611a515760ff90612544565b6020906040516125de81612217565b5f81525f838201525f60408201525f60608201525f6080820152828289010152016124a5565b819261245f565b925050506040519061261e602083612233565b5f82525f90815b8281106126325750505090565b60209060405161264181612217565b5f81525f838201525f60408201525f848201525f608082015282828701015201612625565b805f52600660205260ff60405f205460081c1615612dfb57805f52600660205260ff60405f205416612d9d57815160ff7f00000000000000000000000000000000000000000000000000000000000000001603612d3f57805f52600760205273ffffffffffffffffffffffffffffffffffffffff60405f205416908115612ce057815f52600260205260405f206003810182815403612c8257825f52600860205260ff60405f20541615612c24575f838152600660205260409020805460ff191660019081178255865191019067ffffffffffffffff81116121ea5761274c81836122e2565b6020870180925f5260205f205f5b838110612c10575050505060ff83541615612bab5760ff835460101c16906001840154965115612392578060069150510660018101809111611a515760ff16955f96808314612ae6575b84547fffffffffffffffffffffffffffffffffffffffffffffffffffffffff00ff000016601882901b63ff000000161761010017855560028501889055604051926127ee84612217565b8352602083015263ffffffff421660408301528060608301528660808301526004840193600a8554105f14612aa157845492680100000000000000008410156121ea5760ff6007600a5f9861285184956113198a60016128789c01855584612379565b5406930192161660ff198254161790555b61286d60035461233f565b60035560055461228c565b6005558415159283612a8d575b8083526007602052604083207fffffffffffffffffffffffff0000000000000000000000000000000000000000815416905580835260086020526040832060ff198154169055825260066020526128e4600160408420848155016122b2565b556128ed575050565b73ffffffffffffffffffffffffffffffffffffffff7f000000000000000000000000000000000000000000000000000000000000000016916040517f91d148540000000000000000000000000000000000000000000000000000000081527f9f2df0fed2c77648de5860a4cc508cd0818c85b8b8a1ab4ceeef8d981c8956a66004820152306024820152602081604481875afa9081156119a7575f91612a6e575b501561193c57823b1561096b576040517f40c10f1900000000000000000000000000000000000000000000000000000000815273ffffffffffffffffffffffffffffffffffffffff9290921660048301526024820152905f908290604490829084905af19081612a5e575b50612a5c5760646040517f12dfddb300000000000000000000000000000000000000000000000000000000815260206004820152601160248201527f546f6b656e206d696e74206661696c65640000000000000000000000000000006044820152fd5b565b5f612a6891612233565b5f6129f9565b612a87915060203d602011610a0f57610a018183612233565b5f61298e565b612a998660045461228c565b600455612885565b916113196007612ab99394019560ff87541690612379565b600160ff845416019060ff8211611a51575f9360ff600a816128789516061660ff19825416179055612862565b96507f2aaaaaaaaaaaaaaaaaaaaaaaaaaaaaaaaaaaaaaaaaaaaaaaaaaaaaaaaaaaaaaa8111612b27576006810281810460061482151715611a5157966127a4565b60846040517f327512f600000000000000000000000000000000000000000000000000000000815260206004820152602b60248201527f42657420616d6f756e7420746f6f206c6172676520666f72207061796f75742060448201527f63616c63756c6174696f6e0000000000000000000000000000000000000000006064820152fd5b505050915050805f52600760205260405f207fffffffffffffffffffffffff00000000000000000000000000000000000000008154169055805f52600860205260405f2060ff1981541690555f526006602052612a5c600160405f205f8155016122b2565b60019060208451940193818401550161275a565b60646040517f13b419a900000000000000000000000000000000000000000000000000000000815260206004820152601560248201527f52657175657374204944206e6f742061637469766500000000000000000000006044820152fd5b60646040517f13b419a900000000000000000000000000000000000000000000000000000000815260206004820152601360248201527f52657175657374204944206d69736d61746368000000000000000000000000006044820152fd5b6040517f1726a07e00000000000000000000000000000000000000000000000000000000815260206004820152601660248201527f496e76616c696420706c617965722061646472657373000000000000000000006044820152606490fd5b60646040517f1726a07e00000000000000000000000000000000000000000000000000000000815260206004820152601b60248201527f496e76616c69642072616e646f6d20776f726473206c656e67746800000000006044820152fd5b60646040517f1726a07e00000000000000000000000000000000000000000000000000000000815260206004820152601960248201527f5265717565737420616c72656164792066756c66696c6c6564000000000000006044820152fd5b60646040517f1726a07e00000000000000000000000000000000000000000000000000000000815260206004820152601160248201527f52657175657374206e6f7420666f756e640000000000000000000000000000006044820152fd5b73ffffffffffffffffffffffffffffffffffffffff60015460081c163303612e7d57565b7f118cdaa7000000000000000000000000000000000000000000000000000000005f523360045260245ffd5b60025f5414612eb85760025f55565b7f3ee5aeb5000000000000000000000000000000000000000000000000000000005f5260045ffd5b9190612f795760808160ff8060029451161660ff19855416178455602081015161ff0085549160081b16807fffffffffffffffffffffffffffffffffffffffffffffffffffffffffffff00ff83161786557fffffffffffffffffffffffffffffffffffffffffffffffffffff0000000000ff65ffffffff0000604085015160101b16921617178455606081015160018501550151910155565b7f4e487b71000000000000000000000000000000000000000000000000000000005f525f60045260245ffd5b60ff60015416612fb157565b7fd93c0665000000000000000000000000000000000000000000000000000000005f5260045ffdfea2646970667358221220ce955d1430c3dc179e954e0aaf97f7246fc25d595cbb56c9c1cc5ccad7b8777d64736f6c634300081c0033",
    "linkReferences": {}
  },
  "methodIdentifiers": {
    "BURNER_ROLE()": "282c51f3",
    "MAX_BET_AMOUNT()": "309167f5",
    "MAX_HISTORY_SIZE()": "c1066251",
    "MINTER_ROLE()": "d5391393",
    "RESULT_FORCE_STOPPED()": "38f8bc6d",
    "RESULT_RECOVERED()": "57816f3e",
    "canStartNewGame(address)": "5d424b85",
    "forceStopGame(address)": "b52a0855",
    "gamaToken()": "d56ec8c9",
    "getBetHistory(address)": "ce84a53b",
    "getGameStatus(address)": "54e4437e",
    "getPlayerForRequest(uint256)": "04243151",
    "getUserData(address)": "ffc9896b",
    "hasPendingRequest(address)": "0c99375d",
    "owner()": "8da5cb5b",
    "pause()": "8456cb59",
    "paused()": "5c975abb",
    "playDice(uint8,uint256)": "f3b5a671",
    "rawFulfillRandomWords(uint256,uint256[])": "1fe543e3",
    "recoverOwnStuckGame()": "a20ff9fc",
    "renounceOwnership()": "715018a6",
    "s_requests(uint256)": "a168fa89",
    "totalGamesPlayed()": "5c492129",
    "totalPayoutAmount()": "e7efcfc2",
    "totalWageredAmount()": "5bdb2e1b",
    "transferOwnership(address)": "f2fde38b",
    "unpause()": "3f4ba83a"
  },
  "id": 55
}