{
  "abi": [
    {
      "type": "constructor",
      "inputs": [],
      "stateMutability": "nonpayable"
    },
    {
      "type": "function",
      "name": "ADMIN_ROLE",
      "inputs": [],
      "outputs": [
        {
          "name": "",
          "type": "bytes32",
          "internalType": "bytes32"
        }
      ],
      "stateMutability": "view"
    },
    {
      "type": "function",
      "name": "BURNER_ROLE",
      "inputs": [],
      "outputs": [
        {
          "name": "",
          "type": "bytes32",
          "internalType": "bytes32"
        }
      ],
      "stateMutability": "view"
    },
    {
      "type": "function",
      "name": "DEFAULT_ADMIN_ROLE",
      "inputs": [],
      "outputs": [
        {
          "name": "",
          "type": "bytes32",
          "internalType": "bytes32"
        }
      ],
      "stateMutability": "view"
    },
    {
      "type": "function",
      "name": "GAME_CONTRACT_ROLE",
      "inputs": [],
      "outputs": [
        {
          "name": "",
          "type": "bytes32",
          "internalType": "bytes32"
        }
      ],
      "stateMutability": "view"
    },
    {
      "type": "function",
      "name": "MINTER_ROLE",
      "inputs": [],
      "outputs": [
        {
          "name": "",
          "type": "bytes32",
          "internalType": "bytes32"
        }
      ],
      "stateMutability": "view"
    },
    {
      "type": "function",
      "name": "airdropTokens",
      "inputs": [
        {
          "name": "recipients",
          "type": "address[]",
          "internalType": "address[]"
        },
        {
          "name": "amounts",
          "type": "uint256[]",
          "internalType": "uint256[]"
        }
      ],
      "outputs": [],
      "stateMutability": "nonpayable"
    },
    {
      "type": "function",
      "name": "allowance",
      "inputs": [
        {
          "name": "owner",
          "type": "address",
          "internalType": "address"
        },
        {
          "name": "spender",
          "type": "address",
          "internalType": "address"
        }
      ],
      "outputs": [
        {
          "name": "",
          "type": "uint256",
          "internalType": "uint256"
        }
      ],
      "stateMutability": "view"
    },
    {
      "type": "function",
      "name": "approve",
      "inputs": [
        {
          "name": "spender",
          "type": "address",
          "internalType": "address"
        },
        {
          "name": "value",
          "type": "uint256",
          "internalType": "uint256"
        }
      ],
      "outputs": [
        {
          "name": "",
          "type": "bool",
          "internalType": "bool"
        }
      ],
      "stateMutability": "nonpayable"
    },
    {
      "type": "function",
      "name": "balanceOf",
      "inputs": [
        {
          "name": "account",
          "type": "address",
          "internalType": "address"
        }
      ],
      "outputs": [
        {
          "name": "",
          "type": "uint256",
          "internalType": "uint256"
        }
      ],
      "stateMutability": "view"
    },
    {
      "type": "function",
      "name": "blacklistAddress",
      "inputs": [
        {
          "name": "account",
          "type": "address",
          "internalType": "address"
        }
      ],
      "outputs": [],
      "stateMutability": "nonpayable"
    },
    {
      "type": "function",
      "name": "burn",
      "inputs": [
        {
          "name": "value",
          "type": "uint256",
          "internalType": "uint256"
        }
      ],
      "outputs": [],
      "stateMutability": "nonpayable"
    },
    {
      "type": "function",
      "name": "burn",
      "inputs": [
        {
          "name": "from",
          "type": "address",
          "internalType": "address"
        },
        {
          "name": "amount",
          "type": "uint256",
          "internalType": "uint256"
        }
      ],
      "outputs": [],
      "stateMutability": "nonpayable"
    },
    {
      "type": "function",
      "name": "burnFrom",
      "inputs": [
        {
          "name": "account",
          "type": "address",
          "internalType": "address"
        },
        {
          "name": "value",
          "type": "uint256",
          "internalType": "uint256"
        }
      ],
      "outputs": [],
      "stateMutability": "nonpayable"
    },
    {
      "type": "function",
      "name": "decimals",
      "inputs": [],
      "outputs": [
        {
          "name": "",
          "type": "uint8",
          "internalType": "uint8"
        }
      ],
      "stateMutability": "view"
    },
    {
      "type": "function",
      "name": "getRoleAdmin",
      "inputs": [
        {
          "name": "role",
          "type": "bytes32",
          "internalType": "bytes32"
        }
      ],
      "outputs": [
        {
          "name": "",
          "type": "bytes32",
          "internalType": "bytes32"
        }
      ],
      "stateMutability": "view"
    },
    {
      "type": "function",
      "name": "grantRole",
      "inputs": [
        {
          "name": "role",
          "type": "bytes32",
          "internalType": "bytes32"
        },
        {
          "name": "account",
          "type": "address",
          "internalType": "address"
        }
      ],
      "outputs": [],
      "stateMutability": "nonpayable"
    },
    {
      "type": "function",
      "name": "hasRole",
      "inputs": [
        {
          "name": "role",
          "type": "bytes32",
          "internalType": "bytes32"
        },
        {
          "name": "account",
          "type": "address",
          "internalType": "address"
        }
      ],
      "outputs": [
        {
          "name": "",
          "type": "bool",
          "internalType": "bool"
        }
      ],
      "stateMutability": "view"
    },
    {
      "type": "function",
      "name": "isBlacklisted",
      "inputs": [
        {
          "name": "account",
          "type": "address",
          "internalType": "address"
        }
      ],
      "outputs": [
        {
          "name": "",
          "type": "bool",
          "internalType": "bool"
        }
      ],
      "stateMutability": "view"
    },
    {
      "type": "function",
      "name": "mint",
      "inputs": [
        {
          "name": "to",
          "type": "address",
          "internalType": "address"
        },
        {
          "name": "amount",
          "type": "uint256",
          "internalType": "uint256"
        }
      ],
      "outputs": [],
      "stateMutability": "nonpayable"
    },
    {
      "type": "function",
      "name": "name",
      "inputs": [],
      "outputs": [
        {
          "name": "",
          "type": "string",
          "internalType": "string"
        }
      ],
      "stateMutability": "view"
    },
    {
      "type": "function",
      "name": "pause",
      "inputs": [],
      "outputs": [],
      "stateMutability": "nonpayable"
    },
    {
      "type": "function",
      "name": "paused",
      "inputs": [],
      "outputs": [
        {
          "name": "",
          "type": "bool",
          "internalType": "bool"
        }
      ],
      "stateMutability": "view"
    },
    {
      "type": "function",
      "name": "renounceRole",
      "inputs": [
        {
          "name": "role",
          "type": "bytes32",
          "internalType": "bytes32"
        },
        {
          "name": "callerConfirmation",
          "type": "address",
          "internalType": "address"
        }
      ],
      "outputs": [],
      "stateMutability": "nonpayable"
    },
    {
      "type": "function",
      "name": "revokeRole",
      "inputs": [
        {
          "name": "role",
          "type": "bytes32",
          "internalType": "bytes32"
        },
        {
          "name": "account",
          "type": "address",
          "internalType": "address"
        }
      ],
      "outputs": [],
      "stateMutability": "nonpayable"
    },
    {
      "type": "function",
      "name": "supportsInterface",
      "inputs": [
        {
          "name": "interfaceId",
          "type": "bytes4",
          "internalType": "bytes4"
        }
      ],
      "outputs": [
        {
          "name": "",
          "type": "bool",
          "internalType": "bool"
        }
      ],
      "stateMutability": "view"
    },
    {
      "type": "function",
      "name": "symbol",
      "inputs": [],
      "outputs": [
        {
          "name": "",
          "type": "string",
          "internalType": "string"
        }
      ],
      "stateMutability": "view"
    },
    {
      "type": "function",
      "name": "totalSupply",
      "inputs": [],
      "outputs": [
        {
          "name": "",
          "type": "uint256",
          "internalType": "uint256"
        }
      ],
      "stateMutability": "view"
    },
    {
      "type": "function",
      "name": "transfer",
      "inputs": [
        {
          "name": "to",
          "type": "address",
          "internalType": "address"
        },
        {
          "name": "value",
          "type": "uint256",
          "internalType": "uint256"
        }
      ],
      "outputs": [
        {
          "name": "",
          "type": "bool",
          "internalType": "bool"
        }
      ],
      "stateMutability": "nonpayable"
    },
    {
      "type": "function",
      "name": "transferFrom",
      "inputs": [
        {
          "name": "from",
          "type": "address",
          "internalType": "address"
        },
        {
          "name": "to",
          "type": "address",
          "internalType": "address"
        },
        {
          "name": "value",
          "type": "uint256",
          "internalType": "uint256"
        }
      ],
      "outputs": [
        {
          "name": "",
          "type": "bool",
          "internalType": "bool"
        }
      ],
      "stateMutability": "nonpayable"
    },
    {
      "type": "function",
      "name": "transferOwnership",
      "inputs": [
        {
          "name": "newOwner",
          "type": "address",
          "internalType": "address"
        }
      ],
      "outputs": [],
      "stateMutability": "nonpayable"
    },
    {
      "type": "function",
      "name": "unblacklistAddress",
      "inputs": [
        {
          "name": "account",
          "type": "address",
          "internalType": "address"
        }
      ],
      "outputs": [],
      "stateMutability": "nonpayable"
    },
    {
      "type": "function",
      "name": "unpause",
      "inputs": [],
      "outputs": [],
      "stateMutability": "nonpayable"
    },
    {
      "type": "event",
      "name": "AddressBlacklisted",
      "inputs": [
        {
          "name": "account",
          "type": "address",
          "indexed": true,
          "internalType": "address"
        }
      ],
      "anonymous": false
    },
    {
      "type": "event",
      "name": "AddressUnblacklisted",
      "inputs": [
        {
          "name": "account",
          "type": "address",
          "indexed": true,
          "internalType": "address"
        }
      ],
      "anonymous": false
    },
    {
      "type": "event",
      "name": "Approval",
      "inputs": [
        {
          "name": "owner",
          "type": "address",
          "indexed": true,
          "internalType": "address"
        },
        {
          "name": "spender",
          "type": "address",
          "indexed": true,
          "internalType": "address"
        },
        {
          "name": "value",
          "type": "uint256",
          "indexed": false,
          "internalType": "uint256"
        }
      ],
      "anonymous": false
    },
    {
      "type": "event",
      "name": "OwnershipTransferred",
      "inputs": [
        {
          "name": "previousOwner",
          "type": "address",
          "indexed": true,
          "internalType": "address"
        },
        {
          "name": "newOwner",
          "type": "address",
          "indexed": true,
          "internalType": "address"
        }
      ],
      "anonymous": false
    },
    {
      "type": "event",
      "name": "Paused",
      "inputs": [
        {
          "name": "account",
          "type": "address",
          "indexed": false,
          "internalType": "address"
        }
      ],
      "anonymous": false
    },
    {
      "type": "event",
      "name": "RoleAdminChanged",
      "inputs": [
        {
          "name": "role",
          "type": "bytes32",
          "indexed": true,
          "internalType": "bytes32"
        },
        {
          "name": "previousAdminRole",
          "type": "bytes32",
          "indexed": true,
          "internalType": "bytes32"
        },
        {
          "name": "newAdminRole",
          "type": "bytes32",
          "indexed": true,
          "internalType": "bytes32"
        }
      ],
      "anonymous": false
    },
    {
      "type": "event",
      "name": "RoleGranted",
      "inputs": [
        {
          "name": "role",
          "type": "bytes32",
          "indexed": true,
          "internalType": "bytes32"
        },
        {
          "name": "account",
          "type": "address",
          "indexed": true,
          "internalType": "address"
        },
        {
          "name": "sender",
          "type": "address",
          "indexed": true,
          "internalType": "address"
        }
      ],
      "anonymous": false
    },
    {
      "type": "event",
      "name": "RoleRevoked",
      "inputs": [
        {
          "name": "role",
          "type": "bytes32",
          "indexed": true,
          "internalType": "bytes32"
        },
        {
          "name": "account",
          "type": "address",
          "indexed": true,
          "internalType": "address"
        },
        {
          "name": "sender",
          "type": "address",
          "indexed": true,
          "internalType": "address"
        }
      ],
      "anonymous": false
    },
    {
      "type": "event",
      "name": "TokensAirdropped",
      "inputs": [
        {
          "name": "recipient",
          "type": "address",
          "indexed": true,
          "internalType": "address"
        },
        {
          "name": "amount",
          "type": "uint256",
          "indexed": false,
          "internalType": "uint256"
        }
      ],
      "anonymous": false
    },
    {
      "type": "event",
      "name": "Transfer",
      "inputs": [
        {
          "name": "from",
          "type": "address",
          "indexed": true,
          "internalType": "address"
        },
        {
          "name": "to",
          "type": "address",
          "indexed": true,
          "internalType": "address"
        },
        {
          "name": "value",
          "type": "uint256",
          "indexed": false,
          "internalType": "uint256"
        }
      ],
      "anonymous": false
    },
    {
      "type": "event",
      "name": "Unpaused",
      "inputs": [
        {
          "name": "account",
          "type": "address",
          "indexed": false,
          "internalType": "address"
        }
      ],
      "anonymous": false
    },
    {
      "type": "error",
      "name": "AccessControlBadConfirmation",
      "inputs": []
    },
    {
      "type": "error",
      "name": "AccessControlUnauthorizedAccount",
      "inputs": [
        {
          "name": "account",
          "type": "address",
          "internalType": "address"
        },
        {
          "name": "neededRole",
          "type": "bytes32",
          "internalType": "bytes32"
        }
      ]
    },
    {
      "type": "error",
      "name": "ERC20InsufficientAllowance",
      "inputs": [
        {
          "name": "spender",
          "type": "address",
          "internalType": "address"
        },
        {
          "name": "allowance",
          "type": "uint256",
          "internalType": "uint256"
        },
        {
          "name": "needed",
          "type": "uint256",
          "internalType": "uint256"
        }
      ]
    },
    {
      "type": "error",
      "name": "ERC20InsufficientBalance",
      "inputs": [
        {
          "name": "sender",
          "type": "address",
          "internalType": "address"
        },
        {
          "name": "balance",
          "type": "uint256",
          "internalType": "uint256"
        },
        {
          "name": "needed",
          "type": "uint256",
          "internalType": "uint256"
        }
      ]
    },
    {
      "type": "error",
      "name": "ERC20InvalidApprover",
      "inputs": [
        {
          "name": "approver",
          "type": "address",
          "internalType": "address"
        }
      ]
    },
    {
      "type": "error",
      "name": "ERC20InvalidReceiver",
      "inputs": [
        {
          "name": "receiver",
          "type": "address",
          "internalType": "address"
        }
      ]
    },
    {
      "type": "error",
      "name": "ERC20InvalidSender",
      "inputs": [
        {
          "name": "sender",
          "type": "address",
          "internalType": "address"
        }
      ]
    },
    {
      "type": "error",
      "name": "ERC20InvalidSpender",
      "inputs": [
        {
          "name": "spender",
          "type": "address",
          "internalType": "address"
        }
      ]
    },
    {
      "type": "error",
      "name": "EnforcedPause",
      "inputs": []
    },
    {
      "type": "error",
      "name": "ExpectedPause",
      "inputs": []
    },
    {
      "type": "error",
      "name": "ReentrancyGuardReentrantCall",
      "inputs": []
    }
  ],
  "bytecode": {
    "object": "0x608060405234801561000f575f5ffd5b506040518060400160405280600981526020016823a0a6a09021b7b4b760b91b8152506040518060400160405280600481526020016347616d6160e01b815250816003908161005e919061028a565b50600461006b828261028a565b5050600160075550600a80546001600160a01b03191633908117909155610093905f90610145565b506100be7f9f2df0fed2c77648de5860a4cc508cd0818c85b8b8a1ab4ceeef8d981c8956a633610145565b506100e97f3c11d16cbaffd01df69ce1c404f6340ee057498f5f00246190ea54220576a84833610145565b506101147f44718e3514ccd463314f14773a916bc580c9220f29745390a228f1242d73feb133610145565b5061013f7fa49807205ce4d355092ef5a8a18f56e8913cf4a201fbe287825b095693c2177533610145565b50610344565b5f8281526006602090815260408083206001600160a01b038516845290915281205460ff166101e9575f8381526006602090815260408083206001600160a01b03861684529091529020805460ff191660011790556101a13390565b6001600160a01b0316826001600160a01b0316847f2f8788117e7eff1d82e926ec794901d17c78024a50270940304540a733656f0d60405160405180910390a45060016101ec565b505f5b92915050565b634e487b7160e01b5f52604160045260245ffd5b600181811c9082168061021a57607f821691505b60208210810361023857634e487b7160e01b5f52602260045260245ffd5b50919050565b601f82111561028557805f5260205f20601f840160051c810160208510156102635750805b601f840160051c820191505b81811015610282575f815560010161026f565b50505b505050565b81516001600160401b038111156102a3576102a36101f2565b6102b7816102b18454610206565b8461023e565b6020601f8211600181146102e9575f83156102d25750848201515b5f19600385901b1c1916600184901b178455610282565b5f84815260208120601f198516915b8281101561031857878501518255602094850194600190920191016102f8565b508482101561033557868401515f19600387901b60f8161c191681555b50505050600190811b01905550565b61175b806103515f395ff3fe608060405234801561000f575f5ffd5b50600436106101e7575f3560e01c806370a0823111610109578063a9059cbb1161009e578063dd62ed3e1161006e578063dd62ed3e14610452578063f2fde38b1461048a578063f3290d751461049d578063fe575a87146104b0575f5ffd5b8063a9059cbb146103de578063b5e352da146103f1578063d539139314610418578063d547741f1461043f575f5ffd5b806391d14854116100d957806391d14854146103a957806395d89b41146103bc5780639dc29fac146103c4578063a217fddf146103d7575f5ffd5b806370a082311461033f57806375b238fc1461036757806379cc67901461038e5780638456cb59146103a1575f5ffd5b8063313ce5671161017f57806342966c681161014f57806342966c68146102fb57806345e349491461030e5780635c975abb14610321578063706f69371461032c575f5ffd5b8063313ce567146102be57806336568abe146102cd5780633f4ba83a146102e057806340c10f19146102e8575f5ffd5b806323b872dd116101ba57806323b872dd1461024d578063248a9ca314610260578063282c51f3146102825780632f2ff15d146102a9575f5ffd5b806301ffc9a7146101eb57806306fdde0314610213578063095ea7b31461022857806318160ddd1461023b575b5f5ffd5b6101fe6101f9366004611436565b6104c3565b60405190151581526020015b60405180910390f35b61021b6104f9565b60405161020a919061145d565b6101fe6102363660046114ad565b610589565b6002545b60405190815260200161020a565b6101fe61025b3660046114d5565b6105a0565b61023f61026e36600461150f565b5f9081526006602052604090206001015490565b61023f7f3c11d16cbaffd01df69ce1c404f6340ee057498f5f00246190ea54220576a84881565b6102bc6102b7366004611526565b6105c3565b005b6040516012815260200161020a565b6102bc6102db366004611526565b6105ed565b6102bc610625565b6102bc6102f63660046114ad565b610662565b6102bc61030936600461150f565b6106a8565b6102bc61031c366004611550565b6106b5565b60055460ff166101fe565b6102bc61033a3660046115b1565b61074b565b61023f61034d366004611550565b6001600160a01b03165f9081526020819052604090205490565b61023f7fa49807205ce4d355092ef5a8a18f56e8913cf4a201fbe287825b095693c2177581565b6102bc61039c3660046114ad565b6108fd565b6102bc610916565b6101fe6103b7366004611526565b610948565b61021b610972565b6102bc6103d23660046114ad565b610981565b61023f5f81565b6101fe6103ec3660046114ad565b610a27565b61023f7f44718e3514ccd463314f14773a916bc580c9220f29745390a228f1242d73feb181565b61023f7f9f2df0fed2c77648de5860a4cc508cd0818c85b8b8a1ab4ceeef8d981c8956a681565b6102bc61044d366004611526565b610a34565b61023f61046036600461161d565b6001600160a01b039182165f90815260016020908152604080832093909416825291909152205490565b6102bc610498366004611550565b610a58565b6102bc6104ab366004611550565b610b91565b6101fe6104be366004611550565b610c2c565b5f6001600160e01b03198216637965db0b60e01b14806104f357506301ffc9a760e01b6001600160e01b03198316145b92915050565b60606003805461050890611645565b80601f016020809104026020016040519081016040528092919081815260200182805461053490611645565b801561057f5780601f106105565761010080835404028352916020019161057f565b820191905f5260205f20905b81548152906001019060200180831161056257829003601f168201915b5050505050905090565b5f33610596818585610c38565b5060019392505050565b5f336105ad858285610c45565b6105b8858585610cbb565b506001949350505050565b5f828152600660205260409020600101546105dd81610d18565b6105e78383610d22565b50505050565b6001600160a01b03811633146106165760405163334bd91960e11b815260040160405180910390fd5b6106208282610db3565b505050565b600a546001600160a01b031633146106585760405162461bcd60e51b815260040161064f9061167d565b60405180910390fd5b610660610e1e565b565b7f9f2df0fed2c77648de5860a4cc508cd0818c85b8b8a1ab4ceeef8d981c8956a661068c81610d18565b610694610e70565b61069e8383610e9a565b6106206001600755565b6106b23382610ece565b50565b5f6106bf81610d18565b6106ca600883610f02565b6107085760405162461bcd60e51b815260206004820152600f60248201526e139bdd08189b1858dadb1a5cdd1959608a1b604482015260640161064f565b610713600883610f26565b506040516001600160a01b038316907fb2aa8f2cce614e8fceaca560dbaf2a8ed3083e4ab371b10bf6d02e359216767a905f90a25050565b5f61075581610d18565b61075d610e70565b83821461079e5760405162461bcd60e51b815260206004820152600f60248201526e098cadccee8d040dad2e6dac2e8c6d608b1b604482015260640161064f565b5f5b848110156108eb576107d28686838181106107bd576107bd6116c3565b90506020020160208101906104be9190611550565b1561081a5760405162461bcd60e51b8152602060048201526018602482015277149958da5c1a595b9d081a5cc8189b1858dadb1a5cdd195960421b604482015260640161064f565b61086286868381811061082f5761082f6116c3565b90506020020160208101906108449190611550565b858584818110610856576108566116c3565b90506020020135610e9a565b858582818110610874576108746116c3565b90506020020160208101906108899190611550565b6001600160a01b03167fb82d2a7de6e3c04c554cd659f5f2b8d49c0131c0363c91a4ccef6756d16029908585848181106108c5576108c56116c3565b905060200201356040516108db91815260200190565b60405180910390a26001016107a0565b506108f66001600755565b5050505050565b610908823383610c45565b6109128282610ece565b5050565b600a546001600160a01b031633146109405760405162461bcd60e51b815260040161064f9061167d565b610660610f3a565b5f9182526006602090815260408084206001600160a01b0393909316845291905290205460ff1690565b60606004805461050890611645565b7f3c11d16cbaffd01df69ce1c404f6340ee057498f5f00246190ea54220576a8486109ab81610d18565b6109b3610e70565b6001600160a01b0383165f9081526020819052604090205482811015610a125760405162461bcd60e51b8152602060048201526014602482015273496e73756666696369656e742062616c616e636560601b604482015260640161064f565b610a1c8484610ece565b506106206001600755565b5f33610596818585610cbb565b5f82815260066020526040902060010154610a4e81610d18565b6105e78383610db3565b600a546001600160a01b03163314610a825760405162461bcd60e51b815260040161064f9061167d565b6001600160a01b038116610ad85760405162461bcd60e51b815260206004820152601960248201527f4e6577206f776e6572206973207a65726f206164647265737300000000000000604482015260640161064f565b600a546001600160a01b0390811690821603610b365760405162461bcd60e51b815260206004820152601b60248201527f4e6577206f776e6572206d75737420626520646966666572656e740000000000604482015260640161064f565b600a546040516001600160a01b038084169216907f8be0079c531659141344cd1fd0a4f28419497f9722a3daafe3b4186f6b6457e0905f90a3600a80546001600160a01b0319166001600160a01b0392909216919091179055565b5f610b9b81610d18565b610ba6600883610f02565b15610be95760405162461bcd60e51b8152602060048201526013602482015272105b1c9958591e48189b1858dadb1a5cdd1959606a1b604482015260640161064f565b610bf4600883610f77565b506040516001600160a01b038316907fdaf49ab9345b6cb75bcb5a7f726bff9183c34dcf5c098c385730f9fd893765f6905f90a25050565b5f6104f3600883610f02565b6106208383836001610f8b565b6001600160a01b038381165f908152600160209081526040808320938616835292905220545f198110156105e75781811015610cad57604051637dc7a0d960e11b81526001600160a01b0384166004820152602481018290526044810183905260640161064f565b6105e784848484035f610f8b565b6001600160a01b038316610ce457604051634b637e8f60e11b81525f600482015260240161064f565b6001600160a01b038216610d0d5760405163ec442f0560e01b81525f600482015260240161064f565b61062083838361105d565b6106b2813361115a565b5f610d2d8383610948565b610dac575f8381526006602090815260408083206001600160a01b03861684529091529020805460ff19166001179055610d643390565b6001600160a01b0316826001600160a01b0316847f2f8788117e7eff1d82e926ec794901d17c78024a50270940304540a733656f0d60405160405180910390a45060016104f3565b505f6104f3565b5f610dbe8383610948565b15610dac575f8381526006602090815260408083206001600160a01b0386168085529252808320805460ff1916905551339286917ff6391f5c32d9c69d2a47ea670b442974b53935d1edc7fd64eb21e047a839171b9190a45060016104f3565b610e26611193565b6005805460ff191690557f5db9ee0a495bf2e6ff9c91a7834c1ba4fdd244a5e8aa4e537bd38aeae4b073aa335b6040516001600160a01b03909116815260200160405180910390a1565b600260075403610e9357604051633ee5aeb560e01b815260040160405180910390fd5b6002600755565b6001600160a01b038216610ec35760405163ec442f0560e01b81525f600482015260240161064f565b6109125f838361105d565b6001600160a01b038216610ef757604051634b637e8f60e11b81525f600482015260240161064f565b610912825f8361105d565b6001600160a01b0381165f90815260018301602052604081205415155b9392505050565b5f610f1f836001600160a01b0384166111b6565b610f42611299565b6005805460ff191660011790557f62e78cea01bee320cd4e420270b5ea74000d11b0c9f74754ebdbfc544b05a258610e533390565b5f610f1f836001600160a01b0384166112bd565b6001600160a01b038416610fb45760405163e602df0560e01b81525f600482015260240161064f565b6001600160a01b038316610fdd57604051634a1406b160e11b81525f600482015260240161064f565b6001600160a01b038085165f90815260016020908152604080832093871683529290522082905580156105e757826001600160a01b0316846001600160a01b03167f8c5be1e5ebec7d5bd14f71427d1e84f3dd0314c0f7b2291e5b200ac8c7c3b9258460405161104f91815260200190565b60405180910390a350505050565b60055460ff16156110b05760405162461bcd60e51b815260206004820152601a60248201527f546f6b656e207472616e73666572732061726520706175736564000000000000604482015260640161064f565b6110b983610c2c565b156110fe5760405162461bcd60e51b815260206004820152601560248201527414d95b99195c881a5cc8189b1858dadb1a5cdd1959605a1b604482015260640161064f565b61110782610c2c565b1561114f5760405162461bcd60e51b8152602060048201526018602482015277149958da5c1a595b9d081a5cc8189b1858dadb1a5cdd195960421b604482015260640161064f565b610620838383611302565b6111648282610948565b6109125760405163e2517d3f60e01b81526001600160a01b03821660048201526024810183905260440161064f565b60055460ff1661066057604051638dfc202b60e01b815260040160405180910390fd5b5f8181526001830160205260408120548015611290575f6111d86001836116eb565b85549091505f906111eb906001906116eb565b905080821461124a575f865f018281548110611209576112096116c3565b905f5260205f200154905080875f018481548110611229576112296116c3565b5f918252602080832090910192909255918252600188019052604090208390555b855486908061125b5761125b6116fe565b600190038181905f5260205f20015f90559055856001015f8681526020019081526020015f205f9055600193505050506104f3565b5f9150506104f3565b60055460ff16156106605760405163d93c066560e01b815260040160405180910390fd5b5f818152600183016020526040812054610dac57508154600181810184555f8481526020808220909301849055845484825282860190935260409020919091556104f3565b61130a611299565b6106208383836001600160a01b03831661133a578060025f82825461132f9190611712565b909155506113aa9050565b6001600160a01b0383165f908152602081905260409020548181101561138c5760405163391434e360e21b81526001600160a01b0385166004820152602481018290526044810183905260640161064f565b6001600160a01b0384165f9081526020819052604090209082900390555b6001600160a01b0382166113c6576002805482900390556113e4565b6001600160a01b0382165f9081526020819052604090208054820190555b816001600160a01b0316836001600160a01b03167fddf252ad1be2c89b69c2b068fc378daa952ba7f163c4a11628f55a4df523b3ef8360405161142991815260200190565b60405180910390a3505050565b5f60208284031215611446575f5ffd5b81356001600160e01b031981168114610f1f575f5ffd5b602081525f82518060208401528060208501604085015e5f604082850101526040601f19601f83011684010191505092915050565b80356001600160a01b03811681146114a8575f5ffd5b919050565b5f5f604083850312156114be575f5ffd5b6114c783611492565b946020939093013593505050565b5f5f5f606084860312156114e7575f5ffd5b6114f084611492565b92506114fe60208501611492565b929592945050506040919091013590565b5f6020828403121561151f575f5ffd5b5035919050565b5f5f60408385031215611537575f5ffd5b8235915061154760208401611492565b90509250929050565b5f60208284031215611560575f5ffd5b610f1f82611492565b5f5f83601f840112611579575f5ffd5b50813567ffffffffffffffff811115611590575f5ffd5b6020830191508360208260051b85010111156115aa575f5ffd5b9250929050565b5f5f5f5f604085870312156115c4575f5ffd5b843567ffffffffffffffff8111156115da575f5ffd5b6115e687828801611569565b909550935050602085013567ffffffffffffffff811115611605575f5ffd5b61161187828801611569565b95989497509550505050565b5f5f6040838503121561162e575f5ffd5b61163783611492565b915061154760208401611492565b600181811c9082168061165957607f821691505b60208210810361167757634e487b7160e01b5f52602260045260245ffd5b50919050565b60208082526026908201527f4f6e6c7920746865206f776e65722063616e20706572666f726d20746869732060408201526530b1ba34b7b760d11b606082015260800190565b634e487b7160e01b5f52603260045260245ffd5b634e487b7160e01b5f52601160045260245ffd5b818103818111156104f3576104f36116d7565b634e487b7160e01b5f52603160045260245ffd5b808201808211156104f3576104f36116d756fea264697066735822122073fc2c380fae582ac438f6d73ccde03817ad8746ef937298e432f36c52074f6564736f6c634300081c0033",
    "linkReferences": {}
  },
  "methodIdentifiers": {
    "ADMIN_ROLE()": "75b238fc",
    "BURNER_ROLE()": "282c51f3",
    "DEFAULT_ADMIN_ROLE()": "a217fddf",
    "GAME_CONTRACT_ROLE()": "b5e352da",
    "MINTER_ROLE()": "d5391393",
    "airdropTokens(address[],uint256[])": "706f6937",
    "allowance(address,address)": "dd62ed3e",
    "approve(address,uint256)": "095ea7b3",
    "balanceOf(address)": "70a08231",
    "blacklistAddress(address)": "f3290d75",
    "burn(address,uint256)": "9dc29fac",
    "burn(uint256)": "42966c68",
    "burnFrom(address,uint256)": "79cc6790",
    "decimals()": "313ce567",
    "getRoleAdmin(bytes32)": "248a9ca3",
    "grantRole(bytes32,address)": "2f2ff15d",
    "hasRole(bytes32,address)": "91d14854",
    "isBlacklisted(address)": "fe575a87",
    "mint(address,uint256)": "40c10f19",
    "name()": "06fdde03",
    "pause()": "8456cb59",
    "paused()": "5c975abb",
    "renounceRole(bytes32,address)": "36568abe",
    "revokeRole(bytes32,address)": "d547741f",
    "supportsInterface(bytes4)": "01ffc9a7",
    "symbol()": "95d89b41",
    "totalSupply()": "18160ddd",
    "transfer(address,uint256)": "a9059cbb",
    "transferFrom(address,address,uint256)": "23b872dd",
    "transferOwnership(address)": "f2fde38b",
    "unblacklistAddress(address)": "45e34949",
    "unpause()": "3f4ba83a"
  },
  "id": 52
}