{"abi":[{"type":"constructor","inputs":[{"name":"maxMintable_","type":"uint256","internalType":"uint256"}],"stateMutability":"nonpayable"},{"type":"function","name":"BURNER_ROLE","inputs":[],"outputs":[{"name":"","type":"bytes32","internalType":"bytes32"}],"stateMutability":"view"},{"type":"function","name":"DEFAULT_ADMIN_ROLE","inputs":[],"outputs":[{"name":"","type":"bytes32","internalType":"bytes32"}],"stateMutability":"view"},{"type":"function","name":"MINTER_ROLE","inputs":[],"outputs":[{"name":"","type":"bytes32","internalType":"bytes32"}],"stateMutability":"view"},{"type":"function","name":"PAUSER_ROLE","inputs":[],"outputs":[{"name":"","type":"bytes32","internalType":"bytes32"}],"stateMutability":"view"},{"type":"function","name":"SUB_ADMIN_ROLE","inputs":[],"outputs":[{"name":"","type":"bytes32","internalType":"bytes32"}],"stateMutability":"view"},{"type":"function","name":"airdrop","inputs":[{"name":"recipients","type":"address[]","internalType":"address[]"},{"name":"amount","type":"uint256","internalType":"uint256"}],"outputs":[],"stateMutability":"nonpayable"},{"type":"function","name":"allowance","inputs":[{"name":"owner","type":"address","internalType":"address"},{"name":"spender","type":"address","internalType":"address"}],"outputs":[{"name":"","type":"uint256","internalType":"uint256"}],"stateMutability":"view"},{"type":"function","name":"approve","inputs":[{"name":"spender","type":"address","internalType":"address"},{"name":"amount","type":"uint256","internalType":"uint256"}],"outputs":[{"name":"","type":"bool","internalType":"bool"}],"stateMutability":"nonpayable"},{"type":"function","name":"balanceOf","inputs":[{"name":"account","type":"address","internalType":"address"}],"outputs":[{"name":"","type":"uint256","internalType":"uint256"}],"stateMutability":"view"},{"type":"function","name":"burn","inputs":[{"name":"amount","type":"uint256","internalType":"uint256"}],"outputs":[],"stateMutability":"nonpayable"},{"type":"function","name":"burnFrom","inputs":[{"name":"account","type":"address","internalType":"address"},{"name":"amount","type":"uint256","internalType":"uint256"}],"outputs":[],"stateMutability":"nonpayable"},{"type":"function","name":"decimals","inputs":[],"outputs":[{"name":"","type":"uint8","internalType":"uint8"}],"stateMutability":"view"},{"type":"function","name":"getMaxMintable","inputs":[],"outputs":[{"name":"","type":"uint256","internalType":"uint256"}],"stateMutability":"view"},{"type":"function","name":"getRemainingMintable","inputs":[],"outputs":[{"name":"","type":"uint256","internalType":"uint256"}],"stateMutability":"view"},{"type":"function","name":"getRoleAdmin","inputs":[{"name":"role","type":"bytes32","internalType":"bytes32"}],"outputs":[{"name":"","type":"bytes32","internalType":"bytes32"}],"stateMutability":"view"},{"type":"function","name":"getTotalMinted","inputs":[],"outputs":[{"name":"","type":"uint256","internalType":"uint256"}],"stateMutability":"view"},{"type":"function","name":"grantRole","inputs":[{"name":"role","type":"bytes32","internalType":"bytes32"},{"name":"account","type":"address","internalType":"address"}],"outputs":[],"stateMutability":"nonpayable"},{"type":"function","name":"hasRole","inputs":[{"name":"role","type":"bytes32","internalType":"bytes32"},{"name":"account","type":"address","internalType":"address"}],"outputs":[{"name":"","type":"bool","internalType":"bool"}],"stateMutability":"view"},{"type":"function","name":"isBlacklisted","inputs":[{"name":"","type":"address","internalType":"address"}],"outputs":[{"name":"","type":"bool","internalType":"bool"}],"stateMutability":"view"},{"type":"function","name":"mint","inputs":[{"name":"to","type":"address","internalType":"address"},{"name":"amount","type":"uint256","internalType":"uint256"}],"outputs":[],"stateMutability":"nonpayable"},{"type":"function","name":"name","inputs":[],"outputs":[{"name":"","type":"string","internalType":"string"}],"stateMutability":"view"},{"type":"function","name":"pause","inputs":[],"outputs":[],"stateMutability":"nonpayable"},{"type":"function","name":"paused","inputs":[],"outputs":[{"name":"","type":"bool","internalType":"bool"}],"stateMutability":"view"},{"type":"function","name":"renounceRole","inputs":[{"name":"role","type":"bytes32","internalType":"bytes32"},{"name":"callerConfirmation","type":"address","internalType":"address"}],"outputs":[],"stateMutability":"nonpayable"},{"type":"function","name":"revokeRole","inputs":[{"name":"role","type":"bytes32","internalType":"bytes32"},{"name":"account","type":"address","internalType":"address"}],"outputs":[],"stateMutability":"nonpayable"},{"type":"function","name":"setBlacklist","inputs":[{"name":"account","type":"address","internalType":"address"},{"name":"value","type":"bool","internalType":"bool"}],"outputs":[],"stateMutability":"nonpayable"},{"type":"function","name":"setMaxMintable","inputs":[{"name":"newMaxMintable","type":"uint256","internalType":"uint256"}],"outputs":[],"stateMutability":"nonpayable"},{"type":"function","name":"setSubAdminLimit","inputs":[{"name":"subAdmin","type":"address","internalType":"address"},{"name":"limit","type":"uint256","internalType":"uint256"}],"outputs":[],"stateMutability":"nonpayable"},{"type":"function","name":"subAdminMintLimit","inputs":[{"name":"","type":"address","internalType":"address"}],"outputs":[{"name":"","type":"uint256","internalType":"uint256"}],"stateMutability":"view"},{"type":"function","name":"subAdminMinted","inputs":[{"name":"","type":"address","internalType":"address"}],"outputs":[{"name":"","type":"uint256","internalType":"uint256"}],"stateMutability":"view"},{"type":"function","name":"supportsInterface","inputs":[{"name":"interfaceId","type":"bytes4","internalType":"bytes4"}],"outputs":[{"name":"","type":"bool","internalType":"bool"}],"stateMutability":"view"},{"type":"function","name":"symbol","inputs":[],"outputs":[{"name":"","type":"string","internalType":"string"}],"stateMutability":"view"},{"type":"function","name":"totalSupply","inputs":[],"outputs":[{"name":"","type":"uint256","internalType":"uint256"}],"stateMutability":"view"},{"type":"function","name":"transfer","inputs":[{"name":"to","type":"address","internalType":"address"},{"name":"value","type":"uint256","internalType":"uint256"}],"outputs":[{"name":"","type":"bool","internalType":"bool"}],"stateMutability":"nonpayable"},{"type":"function","name":"transferFrom","inputs":[{"name":"from","type":"address","internalType":"address"},{"name":"to","type":"address","internalType":"address"},{"name":"value","type":"uint256","internalType":"uint256"}],"outputs":[{"name":"","type":"bool","internalType":"bool"}],"stateMutability":"nonpayable"},{"type":"function","name":"unpause","inputs":[],"outputs":[],"stateMutability":"nonpayable"},{"type":"event","name":"Airdrop","inputs":[{"name":"recipient","type":"address","indexed":true,"internalType":"address"},{"name":"amount","type":"uint256","indexed":false,"internalType":"uint256"}],"anonymous":false},{"type":"event","name":"Approval","inputs":[{"name":"owner","type":"address","indexed":true,"internalType":"address"},{"name":"spender","type":"address","indexed":true,"internalType":"address"},{"name":"value","type":"uint256","indexed":false,"internalType":"uint256"}],"anonymous":false},{"type":"event","name":"Blacklisted","inputs":[{"name":"account","type":"address","indexed":true,"internalType":"address"},{"name":"value","type":"bool","indexed":false,"internalType":"bool"}],"anonymous":false},{"type":"event","name":"Paused","inputs":[{"name":"account","type":"address","indexed":false,"internalType":"address"}],"anonymous":false},{"type":"event","name":"RoleAdminChanged","inputs":[{"name":"role","type":"bytes32","indexed":true,"internalType":"bytes32"},{"name":"previousAdminRole","type":"bytes32","indexed":true,"internalType":"bytes32"},{"name":"newAdminRole","type":"bytes32","indexed":true,"internalType":"bytes32"}],"anonymous":false},{"type":"event","name":"RoleGranted","inputs":[{"name":"role","type":"bytes32","indexed":true,"internalType":"bytes32"},{"name":"account","type":"address","indexed":true,"internalType":"address"},{"name":"sender","type":"address","indexed":true,"internalType":"address"}],"anonymous":false},{"type":"event","name":"RoleRevoked","inputs":[{"name":"role","type":"bytes32","indexed":true,"internalType":"bytes32"},{"name":"account","type":"address","indexed":true,"internalType":"address"},{"name":"sender","type":"address","indexed":true,"internalType":"address"}],"anonymous":false},{"type":"event","name":"SubAdminLimitUpdated","inputs":[{"name":"subAdmin","type":"address","indexed":true,"internalType":"address"},{"name":"newLimit","type":"uint256","indexed":false,"internalType":"uint256"}],"anonymous":false},{"type":"event","name":"Transfer","inputs":[{"name":"from","type":"address","indexed":true,"internalType":"address"},{"name":"to","type":"address","indexed":true,"internalType":"address"},{"name":"value","type":"uint256","indexed":false,"internalType":"uint256"}],"anonymous":false},{"type":"event","name":"Unpaused","inputs":[{"name":"account","type":"address","indexed":false,"internalType":"address"}],"anonymous":false},{"type":"error","name":"AccessControlBadConfirmation","inputs":[]},{"type":"error","name":"AccessControlUnauthorizedAccount","inputs":[{"name":"account","type":"address","internalType":"address"},{"name":"neededRole","type":"bytes32","internalType":"bytes32"}]},{"type":"error","name":"ERC20InsufficientAllowance","inputs":[{"name":"spender","type":"address","internalType":"address"},{"name":"allowance","type":"uint256","internalType":"uint256"},{"name":"needed","type":"uint256","internalType":"uint256"}]},{"type":"error","name":"ERC20InsufficientBalance","inputs":[{"name":"sender","type":"address","internalType":"address"},{"name":"balance","type":"uint256","internalType":"uint256"},{"name":"needed","type":"uint256","internalType":"uint256"}]},{"type":"error","name":"ERC20InvalidApprover","inputs":[{"name":"approver","type":"address","internalType":"address"}]},{"type":"error","name":"ERC20InvalidReceiver","inputs":[{"name":"receiver","type":"address","internalType":"address"}]},{"type":"error","name":"ERC20InvalidSender","inputs":[{"name":"sender","type":"address","internalType":"address"}]},{"type":"error","name":"ERC20InvalidSpender","inputs":[{"name":"spender","type":"address","internalType":"address"}]},{"type":"error","name":"EnforcedPause","inputs":[]},{"type":"error","name":"ExpectedPause","inputs":[]}],"bytecode":{"object":"0x608060405234610343576123e46020813803918261001c81610347565b93849283398101031261034357516100346040610347565b90600a82526923b0b6b0902a37b5b2b760b11b60208301526100566040610347565b600481526347414d4160e01b602082015282519091906001600160401b03811161025457600354600181811c91168015610339575b602082101461023657601f81116102d6575b506020601f821160011461027357819293945f92610268575b50508160011b915f199060031b1c1916176003555b81516001600160401b03811161025457600454600181811c9116801561024a575b602082101461023657601f81116101d3575b50602092601f821160011461017257928192935f92610167575b50508160011b915f199060031b1c1916176004555b6101363361036c565b50610140336103e2565b5061014a33610475565b5061015433610508565b50600a55604051611da8908161059c8239f35b015190505f80610118565b601f1982169360045f52805f20915f5b8681106101bb57508360019596106101a3575b505050811b0160045561012d565b01515f1960f88460031b161c191690555f8080610195565b91926020600181928685015181550194019201610182565b60045f527f8a35acfbc15ff81a39ae7d344fd709f28e8600b4aa8c65c6b64bfe7fe36bd19b601f830160051c8101916020841061022c575b601f0160051c01905b81811061022157506100fe565b5f8155600101610214565b909150819061020b565b634e487b7160e01b5f52602260045260245ffd5b90607f16906100ec565b634e487b7160e01b5f52604160045260245ffd5b015190505f806100b6565b601f1982169060035f52805f20915f5b8181106102be575095836001959697106102a6575b505050811b016003556100cb565b01515f1960f88460031b161c191690555f8080610298565b9192602060018192868b015181550194019201610283565b60035f527fc2575a0e9e593c00f959f8c92f12db2869c3395a3b0502d05e2516446f71f85b601f830160051c8101916020841061032f575b601f0160051c01905b818110610324575061009d565b5f8155600101610317565b909150819061030e565b90607f169061008b565b5f80fd5b6040519190601f01601f191682016001600160401b0381118382101761025457604052565b6001600160a01b0381165f9081525f5160206123a45f395f51905f52602052604090205460ff166103dd576001600160a01b03165f8181525f5160206123a45f395f51905f5260205260408120805460ff191660011790553391905f5160206123445f395f51905f528180a4600190565b505f90565b6001600160a01b0381165f9081525f5160206123645f395f51905f52602052604090205460ff166103dd576001600160a01b03165f8181525f5160206123645f395f51905f5260205260408120805460ff191660011790553391907f9f2df0fed2c77648de5860a4cc508cd0818c85b8b8a1ab4ceeef8d981c8956a6905f5160206123445f395f51905f529080a4600190565b6001600160a01b0381165f9081525f5160206123c45f395f51905f52602052604090205460ff166103dd576001600160a01b03165f8181525f5160206123c45f395f51905f5260205260408120805460ff191660011790553391907f65d7a28e3265b37a6474929f336521b332c1681b933f6cb9f3376673440d862a905f5160206123445f395f51905f529080a4600190565b6001600160a01b0381165f9081525f5160206123845f395f51905f52602052604090205460ff166103dd576001600160a01b03165f8181525f5160206123845f395f51905f5260205260408120805460ff191660011790553391907f3c11d16cbaffd01df69ce1c404f6340ee057498f5f00246190ea54220576a848905f5160206123445f395f51905f529080a460019056fe6080806040526004361015610012575f80fd5b5f3560e01c90816301ffc9a71461125857508063022f23541461121e57806306fdde0314611163578063095ea7b314610f305780630ca1c5c914610f0b578063153b0d1e14610e6257806318160ddd14610e4557806323b872dd14610e0d578063248a9ca314610de257806325d387b514610d34578063282c51f314610cfa5780632f2ff15d14610cbc578063313ce56714610ca157806336568abe14610c375780633f4ba83a14610b9a57806340c10f191461092157806342966c68146108f85780635c975abb146108d65780636006efb1146108615780636f97e31c1461083057806370a08231146107ec57806379cc6790146107975780637b499bd4146107725780638456cb59146106fb57806390014e2d146106b657806391d148541461065f57806395d89b4114610524578063a217fddf1461050a578063a9059cbb146104d9578063c204642c14610362578063d539139314610328578063d547741f146102e3578063dd62ed3e14610275578063e63ab1e91461023b578063f76d3a49146101f65763fe575a87146101a8575f80fd5b346101f25760206003193601126101f25773ffffffffffffffffffffffffffffffffffffffff6101d661133e565b165f526007602052602060ff60405f2054166040519015158152f35b5f80fd5b346101f25760206003193601126101f25773ffffffffffffffffffffffffffffffffffffffff61022461133e565b165f526008602052602060405f2054604051908152f35b346101f2575f6003193601126101f25760206040517f65d7a28e3265b37a6474929f336521b332c1681b933f6cb9f3376673440d862a8152f35b346101f25760406003193601126101f25761028e61133e565b73ffffffffffffffffffffffffffffffffffffffff6102ab611361565b91165f52600160205273ffffffffffffffffffffffffffffffffffffffff60405f2091165f52602052602060405f2054604051908152f35b346101f25760406003193601126101f257610326600435610302611361565b9061032161031c825f526005602052600160405f20015490565b6116b3565b611acc565b005b346101f2575f6003193601126101f25760206040517f9f2df0fed2c77648de5860a4cc508cd0818c85b8b8a1ab4ceeef8d981c8956a68152f35b346101f25760406003193601126101f25760043567ffffffffffffffff81116101f257366023820112156101f25780600401359067ffffffffffffffff82116104ac578160051b90604051926103bb6020840185611384565b835260246020840192820101903682116101f257602401915b81831061047f57836024356103e76115c3565b6103ef611b96565b5f5b82518110156103265760019073ffffffffffffffffffffffffffffffffffffffff60208260051b8601015116805f52600760205261043660ff60405f205416156113c5565b6104408482611bca565b61044c84600b5461148f565b600b557f8c32c568416fcf97be35ce5b27844cfddcd63a67a1a602c3595ba5dac38f303a6020604051868152a2016103f1565b823573ffffffffffffffffffffffffffffffffffffffff811681036101f2578152602092830192016103d4565b7f4e487b71000000000000000000000000000000000000000000000000000000005f52604160045260245ffd5b346101f25760406003193601126101f2576104ff6104f561133e565b602435903361183c565b602060405160018152f35b346101f2575f6003193601126101f25760206040515f8152f35b346101f2575f6003193601126101f2576040515f6004548060011c90600181168015610655575b602083108114610628578285529081156105e65750600114610588575b6105848361057881850382611384565b604051918291826112f6565b0390f35b91905060045f527f8a35acfbc15ff81a39ae7d344fd709f28e8600b4aa8c65c6b64bfe7fe36bd19b915f905b8082106105cc57509091508101602001610578610568565b9192600181602092548385880101520191019092916105b4565b7fffffffffffffffffffffffffffffffffffffffffffffffffffffffffffffff001660208086019190915291151560051b840190910191506105789050610568565b7f4e487b71000000000000000000000000000000000000000000000000000000005f52602260045260245ffd5b91607f169161054b565b346101f25760406003193601126101f257610678611361565b6004355f52600560205273ffffffffffffffffffffffffffffffffffffffff60405f2091165f52602052602060ff60405f2054166040519015158152f35b346101f25760206003193601126101f25773ffffffffffffffffffffffffffffffffffffffff6106e461133e565b165f526009602052602060405f2054604051908152f35b346101f2575f6003193601126101f25761071361162b565b61071b611b96565b60017fffffffffffffffffffffffffffffffffffffffffffffffffffffffffffffff0060065416176006557f62e78cea01bee320cd4e420270b5ea74000d11b0c9f74754ebdbfc544b05a2586020604051338152a1005b346101f2575f6003193601126101f25761078a61153b565b6020600a54604051908152f35b346101f25760406003193601126101f2576107e76107b361133e565b6107d360243580926107c3611b96565b6107ce82338361171a565b611c6e565b600b546107e2828210156114c9565b61152e565b600b55005b346101f25760206003193601126101f25773ffffffffffffffffffffffffffffffffffffffff61081a61133e565b165f525f602052602060405f2054604051908152f35b346101f2575f6003193601126101f25761084861153b565b6020610859600a54600b549061152e565b604051908152f35b346101f25760406003193601126101f25761087a61133e565b7f3a222b1556eabe6e4dc26bf6710306d9887609bc5dae7da4e0e69d79f4e89df9602073ffffffffffffffffffffffffffffffffffffffff602435936108be6115c3565b1692835f52600982528060405f2055604051908152a2005b346101f2575f6003193601126101f257602060ff600654166040519015158152f35b346101f25760206003193601126101f2576107e7600435610917611b96565b6107d38133611c6e565b346101f25760406003193601126101f25761093a61133e565b602435610945611b96565b73ffffffffffffffffffffffffffffffffffffffff82165f52600760205261097460ff60405f205416156113c5565b335f52600760205261098d60ff60405f2054161561142a565b335f9081527ffb0b87b760f82ed56ef8f6cc845f97c0494b3bcacd3d9886cbb61a722af659e1602052604090205460ff1615610ae157335f5260086020526109d98160405f205461148f565b335f52600960205260405f20548111610a8357335f52600860205260405f20555b600b5491610a08828461148f565b600a5410610a2557610a1d826103269461148f565b600b55611bca565b60646040517f08c379a000000000000000000000000000000000000000000000000000000000815260206004820152601b60248201527f4d6178206d696e7461626c65206c696d697420657863656564656400000000006044820152fd5b60646040517f08c379a000000000000000000000000000000000000000000000000000000000815260206004820152601d60248201527f5375622d61646d696e206d696e74206c696d69742065786365656465640000006044820152fd5b335f9081527f15a28d26fa1bf736cf7edc9922607171ccb09c3c73b808e7772a3013e068a522602052604090205460ff166109fa5760846040517f08c379a000000000000000000000000000000000000000000000000000000000815260206004820152602360248201527f43616c6c6572206973206e6f742061206d696e746572206f72207375622d616460448201527f6d696e00000000000000000000000000000000000000000000000000000000006064820152fd5b346101f2575f6003193601126101f257610bb261162b565b60065460ff811615610c0f577fffffffffffffffffffffffffffffffffffffffffffffffffffffffffffffff00166006557f5db9ee0a495bf2e6ff9c91a7834c1ba4fdd244a5e8aa4e537bd38aeae4b073aa6020604051338152a1005b7f8dfc202b000000000000000000000000000000000000000000000000000000005f5260045ffd5b346101f25760406003193601126101f257610c50611361565b3373ffffffffffffffffffffffffffffffffffffffff821603610c795761032690600435611acc565b7f6697b232000000000000000000000000000000000000000000000000000000005f5260045ffd5b346101f2575f6003193601126101f257602060405160128152f35b346101f25760406003193601126101f257610326600435610cdb611361565b90610cf561031c825f526005602052600160405f20015490565b6119f8565b346101f2575f6003193601126101f25760206040517f3c11d16cbaffd01df69ce1c404f6340ee057498f5f00246190ea54220576a8488152f35b346101f25760206003193601126101f257600435610d506115c3565b600b548110610d5e57600a55005b60846040517f08c379a000000000000000000000000000000000000000000000000000000000815260206004820152602c60248201527f4e6577206c696d69742063616e6e6f74206265206c657373207468616e20616c60448201527f7265616479206d696e74656400000000000000000000000000000000000000006064820152fd5b346101f25760206003193601126101f25760206108596004355f526005602052600160405f20015490565b346101f25760606003193601126101f2576104ff610e2961133e565b610e31611361565b60443591610e4083338361171a565b61183c565b346101f2575f6003193601126101f2576020600254604051908152f35b346101f25760406003193601126101f257610e7b61133e565b602435908115158092036101f257602073ffffffffffffffffffffffffffffffffffffffff7fcf3473b85df1594d47b6958f29a32bea0abff9dd68296f7bf33443646793cfd892610eca6115c3565b1692835f526007825260405f207fffffffffffffffffffffffffffffffffffffffffffffffffffffffffffffff0081541660ff8316179055604051908152a2005b346101f2575f6003193601126101f257610f2361153b565b6020600b54604051908152f35b346101f25760406003193601126101f257610f4961133e565b6024359060ff6006541661110557335f52600760205260ff60405f2054166110a75773ffffffffffffffffffffffffffffffffffffffff1690815f52600760205260ff60405f20541661104957331561101d578115610ff157335f52600160205260405f20825f526020528060405f20556040519081527f8c5be1e5ebec7d5bd14f71427d1e84f3dd0314c0f7b2291e5b200ac8c7c3b92560203392a3602060405160018152f35b7f94280d62000000000000000000000000000000000000000000000000000000005f525f60045260245ffd5b7fe602df05000000000000000000000000000000000000000000000000000000005f525f60045260245ffd5b60646040517f08c379a000000000000000000000000000000000000000000000000000000000815260206004820152601660248201527f5370656e64657220697320626c61636b6c6973746564000000000000000000006044820152fd5b60646040517f08c379a000000000000000000000000000000000000000000000000000000000815260206004820152601760248201527f417070726f76657220697320626c61636b6c69737465640000000000000000006044820152fd5b60646040517f08c379a000000000000000000000000000000000000000000000000000000000815260206004820152601460248201527f417070726f7665207768696c65207061757365640000000000000000000000006044820152fd5b346101f2575f6003193601126101f2576040515f6003548060011c90600181168015611214575b602083108114610628578285529081156105e657506001146111b6576105848361057881850382611384565b91905060035f527fc2575a0e9e593c00f959f8c92f12db2869c3395a3b0502d05e2516446f71f85b915f905b8082106111fa57509091508101602001610578610568565b9192600181602092548385880101520191019092916111e2565b91607f169161118a565b346101f2575f6003193601126101f25760206040517fd2e4c2619ea6e0faebc405d89445161c041e30fe03373ea0473da142d57d45148152f35b346101f25760206003193601126101f257600435907fffffffff0000000000000000000000000000000000000000000000000000000082168092036101f257817f7965db0b00000000000000000000000000000000000000000000000000000000602093149081156112cc575b5015158152f35b7f01ffc9a700000000000000000000000000000000000000000000000000000000915014836112c5565b7fffffffffffffffffffffffffffffffffffffffffffffffffffffffffffffffe0601f602060409481855280519182918282880152018686015e5f8582860101520116010190565b6004359073ffffffffffffffffffffffffffffffffffffffff821682036101f257565b6024359073ffffffffffffffffffffffffffffffffffffffff821682036101f257565b90601f7fffffffffffffffffffffffffffffffffffffffffffffffffffffffffffffffe0910116810190811067ffffffffffffffff8211176104ac57604052565b156113cc57565b60646040517f08c379a000000000000000000000000000000000000000000000000000000000815260206004820152601860248201527f526563697069656e7420697320626c61636b6c697374656400000000000000006044820152fd5b1561143157565b60646040517f08c379a000000000000000000000000000000000000000000000000000000000815260206004820152601560248201527f53656e64657220697320626c61636b6c697374656400000000000000000000006044820152fd5b9190820180921161149c57565b7f4e487b71000000000000000000000000000000000000000000000000000000005f52601160045260245ffd5b156114d057565b60646040517f08c379a000000000000000000000000000000000000000000000000000000000815260206004820152601960248201527f4275726e2065786365656473206d696e74656420746f74616c000000000000006044820152fd5b9190820391821161149c57565b335f9081527f15a28d26fa1bf736cf7edc9922607171ccb09c3c73b808e7772a3013e068a522602052604090205460ff161561157357565b7fe2517d3f000000000000000000000000000000000000000000000000000000005f52336004527f9f2df0fed2c77648de5860a4cc508cd0818c85b8b8a1ab4ceeef8d981c8956a660245260445ffd5b335f9081527f05b8ccbb9d4d8fb16ea74ce3c29a41f1b461fbdaff4714a0d9a8eb05499746bc602052604090205460ff16156115fb57565b7fe2517d3f000000000000000000000000000000000000000000000000000000005f52336004525f60245260445ffd5b335f9081527f99f2891db7a8db76249871a02b43b68c0bb8f22ef8a3bc1034ae9375ef6b7c3c602052604090205460ff161561166357565b7fe2517d3f000000000000000000000000000000000000000000000000000000005f52336004527f65d7a28e3265b37a6474929f336521b332c1681b933f6cb9f3376673440d862a60245260445ffd5b805f52600560205260405f2073ffffffffffffffffffffffffffffffffffffffff33165f5260205260ff60405f205416156116eb5750565b7fe2517d3f000000000000000000000000000000000000000000000000000000005f523360045260245260445ffd5b73ffffffffffffffffffffffffffffffffffffffff909291921691825f52600160205260405f2073ffffffffffffffffffffffffffffffffffffffff82165f5260205260405f2054927fffffffffffffffffffffffffffffffffffffffffffffffffffffffffffffffff8410611791575b50505050565b8284106117f257801561101d5773ffffffffffffffffffffffffffffffffffffffff821615610ff1575f52600160205273ffffffffffffffffffffffffffffffffffffffff60405f2091165f5260205260405f20910390555f80808061178b565b5073ffffffffffffffffffffffffffffffffffffffff83917ffb8f41b2000000000000000000000000000000000000000000000000000000005f521660045260245260445260645ffd5b73ffffffffffffffffffffffffffffffffffffffff169081156119cc5773ffffffffffffffffffffffffffffffffffffffff169182156119a05760ff6006541661194257815f52600760205261189960ff60405f2054161561142a565b825f5260076020526118b260ff60405f205416156113c5565b815f525f60205260405f205481811061191057817fddf252ad1be2c89b69c2b068fc378daa952ba7f163c4a11628f55a4df523b3ef92602092855f525f84520360405f2055845f525f825260405f20818154019055604051908152a3565b827fe450d38c000000000000000000000000000000000000000000000000000000005f5260045260245260445260645ffd5b60646040517f08c379a000000000000000000000000000000000000000000000000000000000815260206004820152601b60248201527f546f6b656e207472616e73666572207768696c652070617573656400000000006044820152fd5b7fec442f05000000000000000000000000000000000000000000000000000000005f525f60045260245ffd5b7f96c6fd1e000000000000000000000000000000000000000000000000000000005f525f60045260245ffd5b805f52600560205260405f2073ffffffffffffffffffffffffffffffffffffffff83165f5260205260ff60405f205416155f14611ac657805f52600560205260405f2073ffffffffffffffffffffffffffffffffffffffff83165f5260205260405f2060017fffffffffffffffffffffffffffffffffffffffffffffffffffffffffffffff0082541617905573ffffffffffffffffffffffffffffffffffffffff339216907f2f8788117e7eff1d82e926ec794901d17c78024a50270940304540a733656f0d5f80a4600190565b50505f90565b805f52600560205260405f2073ffffffffffffffffffffffffffffffffffffffff83165f5260205260ff60405f2054165f14611ac657805f52600560205260405f2073ffffffffffffffffffffffffffffffffffffffff83165f5260205260405f207fffffffffffffffffffffffffffffffffffffffffffffffffffffffffffffff00815416905573ffffffffffffffffffffffffffffffffffffffff339216907ff6391f5c32d9c69d2a47ea670b442974b53935d1edc7fd64eb21e047a839171b5f80a4600190565b60ff60065416611ba257565b7fd93c0665000000000000000000000000000000000000000000000000000000005f5260045ffd5b73ffffffffffffffffffffffffffffffffffffffff169081156119a05760ff60065416611942577fddf252ad1be2c89b69c2b068fc378daa952ba7f163c4a11628f55a4df523b3ef60205f9283805260078252611c2e60ff6040862054161561142a565b84845260078252611c4660ff604086205416156113c5565b611c528160025461148f565b60025584845283825260408420818154019055604051908152a3565b90919073ffffffffffffffffffffffffffffffffffffffff1680156119cc5760ff6006541661194257805f526007602052611cb060ff60405f2054161561142a565b5f805260076020527f6d5257204ebe7d88fd91ae87941cb2dd9d8062b64ae5a2bd2d28ec40b9fbf6df54611ce79060ff16156113c5565b805f525f60205260405f2054838110611d3f576020845f94957fddf252ad1be2c89b69c2b068fc378daa952ba7f163c4a11628f55a4df523b3ef938587528684520360408620558060025403600255604051908152a3565b91507fe450d38c000000000000000000000000000000000000000000000000000000005f5260045260245260445260645ffdfea2646970667358221220f2b49ec91d4da40b4aa0b73388f70f58b3576f7e9422cda574eb28882273c5b564736f6c634300081c00332f8788117e7eff1d82e926ec794901d17c78024a50270940304540a733656f0d15a28d26fa1bf736cf7edc9922607171ccb09c3c73b808e7772a3013e068a522847f481f687befb06ed3511f1a8dcef57e83007c0147ae5047583d705617093705b8ccbb9d4d8fb16ea74ce3c29a41f1b461fbdaff4714a0d9a8eb05499746bc99f2891db7a8db76249871a02b43b68c0bb8f22ef8a3bc1034ae9375ef6b7c3c","linkReferences":{}},"methodIdentifiers":{"BURNER_ROLE()":"282c51f3","DEFAULT_ADMIN_ROLE()":"a217fddf","MINTER_ROLE()":"d5391393","PAUSER_ROLE()":"e63ab1e9","SUB_ADMIN_ROLE()":"022f2354","airdrop(address[],uint256)":"c204642c","allowance(address,address)":"dd62ed3e","approve(address,uint256)":"095ea7b3","balanceOf(address)":"70a08231","burn(uint256)":"42966c68","burnFrom(address,uint256)":"79cc6790","decimals()":"313ce567","getMaxMintable()":"7b499bd4","getRemainingMintable()":"6f97e31c","getRoleAdmin(bytes32)":"248a9ca3","getTotalMinted()":"0ca1c5c9","grantRole(bytes32,address)":"2f2ff15d","hasRole(bytes32,address)":"91d14854","isBlacklisted(address)":"fe575a87","mint(address,uint256)":"40c10f19","name()":"06fdde03","pause()":"8456cb59","paused()":"5c975abb","renounceRole(bytes32,address)":"36568abe","revokeRole(bytes32,address)":"d547741f","setBlacklist(address,bool)":"153b0d1e","setMaxMintable(uint256)":"25d387b5","setSubAdminLimit(address,uint256)":"6006efb1","subAdminMintLimit(address)":"90014e2d","subAdminMinted(address)":"f76d3a49","supportsInterface(bytes4)":"01ffc9a7","symbol()":"95d89b41","totalSupply()":"18160ddd","transfer(address,uint256)":"a9059cbb","transferFrom(address,address,uint256)":"23b872dd","unpause()":"3f4ba83a"},"id":36}